:100000000C9470050C940C1F0C94E51E0C94980530
:100010000C9498050C9498050C948B1F0C949805DF
:100020000C9498050C9498050C9498050C949805DC
:100030000C9498050C9498050C9498050C949805CC
:100040000C949B1E0C9498050C94591F0C94331F10
:100050000C9498050C9498050C9498050C949805AC
:100060000C94A21F0C94980500000000003E5B4F0A
:100070005B3E3E6B4F6B3E1C3E7C3E1C183C7E3C08
:10008000181C577D571C1C5E7F5E1C00183C180016
:10009000FFE7C3E7FF0018241800FFE7DBE7FF30A6
:1000A000483A060E2629792926407F050507407F14
:1000B00005253F5A3CE73C5A7F3E1C1C08081C1C87
:1000C0003E7F14227F22145F5F005F5F06097F017D
:1000D0007F006689956A606060606094A2FFA29468
:1000E00008047E040810207E201008082A1C080836
:1000F0001C2A08081E101010100C1E0C1E0C303884
:100100003E3830060E3E0E06000000000000005F84
:1001100000000007000700147F147F14242A7F2AA0
:100120001223130864623649562050000807030062
:10013000001C2241000041221C002A1C7F1C2A08AE
:10014000083E080800807030000808080808000011
:1001500060600020100804023E5149453E00427F85
:10016000400072494949462141494D331814127FD4
:100170001027454545393C4A494931412111090774
:100180003649494936464949291E000014000000F5
:1001900040340000000814224114141414140041C7
:1001A00022140802015909063E415D594E7C121184
:1001B000127C7F494949363E414141227F414141BC
:1001C0003E7F494949417F090909013E4141517337
:1001D0007F0808087F00417F41002040413F017FA8
:1001E000081422417F404040407F021C027F7F0470
:1001F00008107F3E4141413E7F090909063E4151B9
:10020000215E7F09192946264949493203017F01A8
:10021000033F4040403F1F2040201F3F4038403FA9
:10022000631408146303047804036159494D4300BF
:100230007F4141410204081020004141417F0402F6
:10024000010204404040404000030708002054548D
:1002500078407F284444383844444428384444286B
:100260007F385454541800087E090218A4A49C78BE
:100270007F0804047800447D40002040403D007F1A
:100280001028440000417F40007C047804787C08FA
:100290000404783844444438FC18242418182424CE
:1002A00018FC7C08040408485454542404043F44B3
:1002B000243C4040207C1C2040201C3C4030403CE2
:1002C00044281028444C9090907C4464544C440042
:1002D00008364100000077000000413608000201A6
:1002E0000204023C2623263C1EA1A161123A404092
:1002F000207A38545455592155557941225454780F
:1003000042215554784020545579400C1E527212A7
:100310003955555559395454545939555454580030
:1003200000457C410002457D420001457C407D1234
:1003300011127DF0282528F07C5455450020545496
:100340007C547C0A097F4932494949323A44444441
:100350003A324A4848303A4141217A3A424020787C
:10036000009DA0A07D3D4242423D3D4040403D3C7D
:1003700024FF2424487E4943662B2FFC2F2BFF09A2
:1003800029F620C0887E0903205454794100004496
:100390007D413048484A32384040227A007A0A0A81
:1003A000727D0D19317D2629292F282629292926F4
:1003B00030484D4020380808080808080808382F39
:1003C00010C8ACBA2F102834FA00007B00000814C3
:1003D0002A142222142A14085500550055AA55AA99
:1003E00055AAFF55FF55FF000000FF00101010FF39
:1003F00000141414FF001010FF00FF1010F010F094
:10040000141414FC001414F700FF0000FF00FF1484
:1004100014F404FC141417101F10101F101F1414D0
:10042000141F00101010F0000000001F101010101A
:100430001F10101010F010000000FF10101010100E
:1004400010101010FF10000000FF140000FF00FF4C
:1004500000001F10170000FC04F4141417101714E8
:1004600014F404F40000FF00F7141414141414140A
:10047000F700F7141414171410101F101F1414147D
:10048000F4141010F010F000001F101F0000001FE7
:1004900014000000FC140000F010F01010FF10FF1A
:1004A000141414FF141010101F00000000F010FFAF
:1004B000FFFFFFFFF0F0F0F0F0FFFFFF0000000093
:1004C00000FFFF0F0F0F0F0F3844443844FC4A4A17
:1004D0004A347E02020606027E027E0263554941CC
:1004E000633844443C04407E201E2006027E020203
:1004F00099A5E7A5991C2A492A1C4C7201724C3017
:100500004A4D4D303048784830BC625A463D3E49ED
:100510004949007E0101017E2A2A2A2A2A44445F91
:10052000444440514A444040444A51400000FF0185
:1005300003E080FF000008086B6B08361236243693
:10054000060F090F060000181800000010100030F8
:1005500040FF0101001F01011E00191D1712003C80
:100560003C3C3C0000000000000103070F1F3F7FE0
:100570000080C0E0F0F8FCFEDB40A4A62EAF200017
:10058000A1C8D300408DAED580A800006000000057
:100590000000000000000000000000E0000000007B
:1005A00000000000000000000001E000000000006A
:1005B000000000000000000001F00000000000004A
:1005C0000000000000000003F00000000000000038
:1005D00000000000000007F0000000000000000024
:1005E000000000000007F80000000000000000000C
:1005F000000000000FF800000003C0007E000001B2
:10060000E0007F0FF800000003C000FE000001E0E2
:1006100000FFEFF800000003C000FE000001E00052
:10062000FFFFF800000003C000F00000000F007F93
:10063000FE7FC0000003C000F00000000F003FFE7E
:100640007FF83FF1FBCFFCFEF3BC3DEFE01FFE7FE8
:10065000FF7FFBFFDFFEFEFFBC3DEFE01FC6FFFF9D
:100660007FFBFFDFFEFEFFBC3DEFE00FE3C7FE7840
:100670007BC3DE1EF0FFBC3DEF0007FF87FC787BED
:10068000C3DE1EF0F83C3DEF0001FFFFF0007BC32E
:10069000C01EF0F03C3DEF0001F37FE03FFBC3CF15
:1006A000FEF0F03C3DEF0003E33F807FFBC3DFFE45
:1006B000F0F03C3DEF0007E73C00787BC3DE1EF026
:1006C000F03C3DEF0007FFBE00787BC3DE1EF0F07C
:1006D0003C3DEF0007FFFE00787BC3DE1EF0F03CE0
:1006E0003DEF000FFFFE007FFBFFDFFEF0F03FFD60
:1006F000EFE00FFFFF007FFBFFDFFEF0F03FFDEFBD
:10070000E00FF9FF003E79F9CF9EF0F01F3DE7E0E2
:100710001FF1FF0000000000000000000000001FAB
:1007200080FF007FFFFFFFFFFFFFFFFFFFE01C00D8
:100730007F007FFFFFFFFEB46D888D18E000001F73
:10074000007FFFFFFFFE95AD7DB577E000000F0055
:100750007FFFFFFFFEA5AD9D8D19E0000006007F25
:10076000FFFFFFFEB5ADEDB57EE00000000000012B
:100770008000000000000000000003800000000076
:10078000000000000007C0000000000000000000A2
:1007900007C00000000000000000000FC0000000C3
:1007A0000000000000001FE000000000000000004A
:1007B000001FE00000000000000000003FE000001B
:1007C000000000000000003FF000000000000000FA
:1007D00000007FF0000000000000001FF87FF00024
:1007E0000000000000003FFE7FF00000000000005D
:1007F000003FFF7FF0000000000000001FFFFBE053
:10080000000000000000000FFFF9FFC00000000022
:1008100000000FFFF9FFF800000000000007FFF1E3
:10082000FFFF00000000000003FC73FFFF800000DA
:1008300000000001FE3FFFFF80000000000000FFFD
:100840001E0FFF000000000000007FFE1FFC0000E4
:1008500000000000003FFFFFF80000000000000063
:100860000FDFFFE0000000000000001F19FFC000C4
:100870000000000000003F3CFF00000000000000FE
:10088000007E7CF800000000000000007FFE7C007D
:1008900000000000000000FFFFFC0000000000005E
:1008A0000000FFFFFE0000000000000000FFFFFE50
:1008B0000000000000000001FFEFFE00000000004B
:1008C000000001FFCFFE0000000000000003FF0752
:1008D000FE0000000000000003FC07FE0000000016
:1008E00000000003F003FE00000000000000018093
:1008F00000FE000000000000000000007E0000007C
:10090000000000000000003E0000000000000000A9
:1009100000000C000000000000078000FC00000345
:10092000C0000000078001FC000003C000000007B9
:100930008001FC000003C0000000078001E000000F
:10094000001E000000078001E00000001E007FE3A1
:10095000F79FF9FDE7787BDFC0FFF7FFBFFDFDFFE5
:10096000787BDFC0FFF7FFBFFDFDFF787BDFC0F0C6
:10097000F787BC3DE1FF787BDE00F0F787BC3DE107
:10098000F0787BDE0000F787803DE1E0787BDE00D9
:100990007FF7879FFDE1E0787BDE00FFF787BFFDF3
:1009A000E1E0787BDE00F0F787BC3DE1E0787BDEBC
:1009B00000F0F787BC3DE1E0787BDE00F0F787BC14
:1009C0003DE1E0787BDE00FFF7FFBFFDE1E07FFB6C
:1009D000DFC0FFF7FFBFFDE1E07FFBDFC07CF3F38B
:1009E0009F3DE1E03E7BCFC0000000000000000022
:1009F000000000FFFFFFFFFFFFFFFFFFFFC0FFFF43
:100A0000FFFFFD68DB111A31C0FFFFFFFFFD2B5A0E
:100A1000FB6AEFC0FFFFFFFFFD4B5B3B1A33C0FFDC
:100A2000FFFFFFFD6B5BDB6AFDC053534431333086
:100A30003620626567696E206661696C6564002DA9
:100A40002D2D2D2D2D2D2D2D2D2D2D2D2D2D2D2DD6
:100A50002D2D2D2D2D002D2D2D2D204D6167696300
:100A600020537175617265202D2D2D2D0000000021
:100A700000240027002A0000000000250028002B89
:100A800000000000002300260029000404040404E0
:100A9000040404020202020202030303030303012B
:100AA0000204081020408001020408102001020402
:100AB00008102000000008000201000003040700E5
:100AC000000000000000002200FF210009060310C2
:100AD000040F0A050E01080B070C0D02D820D72CB5
:100AE00011241FBECFEFD8E0DEBFCDBF12E0A0E0E3
:100AF000B1E0ECEDF9E602C005900D92A639B10720
:100B0000D9F724E0A6E9B2E001C01D92A73DB207E3
:100B1000E1F715E0CFE6D5E004C02197FE010E9481
:100B20003C30CE36D107C9F70E949F220C94E134A5
:100B30000C940000089508950895833081F028F4FE
:100B4000813099F08230A9F008958730A9F088307B
:100B5000C9F08430B1F4809180008F7D03C0809112
:100B600080008F7780938000089584B58F7784BD4F
:100B7000089584B58F7DFBCF8091B0008F778093EF
:100B8000B00008958091B0008F7DF9CFCF93DF93AF
:100B9000282F30E0F901ED54F54F8491F901E15629
:100BA000F54FD491F901E557F54FC491CC23A1F04D
:100BB00081110E949D05EC2FF0E0EE0FFF1FEF5713
:100BC000F54FA591B491EC91ED2381E090E009F40B
:100BD00080E0DF91CF91089580E090E0FACF1F93FD
:100BE000CF93DF93282F30E0F901ED54F54F849136
:100BF000F901E156F54FD491F901E557F54FC4914C
:100C0000CC23A9F0162F81110E949D05EC2FF0E056
:100C1000EE0FFF1FE958F54FA591B4918FB7F894E7
:100C2000EC91111108C0D095DE23DC938FBFDF91CA
:100C3000CF911F910895DE2BF8CFCF93DF9390E0F3
:100C4000FC01E156F54F24918557954FFC018491A5
:100C50008823D1F090E0880F991FFC01E359F54FEC
:100C6000A591B491FC01E958F54FC591D49162303A
:100C700071F49FB7F8943C91822F809583238C93D5
:100C8000E8812E2B28839FBFDF91CF9108958FB7E6
:100C9000F894EC912E2B2C938FBFF6CF3FB7F8949E
:100CA0008091520390915303A0915403B091550346
:100CB00026B5A89B05C02F3F19F00196A11DB11DB7
:100CC0003FBFBA2FA92F982F8827BC01CD01620FF3
:100CD000711D811D911D42E0660F771F881F991FAE
:100CE0004A95D1F708958F929F92AF92BF92CF927B
:100CF000DF92EF92FF924B015C010E944E066B0166
:100D00007C010E944E066C197D098E099F09683E80
:100D1000734081059105A8F321E0821A9108A1088A
:100D2000B10888EEC80E83E0D81EE11CF11C8114C6
:100D30009104A104B10429F7FF90EF90DF90CF90C8
:100D4000BF90AF909F908F9008952FB7F8946091C7
:100D50004E0370914F0380915003909151032FBF28
:100D60000895CF92DF92EF92FF920E94A5066B0149
:100D70007C010E94A5066C197D098E099F09683BBC
:100D80007B408105910560F482E00E94C6050197D1
:100D900069F06AE070E080E090E00E947306E9CFBD
:100DA00081E0FF90EF90DF90CF90089580E0F9CF41
:100DB00008950895AF92BF92CF92DF92EF92FF9283
:100DC0000F931F93CF93DF936C017B018B01040F73
:100DD000151FEB015E01AE18BF08C017D10759F00F
:100DE0006991D601ED91FC910190F081E02DC60151
:100DF0000995892B79F7C501DF91CF911F910F914B
:100E0000FF90EF90DF90CF90BF90AF900895FC01DE
:100E1000448155816081718184E094E00C94DA060C
:100E2000FC01538D448D252F30E0842F90E0821BF0
:100E3000930B541710F0CF96089501970895FC0175
:100E4000918D828D981761F0A28DAE0FBF2FB11DCD
:100E50005D968C91928D9F5F9F73928F90E0089525
:100E60008FEF9FEF0895FC01918D828D981731F0DF
:100E7000828DE80FF11D858D90E008958FEF9FEF33
:100E80000895FC01918D228D892F90E0805C9F4F09
:100E9000821B91098F73992708958BE593E00E9437
:100EA000410721E0892B09F420E0822F089580E09A
:100EB00090E0892B29F00E944D0781110C940000CD
:100EC0000895FC01A48DA80FB92FB11DA35ABF4FDF
:100ED0002C91848D90E001968F739927848FA68939
:100EE000B7892C93A089B1898C91837080648C938D
:100EF000938D848D981306C00288F389E02D80813C
:100F00008F7D80830895EF92FF920F931F93CF936D
:100F1000DF93EC0181E0888F9B8D8C8D98131AC034
:100F2000E889F989808185FF15C09FB7F894EE891B
:100F3000FF896083E889F989808183708064808378
:100F40009FBF81E090E0DF91CF911F910F91FF90C3
:100F5000EF900895F62E0B8D10E00F5F1F4F0F736B
:100F60001127E02E8C8D8E110CC00FB607FCFACF26
:100F7000E889F989808185FFF5CFCE010E9461075C
:100F8000F1CFEB8DEC0FFD2FF11DE35AFF4FF082F7
:100F90009FB7F8940B8FEA89FB8980818062CFCF5D
:100FA000CF93DF93EC01888D8823B9F0AA89BB89A0
:100FB000E889F9898C9185FD03C0808186FD0DC08B
:100FC0000FB607FCF7CF8C9185FFF2CF808185FFAC
:100FD000EDCFCE010E946107E9CFDF91CF91089557
:100FE0004115510529F4EAE7F0E080818F7780838D
:100FF0006A307105B9F0CB01880F991F880F991FCE
:10100000807267706860682B88E10FB6F894A895C5
:10101000809360000FBE60936000E0E6F0E08081A6
:1010200080648083232BD9F483B7817F846083BF5E
:10103000F89483B7816083BF85B7806685BF8F7D55
:1010400085BF7894889583B78E7F83BF7894452B2E
:1010500029F4EAE7F0E0808180688083089583B70F
:10106000817F846083BFF89483B7816083BF789465
:10107000889583B78E7F83BF7894E9CF2F923F9274
:101080004F925F926F927F928F929F92AF92BF9298
:10109000CF92DF92EF92FF920F931F93CF93DF9344
:1010A00000D01F92CDB7DEB79B838A83DC018C9181
:1010B00081119DC0EE24E394F12C10E000E0EA8160
:1010C000FB81A680B780C480D58082818E151F04E5
:1010D00009F008F488C045018E0C9F1CD401BC9116
:1010E000B98344E0B49FF0011124EC0DFD1D408054
:1010F000518062807380D501EC91B4E0EB9FF001E8
:101100001124EC0DFD1D2081318142815381C301E9
:10111000B2010E94332D18160CF05CC0EA81FB81ED
:101120008085811130C05701850101501109D4011A
:10113000EE914D01B4E0EB9FF0011124EC0DFD1D8B
:101140002081318142815381C301B2010E94332D3C
:1011500087FD02C0850104C058010115110521F762
:10116000C701AA81BB8116962D913C91F901E80F28
:10117000F91F0817190788F50197280F391FD9019A
:101180002C912083EECF813059F78701312C212C0F
:10119000C80182199309029718F34801820C931C25
:1011A00096948794F501E80DF91DE08144E0E49FF1
:1011B000F0011124EC0DFD1D20813181428153810C
:1011C000C301B2010E94332D87FD02C01401E0CF9C
:1011D0008401DECF10E000E0C3CFB981B083EFEF30
:1011E000EE1AFE0A6CCF81E0AA81BB818C93EA8162
:1011F000FB8122810481158146815781E22FE6958A
:10120000E40FF52FF11DA08144E0A49FD00111242B
:10121000A00FB11F6D917D918D919C9120FD15C006
:1012200031972081A4E02A9F90011124F801E20F58
:10123000F31F20813181428153810E94002F20E0E1
:1012400030E040E05FE30E94992D0F900F900F90E7
:10125000DF91CF911F910F91FF90EF90DF90CF9092
:10126000BF90AF909F908F907F906F905F904F90C6
:101270003F902F900895CF93DF93FC012481358117
:101280009381A1E0A90FA383B4E09B9FC001112427
:10129000820F931FEC01488359836A837B8391817A
:1012A000A91708F013828281891710F48F5F828357
:1012B0001082DF91CF910895FC0112821382108277
:1012C00090E08181981738F4A681B781A90FB11DEC
:1012D0009C939F5FF6CF0895EF92FF920F931F9319
:1012E000CF93DF93EC01EC80FD806E157F050CF051
:1012F00070C057FF04C0240F351F50E040E08E81BE
:101300009F81FA01E20FF31F8E179F071CF49C01C7
:10131000241B350B121613060CF05BC0922F842F82
:101320008695869586958E9DD0018F9DB00D112452
:101330006A0F7B1FAF8DB8A1A60FB71F477049F189
:1013400088E0841B482F682F70E0FB01E059FA4FBA
:10135000E491281708F063C0621B71092FEF30E099
:1013600002C0359527956A95E2F7E2230130110511
:1013700039F0B0F10230110561F58C91E82702C017
:101380008C91E82BEC93941720F12C813D81A20FD6
:10139000B31FE92FE41BE83078F00230110521F586
:1013A0008E2F9C9190959C932C813D81A20FB31F11
:1013B00088508830B0F7E770EE2359F0F0E0E85934
:1013C000FA4FE49101301105F9F010F102301105E6
:1013D00019F1DF91CF911F910F91FF90EF90089538
:1013E000E0958C91E823CECF81E00115110509F439
:1013F00080E081959E2F8C932C813D81A20FB31F9D
:1014000098509830C0F7D7CF8C91E82BEC93E1CF70
:10141000E0958C91E823FACF8C91E827F7CF013043
:10142000110509F4ADCFE0F20230110509F4A5CFA2
:10143000AE0DBF1DAECF0F931F93CF93DF9377FFFA
:1014400004C0260F371F70E060E0DC011496CD91D8
:10145000DC91FB01E20FF31FCE17DF071CF49E01A6
:10146000261B370B121613064CF5FA0157FD37965B
:10147000A3E0F595E795AA95E1F7EC9FD001ED9FE4
:10148000B00DFC9FB00D11246A0F7B1FDC015F962D
:10149000ED91FC91E60FF71F4770552781E090E032
:1014A00001C0880F4A95EAF7482F0130110559F01D
:1014B000A8F02E0F3F1F02301105E1F0DF91CF9110
:1014C0001F910F9108952E0F3F1FE217F307B1F3FD
:1014D0008191DF011197842B8C93F7CF80952E0F8C
:1014E0003F1FE217F30751F39191DF011197982302
:1014F0009C93F7CFE217F30709F38191DF0111976E
:1015000084278C93F7CF0F931F93FA01DC01569633
:101510004C9156974230E9F04330A1F1413061F5EA
:1015200014964D915C91DA01AE1BBF0BFD01E21BDD
:10153000F30B77FD0BC0DC0116964D915C9164179F
:10154000750724F4AB01BF010E941B0A1F910F9184
:10155000089514964D915C91DA01A61BB70BBD015D
:1015600061507109DC0116964D915C91DA01AE1B58
:10157000BF0BFD01E21BF30B77FDE8CFAF010E942B
:101580006C09E4CF16964D915C91DA01A61BB70B5E
:10159000BD0161507109CDCF0F931F93FA01DC019A
:1015A00056964C9156974230A9F0433091F1413014
:1015B00019F514964D915C91DA01AE1BBF0BFD013C
:1015C0003197F7FD04C0AB01BF010E946C091F9168
:1015D0000F91089514964D915C91DA01A61BB70BFB
:1015E000BD01DC0116964D915C91DA01AE1BBF0B7B
:1015F000FD013197621B730BF7FDE9CFDC011696F5
:101600004D915C91E417F50714F7AF010E941B0A96
:10161000DECF16964D915C91DA01A61BB70BBD018A
:10162000621B730BCECFFC0177FD64C08085918572
:10163000681779070CF05EC057FD5CC08285938502
:10164000481759070CF056C086898230B1F08330B4
:1016500029F1813041F484819581841B950BAB0184
:10166000BC01615071092130310509F108F443C012
:101670002230310509F463C0089584819581DC012D
:10168000A61BB70BBD016150710986819781DC01F2
:10169000A41BB50BAD0141505109E5CF868197815F
:1016A000861B970BBA01AC0141505109DCCFCA012E
:1016B00057FD0796A3E095958795AA95E1F7A48134
:1016C000B5818A9F90018B9F300D9A9F300D112418
:1016D000620F731F078CF0A1E02DE60FF71F477014
:1016E000552721E030E001C0220F4A95EAF78081BA
:1016F000822B80830895CA0157FD079633E09595A4
:1017000087953A95E1F7A481B5818A9F90018B9FD7
:10171000300D9A9F300D1124620F731F078CF0A1BA
:10172000E02DE60FF71F4770552781E090E001C0DC
:10173000880F4A95EAF7809590818923DACFCA010C
:1017400057FD079623E0959587952A95E1F7A481A3
:10175000B5818A9F90018B9F300D9A9F300D112487
:10176000620F731F078CF0A1E02DE60FF71F477083
:10177000552721E030E001C0220F4A95EAF7808129
:101780008227B7CF2091FC02260F3327331F213247
:101790003105ECF420912003FC0190E080E024303E
:1017A00069F082E00895A091FC022191AC014452BD
:1017B0005D4FA40FB52FB11D2C930196861798F39A
:1017C0008091FC02680F6093FC0280E0089581E044
:1017D00008959B01AC0160E074E284EF90E00E9408
:1017E000CE2E20513109410951095695479537951B
:1017F00027952093B80008951092200381E08093EC
:1018000022031092210361E082E10E94EF0561E072
:1018100083E10E94EF05E9EBF0E080818E7F808319
:1018200080818D7F808388E48093B80085E48093F5
:10183000BC000895CF93DF9391E09093DB0288235F
:10184000B9F0C091B800D091BA008091BC008A7BF9
:101850008093BC0060E082E10E94EF0560E083E1DC
:101860000E94EF050E94FC0BD093BA00C093B80011
:10187000DF91CF910895E0914C0380914B03E817DD
:1018800030F4F0E0EA54FD4F808190E008958FEF4E
:101890009FEF089590914C0380914B032FEF3FEF02
:1018A000981748F4E92FF0E0EA54FD4F208130E02A
:1018B0009F5F90934C03C901089580914B039091D1
:1018C0004C03891B990B0895CF92DF92EF92FF9200
:1018D0000F931F93CF93DF937C01CB018A0120915B
:1018E0005A03222389F0EB016B01C40ED51ECC15DF
:1018F000DD0569F06991D701ED91FC910190F081CE
:10190000E02DC7010995F3CF642F0E94C20BC801D7
:10191000DF91CF911F910F91FF90EF90DF90CF90CB
:101920000895CF93DF931F92CDB7DEB769832091DF
:101930005A032223F9F020915703203258F021E076
:1019400030E0FC013383228390E080E00F90DF9150
:10195000CF91089580915803E82FF0E0EA56FD4FAB
:10196000998190838F5F809358038093570381E020
:1019700090E0ECCF61E0CE0101960E94C20BF7CF60
:10198000CF92DF92EF92FF920F931F93CF93DF934B
:10199000D091570381E0D13208F09CC0C091590327
:1019A0000E944E066B017C018091200381116CC066
:1019B00082E08093200381E0809322038FEF809365
:1019C0001F0310924403D0934303A6E9B2E0E3E27D
:1019D000F3E080E0D8138DC0109245038091450359
:1019E000CC0FC82BC093450380912103813009F0AF
:1019F00084C0109221030E944E066B017C018091ED
:101A000045038093BB008091D7029091D802A091AA
:101A1000D902B091DA02892B8A2B8B2BA1F00E947C
:101A20004E060091D7021091D8022091D902309130
:101A3000DA026C197D098E099F0906171707280716
:101A4000390708F442C08091BC0083FDD8CF85ECF3
:101A50008093BC000E944E066B017C0180912003A4
:101A6000823009F44CC080911F038F3F09F469C094
:101A700080911F03803209F466C080911F03803378
:101A800009F463C084E026C08091D7029091D80207
:101A9000A091D902B091DA02892B8A2B8B2B09F401
:101AA00083CF0E944E060091D7021091D802209158
:101AB000D9023091DA026C197D098E099F09061747
:101AC00017072807390708F06FCF8091D6020E94C8
:101AD0001A0C85E0109258031092570310925A0383
:101AE000DF91CF911F910F91FF90EF90DF90CF90FA
:101AF00008959D9191938F5F6DCF85EEA9CF8091D1
:101B0000D7029091D802A091D902B091DA02892B24
:101B10008A2B8B2B09F4A2CF0E944E060091D7028C
:101B20001091D8022091D9023091DA026C197D0906
:101B30008E099F09061717072807390708F08ECF67
:101B4000C4CF80E0C7CF82E0C5CF83E0C3CF089584
:101B50008EBD00000DB407FEFDCF8EB50895EF9247
:101B6000FF920F931F93CF93DF937C01C62F809139
:101B7000210490912204009709F459C02091250472
:101B800031E030935A032093590310925803109276
:101B90005703DC01ED91FC910190F081E02D60E0B4
:101BA00009958701EE24E394F12CD1E0C150809196
:101BB000210490912204CF3F91F1B0E2EB16F104A1
:101BC000D8F00E94C00C80912104909122042091B1
:101BD0002504D0935A03209359031092580310926E
:101BE0005703DC01ED91FC910190F081E02D60E064
:101BF0000995EE24E394F12C809121049091220424
:101C0000F8016491DC01ED91FC910190F081E02DEF
:101C10000995BFEFEB1AFB0A0F5F1F4FC7CFDF918C
:101C2000CF911F910F91FF90EF900C94C00CE09119
:101C30003104F0913204908180913704809589239A
:101C400080838701C15008F438C0F8018491209145
:101C50001F0430912004232B29F00E94A80D0F5F50
:101C60001F4FF0CF28E030E040E8E0912D04F091E4
:101C70002E0490913504582F5423D9F05081952B80
:101C80009083E0912F04F0913004908150913604BC
:101C9000952B9083E0912F04F09130045081909126
:101CA0003604909595239083469521503109E9F6A5
:101CB000D6CF508190959523E3CFDF91CF911F919F
:101CC0000F91FF90EF9008951F93CF93DF93EC0156
:101CD0008D8D9E8D009721F1162F29A131E0309333
:101CE0005A03209359031092580310925703DC01B2
:101CF000ED91FC910190F081E02D60E009958D8DD2
:101D00009E8DDC01ED91FC910190F081E02D612F21
:101D100009958D8D9E8DDF91CF911F910C94C00CF4
:101D2000ADA5BEA59C918BA9809589238C938B8DA5
:101D30009C8D892B31F0862FDF91CF911F910C94D0
:101D4000A80D28E030E080E8A9A5BAA599A9462FFA
:101D50004823C1F04C91942B9C93ABA5BCA59C91BE
:101D60004AA9942B9C93ABA5BCA54C919AA990959C
:101D700094239C9386952150310931F7DF91CF91BF
:101D80001F9108954C9190959423E6CF8CBD9DBDF5
:101D90000895DF92EF92FF920F931F93CF93DF93FB
:101DA0008091210490912204892B09F48AC06091CA
:101DB000390470913A0480913B0490913C040E9454
:101DC000E90B65E087EC9AE00E94AF0D6091080492
:101DD000615084E094E00E94640E20910A043091E6
:101DE0000B04C901079697FD079623E09595879503
:101DF0002A95E1F72091080430910904829F80011F
:101E0000839F100D929F100D1124C0912304D09137
:101E1000240480912104909122040C0F1D1F00972F
:101E200009F480C02091250431E030935A032093B7
:101E300059031092580310925703DC01ED91FC9165
:101E40000190F081E02D60E40995EE24E394F12CFB
:101E5000DD24D39480912104909122040C171D0756
:101E600009F446C0B0E2EB16F104D8F00E94C00CB1
:101E7000809121049091220420912504D0925A034C
:101E8000209359031092580310925703DC01ED91EF
:101E9000FC910190F081E02D60E40995EE24E3943B
:101EA000F12C80912104909122046991DC01ED9143
:101EB000FC910190F081E02D0995BFEFEB1AFB0A30
:101EC000C9CF80911F0490912004892B31F080911B
:101ED0004204909143040E94C60EE0913304F091B5
:101EE000340490818091380480958923808369CF60
:101EF0000E94C00C8091210490912204892B09F446
:101F000052C060913D0470913E0480913F049091D5
:101F10004004DF91CF911F910F91FF90EF90DF90E0
:101F20000C94E90BE0913104F0913204808190919E
:101F30003704892B80830C171D07E1F289912091CA
:101F40001F0430912004232B19F00E94A80DF3CF19
:101F500028E030E040E8E0912D04F0912E049091CB
:101F60003504582F5423D9F05081952B9083E0915C
:101F70002F04F0913004908150913604952B90837A
:101F8000E0912F04F09130045081909136049095A7
:101F900095239083469521503109E9F6CCCF5081A5
:101FA00090959523E3CFE0913304F0913404808140
:101FB00090913804892B8083DF91CF911F910F91ED
:101FC000FF90EF90DF900895CF93C82F8091210468
:101FD00090912204892B01F16091390470913A04A7
:101FE00080913B0490913C040E94E90B6C2F84E0AB
:101FF00094E00E94640E8091210490912204892B28
:1020000011F160913D0470913E0480913F049091E4
:102010004004CF910C94E90B80911F04909120040F
:10202000892B31F080914204909143040E94C60EA6
:10203000E0913304F09134049081809138048095CC
:1020400089238083D3CFE0913304F09134048081DD
:1020500090913804892B8083CF9108951F93CF935B
:10206000DF93EC01162F8D8D9E8D892BC9F06DA904
:102070007EA98FA998AD0E94E90B66EA111167EA63
:10208000CE010E94640E8D8D9E8D892BC9F069ADA5
:102090007AAD8BAD9CADDF91CF911F910C94E90B84
:1020A0008B8D9C8D892B21F08EAD9FAD0E94C60E2D
:1020B000EFA5F8A990818CA9809589238083DDCF35
:1020C000EFA5F8A980819CA9892B8083DF91CF910E
:1020D0001F9108950895FC016370668B848195813A
:1020E00026813781613039F0633029F0918780870C
:1020F00033872287089531872087938782870895C1
:102100002F923F924F925F926F927F928F929F9207
:10211000AF92BF92CF92DF92EF92FF920F931F93F5
:10212000CF93DF93CDB7DEB76A970FB6F894DEBFD3
:102130000FBECDBF9A8F898F7A8369834A01D22ED1
:1021400018870F833701BC2CDC0159962D913C91E7
:102150005A972115310509F015C118968D919C915A
:102160001997681779070CF0D7C11A968D919C9131
:10217000481759070CF0D0C14C2C512CB6E0CB9E1F
:10218000600D711D11247C876B87161617060CF0E5
:10219000C3C1EA2DF0E0FA87E98793E0EE0FFF1F55
:1021A0009A95E1F7F88BEF87CF01840F951F1816EA
:1021B00019060CF0B1C1A98DBA8D58968C91811178
:1021C00004C0BFEABD1508F4D394A98DBA8DED9172
:1021D000FC9111970284F385E02DCD010995B5E0BE
:1021E000DB9EC0011124E981FA81FC83EB83312C51
:1021F000212C9C0128593F4F388F2F8B4A2D50E0BE
:102200005E8B4D8BEF89F88DE20DF31D44919E821C
:102210008D82D12CC12C69817A81620D731D7A8BDC
:10222000698B842F90E09C8B8B8BE98DFA8DA0813C
:10223000B18140FF82C0F1E0BF126FC0AF126DC02C
:102240001C96ED91FC912F813885A4014C0D5D1DEC
:1022500069897A89898D9A8D0995EB89FC89F5952B
:10226000E7954E2F5FEFC51AD50A6D817E818D8966
:102270009E89680F791F7E836D8398E0C916D1040B
:1022800081F6AFEF2A1A3A0AEB81FC81E40DF51DC5
:10229000FC83EB83F5E02F16310409F0B3CF2F81D7
:1022A000388526153705B9F0A98DBA8DED91FC91C9
:1022B000B1E0BB1257C0AB1255C069817A816B5F28
:1022C0007F4F0088F189E02D830128E030E0A401F0
:1022D000898D9A8D0995A98DBA8DED91FC911197F3
:1022E0000688F789E02DCD016A960FB6F894DEBF17
:1022F0000FBECDBFDF91CF911F910F91FF90EF9057
:10230000DF90CF90BF90AF909F908F907F906F9015
:102310005F904F903F902F9009941E96ED91FC9105
:10232000EF80F88409851A8592014D815E816B8169
:102330007C81898D9A8D099590CF2F8138852615BE
:10234000370509F48ACF31E0B31207C0A31205C0E4
:102350001C96ED91FC91930178CF1E96ED91FC9126
:102360007301E0CF6B857C85641975090684F78558
:10237000E02D73010F8518899201A401898D9A8D32
:102380000995A9CFF90134969491329745915491CA
:10239000D91AB7E0DB9E400D511D1124F90125919A
:1023A00034913C8B2B8BFA0125903490FA013296B4
:1023B000749031963491398B329664903196449072
:1023C00041E04C1518F04A1508F07FC0662D062C28
:1023D000000C770B7C836B83842D042C000C990BF1
:1023E0009E838D83A98DBA8DED91FC911197028406
:1023F000F385E02DCD010995512CD12CC12CEA2D6E
:10240000F0E0FA87E9872B2D30E03C872B87A40189
:10241000440D511D47FC5A95588F4F8B69817A8125
:10242000660D711D67FC7A957E876D877989C71661
:1024300008F051CF2C2D30E04D815E81420F531FAB
:10244000A985BA854A9FC0014B9F900D5A9F900D58
:102450001124FC01E80DF91DF88BEF87852D612C07
:102460004F89588D420F531F5E8B4D8B671408F0B8
:1024700050C044244394480E877041F4C101019632
:10248000EB89FC89E20DF31DD4901C01D7FE19C025
:10249000A98DBA8DED91FC91662D70E0B1E0BB1273
:1024A00019C0AB1217C02D853E85620F731F0484BF
:1024B000F585E02D2F8138854D895E89898D9A8D2E
:1024C0000995DD0C6394842DD1CF1E821D821C8260
:1024D0001B8288CF4B815C81640F751FAB85BC85E7
:1024E0006A9FC0016B9F900D7A9F900D11246981A6
:1024F0007A81680F791F0684F785E02DEF80F884D4
:1025000009851A859D014F855889898D9A8D099570
:10251000D8CF570CC3948ACF6A960FB6F894DEBF13
:102520000FBECDBFDF91CF911F910F91FF90EF9024
:10253000DF90CF90BF90AF909F908F907F906F90E3
:102540005F904F903F902F9008958F929F92AF92FF
:10255000CF92EF92FF920F931F93CF93DF93EC01F3
:10256000262F898D9A8D009709F051C06A30D1F4D9
:102570001D861C868D8948E0849F900111248E85DC
:102580009F85820F931F9F878E8781E090E0DF9168
:10259000CF911F910F91FF90EF90CF90AF909F90B0
:1025A0008F9008956D3089F3CC88AD888F8988230A
:1025B000C1F08C859D8536E0C39E800D911D112450
:1025C000488559854817590764F44E855F851D86EF
:1025D0001C8638E0A39EC0011124840F951F9F879D
:1025E0008E87EA88FB88088919894E855F856C8506
:1025F0007D85CE010E9480102C898C859D8546E0CA
:10260000249F800D911D11249D878C87BECF6A3039
:1026100069F41D861C86FC013896E4912D898E850F
:102620009F85E29F800D911D1124ADCF6D3009F47F
:10263000ACCFFC0134963491631708F4A6CF3296E0
:10264000E491E61708F4A1CFFC01329685909490AE
:10265000462F431B342F47E0349F800C911C1124DC
:10266000F401329634913196E4913323A9F1EE23AB
:1026700099F1CC88F4013596E491AD884F894423D3
:1026800001F10E2E000CFF0BE30FF11DCE9EA001F9
:10269000CF9E500D11246C857D85460F571F688590
:1026A0007985641775076CF44E855F851D861C86D9
:1026B000FC013896E491AE9E400D511D11245F87B8
:1026C0004E87EA88FB88088919894E855F856C8565
:1026D0007D85CE010E948010F4013496E4912C890E
:1026E0008C859D85E29F800D911D11248DCF6F9269
:1026F0007F928F929F92AF92BF92CF92DF92EF9292
:10270000FF920F931F93CF93DF93EC016B015A015C
:1027100039014801E881F9810284F385E02D0995AA
:10272000E881F9810288F389E02D87019301A501F1
:10273000B601CE010995A501480D591D4150510919
:10274000E881F9810288F389E02D9301B601CE0179
:102750000995E881F9810088F189E02D9401A501AE
:10276000B601CE010995C60CD71CB601615071099E
:10277000E881F9810088F189E02D9401A501CE015D
:102780000995E881F9810688F789E02DCE01DF916E
:10279000CF911F910F91FF90EF90DF90CF90BF905E
:1027A000AF909F908F907F906F9009946F927F92DF
:1027B0008F929F92AF92BF92CF92DF92EF92FF9251
:1027C0000F931F93CF93DF935C01EB016A014901E3
:1027D00038018701DC01ED91FC916217730719F54F
:1027E000641675062CF0962D872D3A01C92ED82E29
:1027F0009601261937092F5F3F4F048CF58DE02D88
:10280000A301BE01C5010995DF91CF911F910F91E1
:10281000FF90EF90DF90CF90BF90AF909F908F9000
:102820007F906F9008954615570591F42617370746
:1028300024F0892D4B01C22FD82F9E012819390968
:102840002F5F3F4F068CF78DE02DA601B401DACF44
:102850000284F385E02D0995D501ED91FC91048862
:10286000F589E02D83019401A601BE01C5010995FA
:10287000D501ED91FC910688F789E02DC501DF9126
:10288000CF911F910F91FF90EF90DF90CF90BF906D
:10289000AF909F908F907F906F900994EF92FF92EE
:1028A0000F931F93DC011A960D911C911B9718969C
:1028B0002D913C911997ED91FC9100A0F1A1E02D93
:1028C0007B0150E040E070E060E009951F910F91BE
:1028D000FF90EF9008954F925F926F927F928F9248
:1028E0009F92AF92BF92CF92DF92EF92FF920F939F
:1028F0001F93CF93DF936C012B015A0139014801DB
:10290000DC01ED91FC910284F385E02D0995E20153
:10291000640C751CD601ED91FC91C615D7055CF4CD
:102920000088F189E02D87019401A501BE01C6014F
:1029300009952196EFCF0688F789E02DC601DF9132
:10294000CF911F910F91FF90EF90DF90CF90BF90AC
:10295000AF909F908F907F906F905F904F90099471
:102960008F929F92AF92BF92CF92DF92EF92FF929F
:102970000F931F93CF93DF93EC015B014A01690131
:10298000E881F9810284F385E02D099595012C0DEC
:102990003D1D21503109E881F9810488F589E02D38
:1029A00078018401A401B501CE010995E881F9817E
:1029B0000688F789E02DCE01DF91CF911F910F910D
:1029C000FF90EF90DF90CF90BF90AF909F908F904F
:1029D00009948F929F92AF92BF92CF92DF92EF9223
:1029E000FF920F931F93CF93DF93EC015B014A019A
:1029F00069017801E881F9810284F385E02D099568
:102A0000C80CD91C860101501109E881F98104889C
:102A1000F589E02D9501A401B501CE010995E88164
:102A2000F9810688F789E02DCE01DF91CF911F91C2
:102A30000F91FF90EF90DF90CF90BF90AF909F905D
:102A40008F900994EF92FF920F931F93DC01ED9109
:102A5000FC9100A0F1A1E02D09951F910F91FF902D
:102A6000EF9008950F931F93DC01ED91FC91068C7C
:102A7000F78DE02D09951F910F9108950F931F93E6
:102A8000DC01ED91FC91048CF58DE02D09951F91F1
:102A90000F910895DC01ED91FC910084F185E02D0A
:102AA00009943F924F925F926F927F928F929F9282
:102AB000AF92BF92CF92DF92EF92FF920F931F934C
:102AC000CF93DF935C017B014A016901390187E003
:102AD000680E711C93E0759467949A95E1F72B0149
:102AE000400E511E10E000E0312CD0E0C0E0CE01DD
:102AF00087709927330C892B59F4FE0183E0F595F3
:102B0000E7958A95E1F7E00FF11FE80DF91D349084
:102B100037FE0AC021E030E0A701B5016C0F7D1F30
:102B200084E094E00E944A152196CC16DD06F9F661
:102B30008FEFE81AF80A060D171DE414F504A9F63C
:102B4000DF91CF911F910F91FF90EF90DF90CF9089
:102B5000BF90AF909F908F907F906F905F904F90BD
:102B60003F9008952F923F924F925F926F927F9283
:102B70008F929F92AF92BF92CF92DF92EF92FF928D
:102B80000F931F93CF93DF9300D000D000D0CDB729
:102B9000DEB73C016A013E832D83FC82EB82580143
:102BA000A41AB50AB7FE03C0B194A194B1088D80F0
:102BB0009E80861A970A97FE03C09194819491088B
:102BC0008A149B045CF0902F812F0D811E819D83C0
:102BD0008E839C2D8D2D6B01692F782F0C151D0573
:102BE0005CF09D818E817E836D83692F782F902F7D
:102BF000812F8601C92ED82E1601201A310A2B01E9
:102C00002D813E81421A530A57FE03C051944194CC
:102C10005108710137FE03C03FEFE31AF30AF59440
:102C2000E7948D819E81861797075CF5A1E0B0E05F
:102C3000BA83A983C016D1064CF1D301ED91FC9162
:102C40000484F585E02D2B813C81A8016D817E8176
:102C50008A149B041CF04D815E81B801C301099563
:102C6000E418F508F7FE0AC02D813E8189819A811A
:102C7000280F391F3E832D83E20CF31C0F5F1F4F7B
:102C8000D9CF2FEF3FEF3A832983D4CF26960FB6C3
:102C9000F894DEBF0FBECDBFDF91CF911F910F9192
:102CA000FF90EF90DF90CF90BF90AF909F908F906C
:102CB0007F906F905F904F903F902F900895089570
:102CC00090E080E00895CF93DF93EC010E94A50689
:102CD000688379838A839B83DF91CF9108958EE403
:102CE00080937C0062E370E080E090E00E947306D5
:102CF00080917A00806480937A0080917A0086FDCA
:102D0000FCCF209178003091790050E040E060E005
:102D100078EE86E190E00E946D2ECA01B9016B5FEA
:102D20007F4F8F4F9F4F2AE030E040E050E00E94FD
:102D30006D2EC90108950E946F16BC01990F880B72
:102D4000990B0E943A2DAB01BC0140937204509341
:102D50007304609374047093750480E694E00E9499
:102D60003B09809162048823A1F180E694E00E94EF
:102D70003E080E94DE2F9B01AC01285631404109DC
:102D80005109A4E6B0E00E948C2E28E230E040E039
:102D900050E00E946D2ECA01B9010E943A2DAB018C
:102DA000BC01409376045093770460937804709349
:102DB000790489E694E00E943B0980916B048823A2
:102DC00069F089E694E00E943E080E94E52F862F74
:102DD000089560E070E080EC9FE7CBCF60E070E0AA
:102DE00080EC9FE7F2CF80E694E00E945C0989E6E0
:102DF00094E00E945C090E946F16BC01990F880B39
:102E0000990B0E943A2DAB01BC0140937204509380
:102E10007304609374047093750480E694E00E94D8
:102E20003B0980916204882341F180E694E00E948E
:102E30003E080E94DE2F9B01AC012856314041091B
:102E40005109A4E6B0E00E948C2E28E230E040E078
:102E500050E00E946D2ECA01B9010E943A2DAB01CB
:102E6000BC01409376045093770460937804709388
:102E7000790489E694E00C943B0960E070E080EC12
:102E80009FE7D7CFFC019081222339F0941738F4C3
:102E90009F5F908308959150FCCF6917E0F30895E8
:102EA000E0918904E150E83008F069C0282FF0E093
:102EB000E45AF84E0C943C30641776177E1790173E
:102EC0009717AA17B117B81740919304609192040D
:102ED0008AE894E00E94421780918A04833021F0AE
:102EE00089E080939504089581E0FBCF409195049B
:102EF000609194048BE894E00C94421740919704FD
:102F0000609196048CE894E00E94421780918C04B2
:102F1000813021F089E080939904089582E0FBCF0D
:102F200040919904609198048DE894E0E5CF409138
:102F30009B0460919A048EE894E00E94421780916D
:102F40008E048230E1F410928F041092900410925B
:102F50009104089540919D0460919C048FE894E051
:102F6000CBCF40919F0460919E0480E994E0C4CF50
:102F70004091A1046091A00481E994E0BDCF08953F
:102F80001F93CF93DF93EC011C82611104C08A81EF
:102F90009B81892BF1F0162F0E94A506288139818B
:102FA000AB01421B530B9A01EA81FB81E930F10529
:102FB00008F041C0E252F84E0C943C30E717ED1790
:102FC000F5172418FD171B1805180D180D181111E9
:102FD0002FC0DF91CF911F910895112361F14233EA
:102FE0005105BCF322E030E01CC0112339F1203937
:102FF00031407CF328E030E014C0111122C02E359E
:1030000031403CF325E030E00CC01123E9F04233BD
:103010005105FCF227E030E004C029E030E0111156
:10302000D8CF798368833B832A8381E08C83D1CF97
:1030300021E030E0F6CF30E020E0F3CF23E030E0D5
:10304000F0CF26E030E0EDCF24E030E0EACF209171
:103050000A0430910B04C901079697FD079623E0F7
:10306000959587952A95E1F72091080430910904F8
:10307000829FA001839F500D929F500D112470E0FC
:1030800060E080912304909124040C9432320E94D9
:103090002432FB0101900020E9F73197AF01461B74
:1030A000570BDC01ED91FC910280F381E02D099436
:1030B0008F929F92AF92BF92EF92FF920F931F93C6
:1030C000CF93DF93CDB7DEB7A1970FB6F894DEBFED
:1030D0000FBECDBF7C01FA01CB0119A2223008F44A
:1030E0002AE08E010F5D1F4F822E912CB12CA12C56
:1030F000BF01A50194010E94CE2EF901CA016A30D8
:103100000CF5605DD8016E938D01232B242B252BAC
:1031100079F790E080E0109721F0BD01C7010E948F
:103120004918A1960FB6F894DEBF0FBECDBFDF9150
:10313000CF911F910F91FF90EF90BF90AF909F9014
:103140008F900895695CDECFAF92BF92CF92DF92ED
:10315000EF92FF920F931F93CF93DF93A0904404BD
:10316000B0904504A114B10409F45FC0D5011B96C9
:10317000CC9160E070E080EC9FE7CC2339F110E067
:1031800000E0C12CD12C7601D0E0D5011D96ED9147
:10319000FC91E00FF11F2081318142815381C701F1
:1031A000B6010E94002F6B017C01DF5F0C5F1F4F97
:1031B000CD13EBCF6C2F70E090E080E00E943A2DB1
:1031C0009B01AC01C701B6010E946C2F0E94E52F44
:1031D00081E0809318048093190484E690E0909332
:1031E0001104809310041092130410921204643698
:1031F00008F063E6462F50E070E060E02AE084E0EB
:1032000094E00E9458186CE771E084E094E00E941A
:103210004918DF91CF911F910F91FF90EF90DF90B0
:10322000CF90BF90AF900C94C90EDF91CF911F91BA
:103230000F91FF90EF90DF90CF90BF90AF900895E7
:103240000F931F93CF93DF938C01D0E0C0E0F80180
:10325000EC0FFD1F6491662341F08BE593E00E9423
:103260008307892B11F02196F2CF6EE771E08BE591
:1032700093E00E9449188C0F9D1FDF91CF911F9101
:103280000F910895FC0180819181009711F00C94B9
:10329000DE3008950F931F93CF93DF93EC01888165
:1032A0009981009759F02A813B812617370730F022
:1032B00081E0DF91CF911F910F9108958B016F5F96
:1032C0007F4F0E946731009759F0998388831B8351
:1032D0000A832C813D81232B59F7FC011082E8CF12
:1032E00080E0E7CFEF92FF920F931F93CF93DF938E
:1032F000EC017B01FB0101900020E9F731978F0180
:10330000061B170BB8010E944A19288139818111C7
:1033100013C02115310519F0C9010E94DE30198250
:1033200018821D821C821B821A82DF91CF911F910D
:103330000F91FF90EF9008951D830C83B701C90191
:10334000DF91CF911F910F91FF90EF900C94393244
:103350000F931F93CF93DF93CDB7DEB729970FB6A7
:10336000F894DEBF0FBECDBF8C01862FF80111820D
:10337000108213821282158214824AE0BE016F5FAE
:103380007F4F90E00E94092DBE016F5F7F4FC80103
:103390000E94721929960FB6F894DEBF0FBECDBFFA
:1033A000DF91CF911F910F9108950F931F93CF93AA
:1033B000DF93CDB7DEB762970FB6F894DEBF0FBECE
:1033C000CDBF8C01CB01F8011182108213821282D1
:1033D000158214824AE0BE016F5F7F4F0E94FE2C6F
:1033E000BE016F5F7F4FC8010E94721962960FB6CF
:1033F000F894DEBF0FBECDBFDF91CF911F910F912B
:103400000895EF92FF920F931F93CF93DF93EC01F8
:10341000198218821B821A821D821C826115710515
:10342000E1F08B01FB0101900020E9F731977F016A
:10343000E61AF70AB7010E944A19288139818111D9
:1034400013C02115310519F0C9010E94DE3019821F
:1034500018821D821C821B821A82DF91CF911F91DC
:103460000F91FF90EF900895FD82EC82B801C901A1
:10347000DF91CF911F910F91FF90EF900C94393213
:103480000F931F93CF93DF9300D000D000D0CDB720
:10349000DEB70E94271861E871E0CE0101960E9414
:1034A000011AE4E0F4E081E0848B858B15861486B4
:1034B00017861686CE0101960E940707CE01019657
:1034C0000E9442190E94C90E00E011E08AE995E0CD
:1034D000F80191838083E9E6F0E080818C7F80832E
:1034E000E89A30E020E050E040E06AE070E086E5F5
:1034F00093E00E94F007E8988BE995E0F80191834A
:1035000080838CE594E00E94631626960FB6F894AB
:10351000DEBF0FBECDBFDF91CF911F910F910895F8
:10352000CF93DF9300D000D000D0CDB7DEB70E949C
:10353000271860E871E0CE0101960E94011A80917F
:103540007C0490917D0463E971E08230910559F02B
:103550006CE971E08430910531F06DE871E001971C
:1035600011F060E871E0CE0101960E94721982E0CC
:10357000809318048093190410921104109210047F
:103580008CE090E09093130480931204CE01019696
:103590000E9407070E94A4180E94C90ECE0101963E
:1035A0000E94421926960FB6F894DEBF0FBECDBF1B
:1035B000DF91CF910895CF93DF9300D000D000D05A
:1035C000CDB7DEB70E94271864E072E0CE01019605
:1035D0000E94011A81E080931804809319041092CC
:1035E0001104109210041092130410921204CE01D0
:1035F00001960E940707CE0101960E944219809110
:1036000080046FEA71E0811108C08091820465EA4C
:1036100071E0882311F064EA71E0CE0101960E9406
:10362000011A82E080931804809319041092110407
:10363000109210048CE090E0909313048093120495
:10364000CE0101960E940707CE0101960E94421901
:103650000E94C90E26960FB6F894DEBF0FBECDBFEE
:10366000DF91CF910895CF92DF92EF92FF920F9367
:103670001F93CF93DF93CDB7DEB72E970FB6F89495
:10368000DEBF0FBECDBF0E9427186AEB71E0CE01EE
:1036900001960E94011A84E0E82E84E0F82E81E071
:1036A000F701848B858B1586148617861686CE01C6
:1036B00001960E940707CE0101960E94421988E0F8
:1036C000EAE0F1E0DE01119601900D928A95E1F7B2
:1036D000E0918904EC0FFD2FF11D608170E001E0A5
:1036E00010E029E030E04FE150E0C7010E94CC0A31
:1036F00060918A04CE0109960E94A81912E0F70190
:10370000148B158B158614869FE0C92ED12CD78675
:10371000C686CE0109960E940707CE0109960E942F
:10372000421960918B04CE0109960E94A819F701F5
:10373000148B158B8CE090E095878487D786C6869E
:10374000CE0109960E940707CE0109960E944219F0
:103750006BE871E0CE0109960E94011AF701148B03
:10376000158B84E190E095878487D786C686CE0145
:1037700009960E940707CE0109960E94421960919E
:103780008C04CE0109960E94A819F701148B158BA1
:103790008EE190E095878487D786C686CE0109960C
:1037A0000E940707CE0109960E94421960918D047C
:1037B000CE0109960E94A819F701148B158B8AE295
:1037C00090E095878487D786C686CE0109960E94A9
:1037D0000707CE0109960E9442196BE871E0CE01FD
:1037E00009960E94011AF701148B158B82E390E071
:1037F00095878487D786C686CE0109960E940707DB
:10380000CE0109960E94421960918E04CE0109965C
:103810000E94A819F701148B158B8CE390E0958713
:103820008487D786C686CE0109960E940707CE01F7
:1038300009960E94421960918F04CE0109960E9458
:10384000A819F701148B158B88E490E0958784877D
:10385000D786C686CE0109960E940707CE01099633
:103860000E94421960919004CE0109960E94A81905
:10387000F701148B158B84E590E095878487D786B4
:10388000C686CE0109960E940707CE0109960E94BE
:10389000421960919104CE0109960E94A819F7017E
:1038A000148B158B80E690E095878487D786C68633
:1038B000CE0109960E940707CE0109960E9442197F
:1038C0000E94C90E2E960FB6F894DEBF0FBECDBF74
:1038D000DF91CF911F910F91FF90EF90DF90CF90EC
:1038E0000895EF92FF920F931F93CF93DF9300D031
:1038F00000D000D0CDB7DEB70E94271869EC71E088
:10390000CE0101960E94011A81E0809318048093F1
:1039100019041092110410921004109213041092C2
:103920001204CE0101960E940707CE0101960E9463
:10393000421980918804813061F401E010E029E0AF
:1039400030E04FE150E070E060E084E094E00E94FD
:10395000CC0A60918504CE0101960E94A81912E05C
:10396000109318041093190410921104109210046B
:103970008FE0E82EF12CF0921304E0921204CE01B5
:1039800001960E940707CE0101960E94421980917C
:103990008804823040F160918604CE0101960E9435
:1039A000A81910931804109319048EE190E09093D5
:1039B000110480931004F0921304E0921204CE01DB
:1039C00001960E940707CE0101960E94421901E06C
:1039D00010E029E030E04FE150E06EE170E084E07B
:1039E00094E00E94CC0A80918804833058F1609161
:1039F0008704CE0101960E94A81982E080931804E2
:103A0000809319048CE390E0909311048093100448
:103A10008FE090E09093130480931204CE010196FE
:103A20000E940707CE0101960E94421901E010E0B2
:103A300029E030E04FE150E06CE370E084E094E096
:103A40000E94CC0A0E94A4180E94C90E26960FB6A6
:103A5000F894DEBF0FBECDBFDF91CF911F910F91C4
:103A6000FF90EF900895CF92DF92EF92FF920F9325
:103A70001F93CF93DF93CDB7DEB76A970FB6F89455
:103A8000DEBF0FBECDBFF82ED62E0E9427180F2DF9
:103A900010E08D2D90E001969F938F931F92FF92DF
:103AA00087ED91E09F938F93CE0101967C019F93C8
:103AB0008F930E944032B701CE0145960E94011AB1
:103AC00081E08093180480931904109211041092DD
:103AD00010041092130410921204CE0145960E9415
:103AE0000707CE0145960E944219780191E0E91A34
:103AF000F1080FB6F894DEBF0FBECDBFEE0CFF1C71
:103B0000EE0CFF1CD11053C0000F111F000F111F2E
:103B1000F801E255FB4F6081CE0145960E94A8193D
:103B200013E01093180410931904109211041092CA
:103B300010043CE0C32ED12CD0921304C092120486
:103B4000CE0145960E940707CE0145960E94421974
:103B5000F701E658FB4F61ADCE0145960E94A819CA
:103B6000109318041093190480E490E090931104CA
:103B700080931004D0921304C0921204CE01459693
:103B80000E940707CE0145960E9442190E94C90E65
:103B90006A960FB6F894DEBF0FBECDBFDF91CF910E
:103BA0001F910F91FF90EF90DF90CF9008958701C4
:103BB00006581B4FF80162ADCE0145960E94A81928
:103BC00083E0F82EF0921804F09219041092110478
:103BD000109210049CE0C92ED12CD0921304C092F4
:103BE0001204CE0145960E940707CE0145960E9419
:103BF0004219F80163ADCE0145960E94A819F092D2
:103C00001804F0921904B0CFCF93DF9300D000D006
:103C100000D0CDB7DEB70E9427186DEF71E0CE015E
:103C200001960E94011A81E0809318048093190480
:103C300010921104109210041092130410921204A6
:103C4000CE0101960E940707CE0101960E944219FB
:103C5000909181048091840491112CC06AEE71E0EE
:103C6000882311F068EE71E0CE0101960E94011ADE
:103C700082E080931804809319041092110410922A
:103C800010048CE090E09093130480931204CE0112
:103C900001960E940707CE0101960E9442190E94D8
:103CA000C90E26960FB6F894DEBF0FBECDBFDF91CA
:103CB000CF91089562EF71E08823B1F264EF71E073
:103CC000D3CF85ED8093BC008091D7029091D8022C
:103CD000A091D902B091DA020796A11DB11D23E08F
:103CE000B695A795979587952A95D1F72091BC0011
:103CF00024FD03C01092200308954091D7025091F3
:103D0000D8026091D9027091DA02452B462B472BDD
:103D100069F30097A105B10541F02AE22A95F1F770
:103D200000C00197A109B109E1CF8091D6020C949E
:103D30001A0C0C945F2E1F920F920FB60F92112443
:103D40002F933F938F939F93AF93BF9380914E0395
:103D500090914F03A0915003B091510330914D03C6
:103D600023E0230F2D3758F50196A11DB11D209397
:103D70004D0380934E0390934F03A0935003B09351
:103D800051038091520390915303A0915403B09139
:103D900055030196A11DB11D8093520390935303C7
:103DA000A0935403B0935503BF91AF919F918F910E
:103DB0003F912F910F900FBE0F901F90189526E8FE
:103DC000230F0296A11DB11DD2CF1F920F920FB6E5
:103DD0000F9211242F933F934F935F936F937F9391
:103DE0008F939F93AF93BF93EF93FF93E091020163
:103DF000F09103010995FF91EF91BF91AF919F91D0
:103E00008F917F916F915F914F913F912F910F9083
:103E10000FBE0F901F9018951F920F920FB60F9222
:103E200011242F933F934F935F936F937F938F93BF
:103E30009F93AF93BF93EF93FF93E0910001F091B5
:103E400001010995FF91EF91BF91AF919F918F91E2
:103E50007F916F915F914F913F912F910F900FBE86
:103E60000F901F9018951F920F920FB60F9211246A
:103E70002F933F934F935F936F937F938F939F9372
:103E8000AF93BF93EF93FF938BE593E00E9461079D
:103E9000FF91EF91BF91AF919F918F917F916F9122
:103EA0005F914F913F912F910F900FBE0F901F90F8
:103EB00018951F920F920FB60F9211242F938F9384
:103EC0009F93EF93FF93E0916B03F0916C038081DC
:103ED000E0917103F091720382FD1BC0908180918B
:103EE00074038F5F8F7320917503821741F0E09107
:103EF0007403F0E0E55AFC4F958F80937403FF91B3
:103F0000EF919F918F912F910F900FBE0F901F9067
:103F100018958081F4CF1F920F920FB60F92112443
:103F20008F930FB6F894A895809160008861809374
:103F30006000109260000FBE8F910F900FBE0F9027
:103F40001F9018951F920F920FB60F9211242F9366
:103F50003F934F935F936F937F938F939F93AF9311
:103F6000BF93EF93FF938091B900887F803609F467
:103F70004AC0F0F5883209F4A7C018F5803109F479
:103F80009BC0B8F4882309F4F9C0883009F494C0C0
:103F9000FF91EF91BF91AF919F918F917F916F9121
:103FA0005F914F913F912F910F900FBE0F901F90F7
:103FB0001895883109F488C0803251F780931F0327
:103FC00014C0803409F49DC040F48033B9F38833C1
:103FD000F9F680931F0385ECB0C0803509F485C0E5
:103FE000883509F496C0883499F60E94611ED0CFB6
:103FF000883909F48CC038F5883729F050F48836B0
:1040000011F0803729F683E08093200310921E037D
:1040100057C0883809F47BC0803919F0803809F01E
:10402000B7CF80911E03803208F071C0E0911E036B
:1040300081E08E0F80931E038091BB00F0E0E25080
:10404000FD4F80833DC0803B39F0E0F4803A09F4B5
:1040500079C0883A09F09CCF84E0809320031092C5
:10406000FD021092FC02E0914703F091480309958C
:104070008091FC0281110FC081E08093FC021092BC
:10408000DC0209C0803C09F4A6CF883C09F4A3CF28
:10409000883B09F07DCFE091FD0281E08E0F809397
:1040A000FD02F0E0E452FD4F80818093BB009091CF
:1040B000FD028091FC0229C0809145038093BB00E2
:1040C00085EC8093BC0064CF9091440380914303BE
:1040D000981758F5E091440381E08E0F80934403D4
:1040E000F0E0ED5DFC4F8081E9CFE091440381E099
:1040F0008E0F809344038091BB00F0E0ED5DFC4F98
:10410000808390914403809143039817C8F285E817
:10411000D8CFE091440381E08E0F809344038091D7
:10412000BB00F0E0ED5DFC4F8083809122038111A4
:104130005CCF81E08093210384EA8093BC001092DD
:10414000200326CF85EC8093BC0010922003809141
:104150001E03803230F4E0911E03F0E0E250FD4F88
:10416000108260911E0370E0E0914903F0914A03D0
:104170008EEF92E0099510921E030ACF10921F0352
:1041800034CFCF93DF93EC01188684E1898380E5F7
:1041900090E00E9442309D838C8384E190E00E94F5
:1041A00042309F838E83CE01DF91CF910C945C09C6
:1041B000CF9310925E0310925D0388EE93E0A0E02F
:1041C000B0E080935F0390936003A0936103B0938A
:1041D000620320E331E030935C0320935B0325EC22
:1041E00030E0309368032093670324EC30E0309391
:1041F0006A032093690320EC30E030936C03209332
:104200006B0321EC30E030936E0320936D0322ECBE
:1042100030E03093700320936F0326EC30E030934E
:10422000720320937103109274031092750310921D
:104230007603109277031092FB031092FA03809397
:10424000FC039093FD03A093FE03B093FF0382E46D
:1042500091E09093F9038093F80310920704109271
:10426000060420E830E0309309042093080480E23B
:1042700090E090930B0480930A0430930D042093F4
:104280000C0490930F0480930E0410921A04109261
:104290001104109210041092130410921204C1E041
:1042A000C0931904C09318048FEF9FEF90931704E5
:1042B000809316049093150480931404C0931B04F8
:1042C00010921C0410921E0410921D0484E591E0CB
:1042D00090930504809304041092200410921F040C
:1042E00088EF93E090932204809321041092240499
:1042F000109223048FEF80932804809329048093E5
:104300002A0480932B0480932C0480E89AE1A6E091
:10431000B0E08093390490933A04A0933B04B093A7
:104320003C0480EA96E8A1E0B0E080933D049093DD
:104330003E04A0933F04B093400480E58093420480
:104340001092430410924504109244040E94A50662
:1043500070934704609346041092490410924804F5
:1043600010924A048CE090E090934C0480934B04AC
:1043700010924E0410924D0462E00E941D060E94AD
:10438000A5067093500460934F041092520410924B
:1043900051041092530482E090E09093550480936E
:1043A0005404109257041092560462E00E941D06B5
:1043B00080EC97E2A9E0B0E0809358049093590410
:1043C000A0935A04B0935B040E94A50660935C041A
:1043D00070935D0480935E0490935F0480E694E0A4
:1043E0000E94C12089E694E00E94C12010927204CC
:1043F0001092730410927404109275041092760453
:1044000010927704109278041092790410927B0431
:1044100010927A0481E090E090937D0480937C0474
:1044200010927F0410927E041092800410928104F6
:104430001092820484E080938304C093840485E016
:10444000809385048093860480938704C0938804B6
:10445000C0938904C0938A0480938B0410928C04C7
:1044600080938D04C0938E0499E090938F04809381
:104470009004809391041092920483E080939304BB
:10448000109294049093950410929604C09397040C
:10449000109298049093990410929A0482E0809369
:1044A0009B0410929C0490939D0410929E04909300
:1044B0009F041092A0049093A10482E28093C2040E
:1044C00090E080E0DC01AE55BB4F30E020E0BC0165
:1044D0006453754FFB01E20FF31F459154914D93C7
:1044E0001F961C921F972F5F3F4F2430310591F785
:1044F00004968031910531F781E08093C3041092D6
:10450000C4041092C5041092C6041092C7041092FD
:10451000C8041092C9040E94A5066093CB0470934E
:10452000CC048093CD049093CE041092CF041092CB
:10453000D0041092D1041092D204CF910895CF9359
:10454000DF93CDB7DEB7AE970FB6F894DEBF0FBEE0
:10455000CDBF789484B5826084BD84B5816084BD0C
:1045600085B5826085BD85B5816085BD80916E0011
:10457000816080936E001092810080918100826042
:10458000809381008091810081608093810080917F
:1045900080008160809380008091B100846080936E
:1045A000B1008091B00081608093B00080917A006A
:1045B000846080937A0080917A00826080937A0090
:1045C00080917A00816080937A0080917A0080687F
:1045D00080937A001092C100E0916B03F0916C031C
:1045E00082E08083E0916703F09168031082E0919C
:1045F0006903F0916A038FEC808310927303E0915A
:104600006F03F091700386E08083E0916D03F09179
:104610006E03808180618083E0916D03F0916E0371
:10462000808188608083E0916D03F0916E038081CA
:1046300080688083E0916D03F0916E0380818F7DAF
:10464000808360ED77E080E090E00E947306109236
:104650004C0310924B0310925803109257030E9480
:10466000FC0B88ED96E0909348038093470389ED17
:1046700096E090934A038093490390E080E00E9483
:10468000572E813009F04DC08AE090E00E94572EED
:104690008093830484E190E00E94572E91E0811181
:1046A00001C090E0909384048EE190E00E94572E28
:1046B00091E0811101C090E09093820468EE73E074
:1046C00080E090E00E94730680912304909124047E
:1046D000892B09F03EC020910A0430910B04C901D6
:1046E000079697FD0796B3E095958795BA95E1F7FC
:1046F0002091080430910904AC01429FC001439FFE
:10470000900D529F900D11240E94423090932404EA
:1047100080932304892BE9F48AE29AE00E9420190D
:10472000FFCF61E090E080E00E94991E60918304D9
:104730008AE090E00E94991E6091840484E190E0F8
:104740000E94991E609182048EE190E00E94991E61
:10475000B5CF0E94271820910A0430910B04809154
:10476000080490910904B901213231050CF4BBC34E
:104770006054710977FF02C06F5F7F4F7595679531
:104780008255910997FD019600E410E022E530E0A2
:104790004AE657E0959587950E94511582E08093EF
:1047A00026048091210490912204892B09F4AEC340
:1047B0008CE38093250410924C0310924B031092CB
:1047C0005803109257030E94FC0B88ED96E09093DB
:1047D00048038093470389ED96E090934A038093C2
:1047E000490380912C0487FD1EC061E00E941D06D4
:1047F00061E080912C040E94EF0561E070E080E0B0
:1048000090E00E94730660E080912C040E94EF0506
:104810006AE070E080E090E00E94730661E08091C1
:104820002C040E94EF058091210490912204892B91
:1048300009F42BC46091390470913A0480913B04CF
:1048400090913C040E94E90B64E086E895E00E94A8
:10485000AF0D60910A04615084E094E00E94640E00
:1048600064E082E895E00E94AF0D8091260460E14B
:10487000813009F064E184E094E00E94640E64E019
:104880008EE795E00E94AF0D8FE880934104809100
:104890000804909109048038910509F00FC48091B3
:1048A0000A0490910B048034910509F017C480919B
:1048B0002604813009F000C48FE98093410412E19D
:1048C0006AED84E094E00E94640E612F84E094E03D
:1048D0000E94640E61E884E094E00E94640E60919E
:1048E000410484E094E00E94640E69ED84E094E069
:1048F0000E94640E8091260462E2813009F061EF2B
:1049000084E094E00E94640E66E088E795E00E94EF
:10491000AF0D8091210490912204892B09F4E2C308
:1049200060913D0470913E0480913F049091400459
:104930000E94E90B68EE73E080E090E00E9473064D
:104940000E94271881E090E090931704809316044A
:10495000909315048093140462E084E094E00E9434
:104960006B108091820460E0811101C062E084E0FC
:1049700094E00E946B108CE594E00E9463160E9404
:104980009B1680E694E09093450480934404109233
:104990007F0410927E040E94901A8E010F5F1F4FB9
:1049A000ECE3EE2EE2E0FE2EFCE06F2E712CA4E193
:1049B000AA2EB12C5524539472E0272E312C8091CD
:1049C0004B040E94C60561E020914D0430914E04D5
:1049D0002817390709F060E086E494E00E94C017C8
:1049E000809154040E94C60561E0209156043091E4
:1049F00057042817390709F060E08FE494E00E941B
:104A0000C0170E94A5062091CF043091D004409198
:104A1000D1045091D204621773078407950708F4F4
:104A20004FC280914A048823D1F08091480490912C
:104A300049040597A1F48CE594E00E9463168091E7
:104A40007E0490917F048230910509F40CC408F033
:104A500053C3009709F468C3019709F4D6C3809142
:104A60004A04882381F08091480490914904079773
:104A700051F48CE594E00E94631610927F0410922A
:104A80007E040E94901A80914A048823D1F080917C
:104A90004804909149040897A1F48CE594E00E94A1
:104AA000631680917E0490917F048230910509F411
:104AB00088C408F00EC4009709F422C4019709F4D1
:104AC0007CC4809153048823D1F08091510490914B
:104AD00052040597A1F48CE594E00E94631680913E
:104AE0007E0490917F048230910509F4C0C408F0DF
:104AF00086C4009709F49AC4019709F4CEC4809142
:104B00005304882309F474C1809151049091520494
:104B1000079709F056C18CE594E00E9463168091D6
:104B20007E0490917F04019709F047C1809184042D
:104B300081117CC020918A049AE080918B04299F86
:104B4000800D112420918C04A0918D04299FA00D2B
:104B5000112430918E0420918F04399F200D11244F
:104B600030919004E0919104399FE00D1124F0E020
:104B700054E6259FE00DF11D1124A33008F4319770
:104B8000B0E0A15EBE4F2C91280F3327331F2E0FAC
:104B90003F1FBF017695679576956795260F371F5E
:104BA000CF0160E971E00E941430260F371FCF015A
:104BB00064E670E00E941430C901861B970B67E021
:104BC00070E00E9414306C018EE0E2E1F1E0D80167
:104BD00001900D928A95E1F70E942718CC0CDD1CFC
:104BE000F801EC0DFD1D60817181CE0189960E9456
:104BF000011A82E080931804809319041092110422
:104C0000109210047092130460921204CE018996DF
:104C10000E940707CE0189960E9442190E94C90E80
:104C200068EB7BE080E090E00E9473068091830453
:104C3000843009F082C080918404882309F473C40D
:104C40008091850490918804923009F057C4C090F7
:104C50008604D12C9AE0899FC00CD11C1124A60196
:104C600070E060E02AE08BE593E00E9458186EE760
:104C700071E08BE593E00E9449183091C2042091C5
:104C80008304C601831B9109622F70E00E942830C3
:104C9000C31AC60E269FC01811248091A204860F45
:104CA0008093B2048091A304860F8093B304809113
:104CB000A404860F8093B4048091A5048C0D809386
:104CC000B5048091A604860F8093B6048091A70452
:104CD0008C0D8093B7048091A804860F8093B8044C
:104CE0008091A904860F8093B9048091AA048C0D49
:104CF0008093BA048091AB04860F8093BB048091AB
:104D0000AC04860F8093BC048091AD04860F809321
:104D1000BD048091AE04860F8093BE048091AF04E1
:104D2000860F8093BF048091B004C80EC092C00467
:104D30008091B104680F6093C10486E59AE00E94F7
:104D4000201934E0832E34E0932E44E0442ED12CFD
:104D5000C12CF601E255FF4FE80DF91D408150E0EE
:104D600070E060E02AE08BE593E00E94581869E06B
:104D70008BE593E00E9483074FEFC41AD40A54E0F6
:104D8000C516D10431F76EE771E08BE593E00E9420
:104D900049184A9484E0880E911C4110D8CF8FE3C3
:104DA0009AE00E94201960E081E00E94331D25E016
:104DB00030E030937F0420937E0480915304882355
:104DC000B9F08091510490915204089789F48CE5D0
:104DD00094E00E94631680917E0490917F0481305C
:104DE000910509F41AC408F4F0C3059709F432C414
:104DF0000E94A5062091CB043091CC044091CD04B3
:104E00005091CE04621B730B840B950B60367A4E67
:104E10008105910560F00E94A5066093CB04709314
:104E2000CC048093CD049093CE040E949B16809175
:104E3000820460E0811101C062E084E094E00E949D
:104E40006B100E94A50620915C0430915D04409196
:104E50005E0450915F04621B730B840B950B2091D1
:104E600058043091590440915A0450915B0426171C
:104E700037074807590720F58EEA0E94E40F0E9481
:104E8000401A0E94B1068823D9F08CE594E00E9474
:104E900063168FEA0E94E40F10927F0410927E0442
:104EA0000E94901A0E94A50668517C4F8F4F9F4F19
:104EB0006093CF047093D0048093D1049093D20474
:104EC00062E370E080E090E00E94730680E090E092
:104ED000892B09F474CD0E944D07882309F46ACD0B
:104EE0000E94000067CD6052710977FF02C06F5FBA
:104EF0007F4F759567958357910997FD019600E25D
:104F000010E023E730E04AE855E044CC61E08091CE
:104F10002A040E941D0661E080912B040E941D0658
:104F200080912A04082E000C990BFC01E557F54FDF
:104F3000E491F0E0EE0FFF1FE958F54F2591349111
:104F40003093320420933104FC01E156F54FE49193
:104F5000E093370480912B04082E000C990BFC0180
:104F6000E557F54FE491F0E0EE0FFF1FE958F54FDC
:104F7000A591B491B0933404A0933304FC01E1569D
:104F8000F54FE491E09338048C91E82BEC938091F9
:104F90001F0490912004892B09F434C01FB7F894A2
:104FA00080914603811127C0E5E9FAE08491E9EA9E
:104FB000FAE09491E82FF0E0EE0FFF1FE359F54F70
:104FC000A591B491EC91E92321F461E08AE00E947B
:104FD000EF0561E08AE00E941D068CB580618CBD02
:104FE0008CB580648CBD61E08DE00E941D0661E09F
:104FF0008BE00E941D06809146038F5F80934603DD
:105000001FBFEFCB61E0809128040E941D0661E084
:10501000809129040E941D0680912804082E000C0E
:10502000990BFC01E557F54FE491F0E0EE0FFF1FFF
:10503000E958F54F2591349130932E0420932D0497
:10504000FC01E156F54FE491E09335048091290489
:10505000082E000C990BFC01E557F54FE491F0E0A8
:10506000EE0FFF1FE958F54FA591B491B0933004AE
:10507000A0932F04FC01E156F54FE491E093360430
:105080008C91E095E823EC93ACCB80911F04909138
:105090002004892B31F080914204909143040E94B6
:1050A000C60EE0913304F09134049081809138046D
:1050B000809589238083C8CB8FECFFCB8036910508
:1050C00069F480910A0490910B04409739F480911F
:1050D0002604813029F480E18093410412E0F0CB72
:1050E0008FEAFACFE0913304F091340480819091FB
:1050F0003804892B80831ECC8430910509F4E2C0EA
:1051000008F4D4C0059709F0AACC8091C90490E0B6
:105110000796877099278093C904682F61708695D8
:105120008F5F0E94331D9BCC80917C0490917D0405
:105130008230910599F084309105B9F08130910564
:1051400009F08DCC90937F0480937E048091840439
:10515000882309F485C00E94711C81CC90937F0440
:1051600080937E040E94DB1A7ACC90937F04809314
:105170007E040E9427186DE072E0C8010E94011AA7
:1051800050921804509219041092110410921004B5
:105190001092130410921204C8010E940707C8015C
:1051A0000E94421969E172E0C8010E94011A5092FE
:1051B00018045092190410921104109210048AE0FD
:1051C00090E09093130480931204C8010E94070793
:1051D000C8010E94421967E272E0C8010E94011AE8
:1051E0005092180450921904109211041092100455
:1051F000B0921304A0921204C8010E940707C801CC
:105200000E9442190E94C90E2ACC809184048823EE
:1052100021F180918904813049F4809185048823AB
:1052200009F499CF81508093850495CF823049F459
:1052300080918604882309F48ECF81508093860460
:105240008ACF833009F087CF80918704882309F4BF
:1052500082CF8150809387047ECF80E00E945017D8
:105260000E94331BFCCB80918004811116C0609199
:1052700082046525609382048EE190E00E94991E6D
:105280008091820460E0811101C062E084E094E0DA
:105290000E946B100E94DB1A65CF83E090E0909330
:1052A0007F0480937E040E94041ED9CB61E080912C
:1052B0008104811160E06093840484E190E00E94A5
:1052C000991EF1CF10927F0410927E040E94901AD2
:1052D000C6CB8430910509F474C008F489C00597E1
:1052E00009F0EFCB81E090E090937F0480937E04FF
:1052F00080918404882309F478C00E94711CE1CB5A
:1053000085E080938504809386048093870450927F
:1053100088045092890450928A0480938B041092DE
:105320008C0480938D0450928E0499E090938F04A6
:105330008093900480939104E2EBF4E082EC94E09B
:10534000108211821282138234968E179F07C1F742
:105350005092C3041092C4041092C5041092C60463
:105360001092C7041092C8041092C9040E94F31648
:105370000E94271866E372E0C8010E94011A82E0C9
:105380008093180480931904109211041092100451
:105390007092130460921204C8010E940707C801AA
:1053A0000E9442190E94C90E68EE73E080E090E00E
:1053B0000E9473060E94901A84CB809189048130E8
:1053C00029F410927F0410927E04F4CF81509091C2
:1053D0008404992341F0909188049150909388041B
:1053E000809389048ACF809389040E94331B69CB00
:1053F00030927F0420927E040E94DB1A62CB8430BC
:10540000910509F476C0F0F1059709F078CB809109
:10541000C90490E00196877099278093C904682F8A
:10542000617086958F5F0E94331D69CB80917C04EB
:1054300090917D048130910539F430927D04209261
:105440007C040E94901A5BCB8230910539F424E0F1
:1054500030E030937D0420937C04F3CF049789F7E8
:1054600041E050E050937D0440937C04EACF80916A
:10547000800490E0019681709927809380040E94B7
:10548000DB1A3DCB8091810490E0019681709927D1
:10549000809381040E94041E32CB8091840488236F
:1054A00011F180918904813051F480918504893013
:1054B00018F48F5F809385040E94711C20CB82308A
:1054C00041F4809186048930B8F78F5F8093860419
:1054D000F3CF833089F780918704893068F78F5F35
:1054E00080938704E9CF81E00E9450170E94331B0C
:1054F00006CB10927F0410927E04A3CFC82ED12C2D
:10550000933009F0ACCB9091860424E6829F600131
:1055100011243AE0939FC00CD11C11248091870480
:10552000C80ED11C9CCB80918A044AE090918B04D8
:10553000849F900D112420918C0480918D04249FD0
:10554000800D112420918E0430918F04249F300D02
:1055500011245091900420919104549F200D112406
:105560009093B2048093B3043093B4042093B504B1
:1055700041E0420F4093B6044FEF430F4093B7040E
:105580004DEF480F4093B80443E0490F4093B904EE
:105590004EEF480F4093BA0442E0490F4093BB04DA
:1055A00042E0420F4093BC044EEF430F4093BD04D2
:1055B0003F5F3093BE0421502093BF049F5F9093C0
:1055C000C00481508093C104B8CB8EEA0E94E40FDE
:1055D0000E94401A0E94B106882309F409CC8CE588
:1055E00094E00E9463168FEA0E94E40F0E94F31673
:1055F00010927F0410927E040E94901A0E94A506C9
:1056000068517C4F8F4F9F4F6093CF047093D004AD
:105610008093D1049093D204EBCB809184048823AF
:1056200079F080918804833040F48F5F8093880400
:10563000809189048F5F809389040E94711CD8CB6C
:1056400080918904883019F08F5F809389040E94CB
:10565000331BCECB8091C604833008F11092C60470
:105660008091C304882361F08091C4048F5F80938C
:10567000C4048430A0F01092C3041092C5040FC07B
:105680008091C704811184C08091C5048F5F80938D
:10569000C504843020F05092C7041092C8040E94C0
:1056A00027188091C704811117C19091C604809179
:1056B000C304882309F4ACC0E091C404F0E0E658C8
:1056C000FB4F80AD34ADDF01A05CBF4F2C9191301A
:1056D00009F481C008F46BC0923009F488C065E415
:1056E00072E0CE0189960E94011A509218045092DD
:1056F00019041092110410921004109213041092C5
:105700001204CE0189960E940707CE0189960E9455
:1057100042196091C40470E06F5F7F4FCE0189969B
:105720000E94D5195092180450921904B092110495
:10573000A09210041092130410921204CE018996C4
:105740000E940707CE0189960E944219B801CE0136
:1057500089960E94011A82E08093180480931904AC
:1057600010921104109210047092130460921204AB
:10577000CE0189960E940707CE0189960E944219A0
:105780000E94C90E8091C6048F5F8093C60430CBFF
:105790008091C8048F5F8093C804823008F47FCF63
:1057A0001092C7045092C3041092C40466CF982F7D
:1057B000930F1F929F931F923F931F928F93FF927D
:1057C000EF921F930F930E9440320FB6F894DEBF02
:1057D0000FBECDBF84CF982F930F920F1F929F9330
:1057E0001F922F93830F9927991F9F93E7CFEC5B0D
:1057F000FF4F4081982F930F920F940F1F929F930A
:105800001F924F93830F9927991F820F911DEDCF00
:10581000E091C504F0E0DF01AA0FBB1FAA0FBB1F78
:10582000AE54BB4F8C91EE0FFF1FEE0FFF1FE658DB
:10583000FB4F31AD22AD9130A1F1F8F09230E9F19A
:105840006AE472E0CE0189960E94011A509218040F
:105850005092190410921104109210041092130423
:1058600010921204CE0189960E940707CE018996F4
:105870000E9442196091C5044ECF982F930F1F923A
:105880009F931F923F931F928F93FF92EF921F93CC
:105890000F930E9440320FB6F894DEBF0FBECDBF0B
:1058A000CFCF982F930F920F1F929F931F922F93FA
:1058B000830F9927991F9F93E7CF43AD982F930F9D
:1058C000920F940F1F929F931F924F93830F9927CC
:1058D000991F820F911DEFCF8091C804811139C0AB
:1058E000D090B2049090B704C090BC048090C104E2
:1058F0006FE472E0C8010E94011A5092180450929D
:1059000019041092110410921004109213041092B2
:105910001204C8010E940707C8010E944219809121
:10592000C6048130A9F100F1823009F00FCF8D2D2E
:10593000890D8C0D880D1F928F931F928F922D2DA4
:10594000290D3327331FC20ED32ED11CDF92CF92E5
:1059500013C0D090B5049090B804C090BB04809060
:10596000BE0466E572E0C6CF8D2D890D1F928F9320
:105970001F929F921F92DF92FF92EF921F930F93BD
:105980000E9440320FB6F894DEBF0FBECDBFDECE10
:105990008D2D890D8C0D1F928F931F92CF922D2DDF
:1059A000290D3327331FC9019F932F93E5CF809192
:1059B0006D0490916E040E94DE3080916F0490918E
:1059C00070040E94DE3080916404909165040E940E
:1059D000DE3080916604909167040E94DE3084E599
:1059E00091E09093050480930404809123049091A6
:1059F0002404009711F00C94DE300895BB274A3040
:105A000031F4992322F4BDE2909581959F4F0C9437
:105A10000A2DBB27FB015527AA27880F991FAA1F0C
:105A2000A41710F0A41B83955051B9F7A05DAA33B9
:105A300008F0A95DA193009779F7B111B193119284
:105A4000CB010C94232DDC01FC01672F719177238E
:105A5000E1F7329704C07C916D9370836291AE1729
:105A6000BF07C8F308950E94752D08F481E00895DA
:105A7000E89409C097FB3EF49095809570956195E8
:105A80007F4F8F4F9F4F9923A9F0F92F96E9BB279E
:105A90009395F695879577956795B795F111F8CF1A
:105AA000FAF4BB0F11F460FF1BC06F5F7F4F8F4F85
:105AB0009F4F16C0882311F096E911C0772321F07B
:105AC0009EE8872F762F05C0662371F096E8862F13
:105AD00070E060E02AF09A95660F771F881FDAF76A
