:100000000C9459050C949D1E0C94761E0C9481053D
:100010000C9481050C9481050C941C1F0C94810593
:100020000C9481050C9481050C9481050C94810538
:100030000C9481050C9481050C9481050C94810528
:100040000C942C1E0C9481050C94EA1E0C94C41E76
:100050000C9481050C9481050C9481050C94810508
:100060000C94331F0C94810500000000003E5B4F90
:100070005B3E3E6B4F6B3E1C3E7C3E1C183C7E3C08
:10008000181C577D571C1C5E7F5E1C00183C180016
:10009000FFE7C3E7FF0018241800FFE7DBE7FF30A6
:1000A000483A060E2629792926407F050507407F14
:1000B00005253F5A3CE73C5A7F3E1C1C08081C1C87
:1000C0003E7F14227F22145F5F005F5F06097F017D
:1000D0007F006689956A606060606094A2FFA29468
:1000E00008047E040810207E201008082A1C080836
:1000F0001C2A08081E101010100C1E0C1E0C303884
:100100003E3830060E3E0E06000000000000005F84
:1001100000000007000700147F147F14242A7F2AA0
:100120001223130864623649562050000807030062
:10013000001C2241000041221C002A1C7F1C2A08AE
:10014000083E080800807030000808080808000011
:1001500060600020100804023E5149453E00427F85
:10016000400072494949462141494D331814127FD4
:100170001027454545393C4A494931412111090774
:100180003649494936464949291E000014000000F5
:1001900040340000000814224114141414140041C7
:1001A00022140802015909063E415D594E7C121184
:1001B000127C7F494949363E414141227F414141BC
:1001C0003E7F494949417F090909013E4141517337
:1001D0007F0808087F00417F41002040413F017FA8
:1001E000081422417F404040407F021C027F7F0470
:1001F00008107F3E4141413E7F090909063E4151B9
:10020000215E7F09192946264949493203017F01A8
:10021000033F4040403F1F2040201F3F4038403FA9
:10022000631408146303047804036159494D4300BF
:100230007F4141410204081020004141417F0402F6
:10024000010204404040404000030708002054548D
:1002500078407F284444383844444428384444286B
:100260007F385454541800087E090218A4A49C78BE
:100270007F0804047800447D40002040403D007F1A
:100280001028440000417F40007C047804787C08FA
:100290000404783844444438FC18242418182424CE
:1002A00018FC7C08040408485454542404043F44B3
:1002B000243C4040207C1C2040201C3C4030403CE2
:1002C00044281028444C9090907C4464544C440042
:1002D00008364100000077000000413608000201A6
:1002E0000204023C2623263C1EA1A161123A404092
:1002F000207A38545455592155557941225454780F
:1003000042215554784020545579400C1E527212A7
:100310003955555559395454545939555454580030
:1003200000457C410002457D420001457C407D1234
:1003300011127DF0282528F07C5455450020545496
:100340007C547C0A097F4932494949323A44444441
:100350003A324A4848303A4141217A3A424020787C
:10036000009DA0A07D3D4242423D3D4040403D3C7D
:1003700024FF2424487E4943662B2FFC2F2BFF09A2
:1003800029F620C0887E0903205454794100004496
:100390007D413048484A32384040227A007A0A0A81
:1003A000727D0D19317D2629292F282629292926F4
:1003B00030484D4020380808080808080808382F39
:1003C00010C8ACBA2F102834FA00007B00000814C3
:1003D0002A142222142A14085500550055AA55AA99
:1003E00055AAFF55FF55FF000000FF00101010FF39
:1003F00000141414FF001010FF00FF1010F010F094
:10040000141414FC001414F700FF0000FF00FF1484
:1004100014F404FC141417101F10101F101F1414D0
:10042000141F00101010F0000000001F101010101A
:100430001F10101010F010000000FF10101010100E
:1004400010101010FF10000000FF140000FF00FF4C
:1004500000001F10170000FC04F4141417101714E8
:1004600014F404F40000FF00F7141414141414140A
:10047000F700F7141414171410101F101F1414147D
:10048000F4141010F010F000001F101F0000001FE7
:1004900014000000FC140000F010F01010FF10FF1A
:1004A000141414FF141010101F00000000F010FFAF
:1004B000FFFFFFFFF0F0F0F0F0FFFFFF0000000093
:1004C00000FFFF0F0F0F0F0F3844443844FC4A4A17
:1004D0004A347E02020606027E027E0263554941CC
:1004E000633844443C04407E201E2006027E020203
:1004F00099A5E7A5991C2A492A1C4C7201724C3017
:100500004A4D4D303048784830BC625A463D3E49ED
:100510004949007E0101017E2A2A2A2A2A44445F91
:10052000444440514A444040444A51400000FF0185
:1005300003E080FF000008086B6B08361236243693
:10054000060F090F060000181800000010100030F8
:1005500040FF0101001F01011E00191D1712003C80
:100560003C3C3C0000000000000103070F1F3F7FE0
:100570000080C0E0F0F8FCFEDB40A4A62EAF200017
:10058000A1C8D300408DAED580A800006000000057
:100590000000000000000000000000E0000000007B
:1005A00000000000000000000001E000000000006A
:1005B000000000000000000001F00000000000004A
:1005C0000000000000000003F00000000000000038
:1005D00000000000000007F0000000000000000024
:1005E000000000000007F80000000000000000000C
:1005F000000000000FF800000003C0007E000001B2
:10060000E0007F0FF800000003C000FE000001E0E2
:1006100000FFEFF800000003C000FE000001E00052
:10062000FFFFF800000003C000F00000000F007F93
:10063000FE7FC0000003C000F00000000F003FFE7E
:100640007FF83FF1FBCFFCFEF3BC3DEFE01FFE7FE8
:10065000FF7FFBFFDFFEFEFFBC3DEFE01FC6FFFF9D
:100660007FFBFFDFFEFEFFBC3DEFE00FE3C7FE7840
:100670007BC3DE1EF0FFBC3DEF0007FF87FC787BED
:10068000C3DE1EF0F83C3DEF0001FFFFF0007BC32E
:10069000C01EF0F03C3DEF0001F37FE03FFBC3CF15
:1006A000FEF0F03C3DEF0003E33F807FFBC3DFFE45
:1006B000F0F03C3DEF0007E73C00787BC3DE1EF026
:1006C000F03C3DEF0007FFBE00787BC3DE1EF0F07C
:1006D0003C3DEF0007FFFE00787BC3DE1EF0F03CE0
:1006E0003DEF000FFFFE007FFBFFDFFEF0F03FFD60
:1006F000EFE00FFFFF007FFBFFDFFEF0F03FFDEFBD
:10070000E00FF9FF003E79F9CF9EF0F01F3DE7E0E2
:100710001FF1FF0000000000000000000000001FAB
:1007200080FF007FFFFFFFFFFFFFFFFFFFE01C00D8
:100730007F007FFFFFFFFEB46D888D18E000001F73
:10074000007FFFFFFFFE95AD7DB577E000000F0055
:100750007FFFFFFFFEA5AD9D8D19E0000006007F25
:10076000FFFFFFFEB5ADEDB57EE00000000000012B
:100770008000000000000000000003800000000076
:10078000000000000007C0000000000000000000A2
:1007900007C00000000000000000000FC0000000C3
:1007A0000000000000001FE000000000000000004A
:1007B000001FE00000000000000000003FE000001B
:1007C000000000000000003FF000000000000000FA
:1007D00000007FF0000000000000001FF87FF00024
:1007E0000000000000003FFE7FF00000000000005D
:1007F000003FFF7FF0000000000000001FFFFBE053
:10080000000000000000000FFFF9FFC00000000022
:1008100000000FFFF9FFF800000000000007FFF1E3
:10082000FFFF00000000000003FC73FFFF800000DA
:1008300000000001FE3FFFFF80000000000000FFFD
:100840001E0FFF000000000000007FFE1FFC0000E4
:1008500000000000003FFFFFF80000000000000063
:100860000FDFFFE0000000000000001F19FFC000C4
:100870000000000000003F3CFF00000000000000FE
:10088000007E7CF800000000000000007FFE7C007D
:1008900000000000000000FFFFFC0000000000005E
:1008A0000000FFFFFE0000000000000000FFFFFE50
:1008B0000000000000000001FFEFFE00000000004B
:1008C000000001FFCFFE0000000000000003FF0752
:1008D000FE0000000000000003FC07FE0000000016
:1008E00000000003F003FE00000000000000018093
:1008F00000FE000000000000000000007E0000007C
:10090000000000000000003E0000000000000000A9
:1009100000000C000000000000078000FC00000345
:10092000C0000000078001FC000003C000000007B9
:100930008001FC000003C0000000078001E000000F
:10094000001E000000078001E00000001E007FE3A1
:10095000F79FF9FDE7787BDFC0FFF7FFBFFDFDFFE5
:10096000787BDFC0FFF7FFBFFDFDFF787BDFC0F0C6
:10097000F787BC3DE1FF787BDE00F0F787BC3DE107
:10098000F0787BDE0000F787803DE1E0787BDE00D9
:100990007FF7879FFDE1E0787BDE00FFF787BFFDF3
:1009A000E1E0787BDE00F0F787BC3DE1E0787BDEBC
:1009B00000F0F787BC3DE1E0787BDE00F0F787BC14
:1009C0003DE1E0787BDE00FFF7FFBFFDE1E07FFB6C
:1009D000DFC0FFF7FFBFFDE1E07FFBDFC07CF3F38B
:1009E0009F3DE1E03E7BCFC0000000000000000022
:1009F000000000FFFFFFFFFFFFFFFFFFFFC0FFFF43
:100A0000FFFFFD68DB111A31C0FFFFFFFFFD2B5A0E
:100A1000FB6AEFC0FFFFFFFFFD4B5B3B1A33C0FFDC
:100A2000FFFFFFFD6B5BDB6AFDC053534431333086
:100A30003620626567696E206661696C65640000D6
:100A4000000000240027002A0000000000250028E4
:100A5000002B0000000000230026002900040404ED
:100A60000404040404020202020202030303030357
:100A70000301020408102040800102040810200134
:100A80000204081020000000080002010000030416
:100A90000700000000000000002200FF21000906FE
:100AA0000310040F0A050E01080B070C0D02752038
:100AB000112D11241FBECFEFD8E0DEBFCDBF12E055
:100AC000A0E0B1E0E6E2FAE602C005900D92A23A9B
:100AD000B107D9F724E0A2EAB2E001C01D92AA3D15
:100AE000B207E1F715E0C8E5D5E004C02197FE01A3
:100AF0000E946130C735D107C9F70E9428220C94A3
:100B000006350C9400000895089580917404843093
:100B100009F0CEC080917504882309F478C08091D3
:100B2000760490917904923009F060C09091770436
:100B30002AE0829F900D1124892F9091B304891B84
:100B4000982F969596958370890F20919304290F7D
:100B50002093A30420919404290F2093A4042091AE
:100B60009504290F2093A50420919604280F209323
:100B7000A60420919704290F2093A704209198049C
:100B8000280F2093A80420919904290F2093A904E9
:100B900020919A04290F2093AA0420919B04280FE6
:100BA0002093AB0420919C04290F2093AC04209146
:100BB0009D04290F2093AD0420919E04290F2093BA
:100BC000AE0420919F04290F2093AF042091A0042C
:100BD000290F2093B0042091A104820F8093B104C7
:100BE0008091A204980F9093B2040895933009F075
:100BF000A4CF9091770424E6829F802D11242AE0CF
:100C0000929F800D112490917804890F96CF809146
:100C10007A044AE090917B04849F900D11242091E6
:100C20007C0480917D04249F800D112420917E04FA
:100C300030917F04249F300D112450918004209125
:100C40008104549F200D11249093A3048093A40445
:100C50003093A5042093A60441E0420F4093A704DB
:100C60004FEF430F4093A8044DEF480F4093A90462
:100C700043E0490F4093AA044EEF480F4093AB0462
:100C800042E0490F4093AC0442E0420F4093AD0470
:100C90004EEF430F4093AE043F5F3093AF042150BB
:100CA0002093B0049F5F9093B10481508093B2046D
:100CB00008950895833081F028F4813099F08230CE
:100CC000A9F008958730A9F08830C9F08430B1F4D4
:100CD000809180008F7D03C0809180008F7780930A
:100CE0008000089584B58F7784BD089584B58F7D85
:100CF000FBCF8091B0008F778093B00008958091F2
:100D0000B0008F7DF9CFCF93DF93282F30E0F9012A
:100D1000EB57F54F8491F901EF58F54FD491F90154
:100D2000E35AF54FC491CC23A1F081110E945A06D9
:100D3000EC2FF0E0EE0FFF1FED5AF54FA591B491A7
:100D4000EC91ED2381E090E009F480E0DF91CF9118
:100D5000089580E090E0FACF1F93CF93DF93282F80
:100D600030E0F901EB57F54F8491F901EF58F54F59
:100D7000D491F901E35AF54FC491CC23A9F0162F71
:100D800081110E945A06EC2FF0E0EE0FFF1FE75B87
:100D9000F54FA591B4918FB7F894EC91111108C05B
:100DA000D095DE23DC938FBFDF91CF911F91089503
:100DB000DE2BF8CFCF93DF9390E0FC01EF58F54F97
:100DC0002491835A954FFC0184918823D1F090E0BF
:100DD000880F991FFC01E15CF54FA591B491FC01CE
:100DE000E75BF54FC591D491623071F49FB7F894E9
:100DF0003C91822F809583238C93E8812E2B28832E
:100E00009FBFDF91CF9108958FB7F894EC912E2B6F
:100E10002C938FBFF6CF3FB7F89480915E039091EB
:100E20005F03A0916003B091610326B5A89B05C044
:100E30002F3F19F00196A11DB11D3FBFBA2FA92F59
:100E4000982F8827BC01CD01620F711D811D911D56
:100E500042E0660F771F881F991F4A95D1F70895C2
:100E60008F929F92AF92BF92CF92DF92EF92FF92BA
:100E70004B015C010E940B076B017C010E940B0778
:100E80006C197D098E099F09683E734081059105A3
:100E9000A8F321E0821A9108A108B10888EEC80ED3
:100EA00083E0D81EE11CF11C81149104A104B1045B
:100EB00029F7FF90EF90DF90CF90BF90AF909F9079
:100EC0008F9008953F924F925F926F927F928F9290
:100ED0009F92AF92BF92CF92DF92EF92FF920F93C9
:100EE0001F93CF93DF938EE480937C0062E370E0E6
:100EF00080E090E00E94300780917A0080648093C7
:100F00007A0080917A0086FDFCCF209178003091A4
:100F10007900C091D104D091D2049091D00411E015
:100F2000190F1093D00444E0949FC0011124C80FFE
:100F3000D91F50E040E060E078EE86E190E00E944A
:100F4000A62ECA01B9016B5F7F4F8F4F9F4F2AE0DA
:100F500030E040E050E00E94A62EB901330F880B2C
:100F6000990B0E94732D688379838A839B83909168
:100F7000CE04191710F01092D0048091CF04891775
:100F800018F48F5F8093CF041092CD048091CF042A
:100F9000882309F41AC1EE24E394F12C10E000E058
:100FA0009091CF04C090D304D090D404C091D104C8
:100FB000D091D2049E151F0409F008F484C03601B4
:100FC0006E0C7F1CD3013C90B4E03B9EF0011124D9
:100FD000EC0FFD1F80809180A280B380D601EC9140
:100FE000B4E0EB9FF0011124EC0FFD1F2081318153
:100FF00042815381C501B4010E946C2D18160CF07A
:101000005AC08091D50481112FC06701860101501B
:101010001109D301EE913D01B4E0EB9FF0011124E1
:10102000EC0FFD1F2081318142815381C501B40144
:101030000E946C2D87FD02C0860104C06801011565
:10104000110521F7C7012091D3043091D404F9018F
:10105000E80FF91F0817190788F50197280F391F9E
:10106000D9012C912083EFCF813061F78701512C7A
:10107000412CC80184199509029720F33801640CAA
:10108000751C76946794F601E60DF71DE08124E067
:10109000E29FF0011124EC0FFD1F2081318142817C
:1010A0005381C501B4010E946C2D87FD02C023014C
:1010B000E0CF8301DECF10E000E0C4CF3082BFEF8D
:1010C000EB1AFB0A6DCF81E08093CD04892F8695C2
:1010D000C80ED11CF601808190FF55C0F4E08F9FAF
:1010E000C0011124C80FD91F688179818A819B8131
:1010F000C091C804D091C9042091C70411E0120F17
:101100001093C70444E0249F90011124C20FD31F01
:101110000E9417309B01AC0128563140410951090A
:10112000A4E6B0E00E94C52E28E230E040E050E0A6
:101130000E94A62ECA01B9010E94732D688379838B
:101140008A839B839091C504191710F01092C704ED
:101150008091C604891718F48F5F8093C60410929B
:10116000C404DF91CF911F910F91FF90EF90DF901A
:10117000CF90BF90AF909F908F907F906F905F9037
:101180004F903F90089521E0C21AD108D601EC910A
:10119000B4E0EB9FF0011124EC0FFD1F24E0829FCF
:1011A000C0011124C80FD91F288139814A815B8170
:1011B00060817181828193810E94392F20E030E02B
:1011C00040E05FE30E94D22D93CF60E070E080ECBE
:1011D0009FE78ECF2FB7F89460915A0370915B030D
:1011E00080915C0390915D032FBF08950895089549
:1011F000AF92BF92CF92DF92EF92FF920F931F9325
:10120000CF93DF936C017B018B01040F151FEB0162
:101210005E01AE18BF08C017D10759F06991D60119
:10122000ED91FC910190F081E02DC6010995892B8B
:1012300079F7C501DF91CF911F910F91FF90EF904A
:10124000DF90CF90BF90AF900895FC01448155810D
:101250006081718180E194E00C94F808FC01538D69
:10126000448D252F30E0842F90E0821B930B541780
:1012700010F0CF96089501970895FC01918D828D0D
:10128000981761F0A28DAE0FBF2FB11D5D968C91A6
:10129000928D9F5F9F73928F90E008958FEF9FEFE5
:1012A0000895FC01918D828D981731F0828DE80FA1
:1012B000F11D858D90E008958FEF9FEF0895FC015B
:1012C000918D228D892F90E0805C9F4F821B910928
:1012D0008F739927089587E693E00E945F0921E0C4
:1012E000892B09F420E0822F089580E090E0892B7B
:1012F00029F00E946B0981110C9400000895FC01F3
:10130000A48DA80FB92FB11DA35ABF4F2C91848D66
:1013100090E001968F739927848FA689B7892C93C3
:10132000A089B1898C91837080648C93938D848D16
:10133000981306C00288F389E02D80818F7D808319
:101340000895EF92FF920F931F93CF93DF93EC01D9
:1013500081E0888F9B8D8C8D98131AC0E889F9895C
:10136000808185FF15C09FB7F894EE89FF8960835F
:10137000E889F98980818370806480839FBF81E0E0
:1013800090E0DF91CF911F910F91FF90EF90089522
:10139000F62E0B8D10E00F5F1F4F0F731127E02EFD
:1013A0008C8D8E110CC00FB607FCFACFE889F98935
:1013B000808185FFF5CFCE010E947F09F1CFEB8DB3
:1013C000EC0FFD2FF11DE35AFF4FF0829FB7F89409
:1013D0000B8FEA89FB8980818062CFCFCF93DF9327
:1013E000EC01888D8823B9F0AA89BB89E889F9893D
:1013F0008C9185FD03C0808186FD0DC00FB607FC72
:10140000F7CF8C9185FFF2CF808185FFEDCFCE01A4
:101410000E947F09E9CFDF91CF91089541155105D1
:1014200029F4EAE7F0E080818F7780836A307105E4
:10143000B9F0CB01880F991F880F991F80726770D0
:101440006860682B88E10FB6F894A89580936000D7
:101450000FBE60936000E0E6F0E0808180648083EE
:10146000232BD9F483B7817F846083BFF89483B73B
:10147000816083BF85B7806685BF8F7D85BF789487
:10148000889583B78E7F83BF7894452B29F4EAE74C
:10149000F0E0808180688083089583B7817F8460D5
:1014A00083BFF89483B7816083BF7894889583B7AE
:1014B0008E7F83BF7894E9CFEF92FF920F931F93B3
:1014C000CF93DF93EC01EC80FD806E157F050CF06F
:1014D00070C057FF04C0240F351F50E040E08E81DC
:1014E0009F81FA01E20FF31F8E179F071CF49C01E6
:1014F000241B350B121613060CF05BC0922F842FA1
:101500008695869586958E9DD0018F9DB00D112470
:101510006A0F7B1FAF8DB8A1A60FB71F477049F1A7
:1015200088E0841B482F682F70E0FB01E059FA4FD8
:10153000E491281708F063C0621B71092FEF30E0B7
:1015400002C0359527956A95E2F7E223013011052F
:1015500039F0B0F10230110561F58C91E82702C035
:101560008C91E82BEC93941720F12C813D81A20FF4
:10157000B31FE92FE41BE83078F00230110521F5A4
:101580008E2F9C9190959C932C813D81A20FB31F2F
:1015900088508830B0F7E770EE2359F0F0E0E85952
:1015A000FA4FE49101301105F9F010F10230110504
:1015B00019F1DF91CF911F910F91FF90EF90089556
:1015C000E0958C91E823CECF81E00115110509F457
:1015D00080E081959E2F8C932C813D81A20FB31FBB
:1015E00098509830C0F7D7CF8C91E82BEC93E1CF8F
:1015F000E0958C91E823FACF8C91E827F7CF013062
:10160000110509F4ADCFE0F20230110509F4A5CFC0
:10161000AE0DBF1DAECF0F931F93CF93DF9377FF18
:1016200004C0260F371F70E060E0DC011496CD91F6
:10163000DC91FB01E20FF31FCE17DF071CF49E01C4
:10164000261B370B121613064CF5FA0157FD379679
:10165000A3E0F595E795AA95E1F7EC9FD001ED9F02
:10166000B00DFC9FB00D11246A0F7B1FDC015F964B
:10167000ED91FC91E60FF71F4770552781E090E050
:1016800001C0880F4A95EAF7482F0130110559F03B
:10169000A8F02E0F3F1F02301105E1F0DF91CF912E
:1016A0001F910F9108952E0F3F1FE217F307B1F31B
:1016B0008191DF011197842B8C93F7CF80952E0FAA
:1016C0003F1FE217F30751F39191DF011197982320
:1016D0009C93F7CFE217F30709F38191DF0111978C
:1016E00084278C93F7CF0F931F93FA01DC01569652
:1016F0004C9156974230E9F04330A1F1413061F509
:1017000014964D915C91DA01AE1BBF0BFD01E21BFB
:10171000F30B77FD0BC0DC0116964D915C916417BD
:10172000750724F4AB01BF010E940B0B1F910F91B1
:10173000089514964D915C91DA01A61BB70BBD017B
:1017400061507109DC0116964D915C91DA01AE1B76
:10175000BF0BFD01E21BF30B77FDE8CFAF010E9449
:101760005C0AE4CF16964D915C91DA01A61BB70B8B
:10177000BD0161507109CDCF0F931F93FA01DC01B8
:1017800056964C9156974230A9F0433091F1413032
:1017900019F514964D915C91DA01AE1BBF0BFD015A
:1017A0003197F7FD04C0AB01BF010E945C0A1F9195
:1017B0000F91089514964D915C91DA01A61BB70B19
:1017C000BD01DC0116964D915C91DA01AE1BBF0B99
:1017D000FD013197621B730BF7FDE9CFDC01169613
:1017E0004D915C91E417F50714F7AF010E940B0BC4
:1017F000DECF16964D915C91DA01A61BB70BBD01A9
:10180000621B730BCECFFC0177FD64C08085918590
:10181000681779070CF05EC057FD5CC08285938520
:10182000481759070CF056C086898230B1F08330D2
:1018300029F1813041F484819581841B950BAB01A2
:10184000BC01615071092130310509F108F443C030
:101850002230310509F463C0089584819581DC014B
:10186000A61BB70BBD016150710986819781DC0110
:10187000A41BB50BAD0141505109E5CF868197817D
:10188000861B970BBA01AC0141505109DCCFCA014C
:1018900057FD0796A3E095958795AA95E1F7A48152
:1018A000B5818A9F90018B9F300D9A9F300D112436
:1018B000620F731F078CF0A1E02DE60FF71F477032
:1018C000552721E030E001C0220F4A95EAF78081D8
:1018D000822B80830895CA0157FD079633E09595C2
:1018E00087953A95E1F7A481B5818A9F90018B9FF6
:1018F000300D9A9F300D1124620F731F078CF0A1D9
:10190000E02DE60FF71F4770552781E090E001C0FA
:10191000880F4A95EAF7809590818923DACFCA012A
:1019200057FD079623E0959587952A95E1F7A481C1
:10193000B5818A9F90018B9F300D9A9F300D1124A5
:10194000620F731F078CF0A1E02DE60FF71F4770A1
:10195000552721E030E001C0220F4A95EAF7808147
:101960008227B7CF08958EBD00000DB407FEFDCFCE
:101970008EB508958CBD9DBD08950895FC016370DA
:10198000668B8481958126813781613039F063309F
:1019900029F09187808733872287089531872087B0
:1019A0009387828708952F923F924F925F926F9212
:1019B0007F928F929F92AF92BF92CF92DF92EF92DF
:1019C000FF920F931F93CF93DF93CDB7DEB76A9744
:1019D0000FB6F894DEBF0FBECDBF9A8F898F7A8382
:1019E00069834A01D22E18870F833701BC2CDC0192
:1019F00059962D913C915A972115310509F015C141
:101A000018968D919C911997681779070CF0D7C19A
:101A10001A968D919C91481759070CF0D0C14C2C07
:101A2000512CB6E0CB9E600D711D11247C876B8715
:101A3000161617060CF0C3C1EA2DF0E0FA87E98705
:101A400093E0EE0FFF1F9A95E1F7F88BEF87CF0138
:101A5000840F951F181619060CF0B1C1A98DBA8D07
:101A600058968C91811104C0BFEABD1508F4D39437
:101A7000A98DBA8DED91FC9111970284F385E02D2B
:101A8000CD010995B5E0DB9EC0011124E981FA8101
:101A9000FC83EB83312C212C9C0128593F4F388F3C
:101AA0002F8B4A2D50E05E8B4D8BEF89F88DE20D28
:101AB000F31D44919E828D82D12CC12C69817A8143
:101AC000620D731D7A8B698B842F90E09C8B8B8BBE
:101AD000E98DFA8DA081B18140FF82C0F1E0BF1293
:101AE0006FC0AF126DC01C96ED91FC912F813885AF
:101AF000A4014C0D5D1D69897A89898D9A8D09959E
:101B0000EB89FC89F595E7954E2F5FEFC51AD50A4D
:101B10006D817E818D899E89680F791F7E836D839B
:101B200098E0C916D10481F6AFEF2A1A3A0AEB8180
:101B3000FC81E40DF51DFC83EB83F5E02F163104E9
:101B400009F0B3CF2F81388526153705B9F0A98D57
:101B5000BA8DED91FC91B1E0BB1257C0AB1255C0EC
:101B600069817A816B5F7F4F0088F189E02D830165
:101B700028E030E0A401898D9A8D0995A98DBA8D50
:101B8000ED91FC9111970688F789E02DCD016A96B9
:101B90000FB6F894DEBF0FBECDBFDF91CF911F917E
:101BA0000F91FF90EF90DF90CF90BF90AF909F90FC
:101BB0008F907F906F905F904F903F902F900994FF
:101BC0001E96ED91FC91EF80F88409851A859201AB
:101BD0004D815E816B817C81898D9A8D099590CF35
:101BE0002F8138852615370509F48ACF31E0B312E5
:101BF00007C0A31205C01C96ED91FC91930178CF0C
:101C00001E96ED91FC917301E0CF6B857C85641984
:101C100075090684F785E02D73010F8518899201F7
:101C2000A401898D9A8D0995A9CFF90134969491D3
:101C3000329745915491D91AB7E0DB9E400D511D62
:101C40001124F901259134913C8B2B8BFA012590BD
:101C50003490FA013296749031963491398B3296E1
:101C600064903196449041E04C1518F04A1508F004
:101C70007FC0662D062C000C770B7C836B83842D34
:101C8000042C000C990B9E838D83A98DBA8DED9148
:101C9000FC9111970284F385E02DCD010995512C1B
:101CA000D12CC12CEA2DF0E0FA87E9872B2D30E00A
:101CB0003C872B87A401440D511D47FC5A95588F32
:101CC0004F8B69817A81660D711D67FC7A957E87DD
:101CD0006D877989C71608F051CF2C2D30E04D81E2
:101CE0005E81420F531FA985BA854A9FC0014B9F51
:101CF000900D5A9F900D1124FC01E80DF91DF88BF1
:101D0000EF87852D612C4F89588D420F531F5E8BB5
:101D10004D8B671408F050C044244394480E8770DC
:101D200041F4C1010196EB89FC89E20DF31DD490C9
:101D30001C01D7FE19C0A98DBA8DED91FC91662DBD
:101D400070E0B1E0BB1219C0AB1217C02D853E8503
:101D5000620F731F0484F585E02D2F8138854D892E
:101D60005E89898D9A8D0995DD0C6394842DD1CF80
:101D70001E821D821C821B8288CF4B815C81640F76
:101D8000751FAB85BC856A9FC0016B9F900D7A9FC4
:101D9000900D112469817A81680F791F0684F78577
:101DA000E02DEF80F88409851A859D014F855889BB
:101DB000898D9A8D0995D8CF570CC3948ACF6A968E
:101DC0000FB6F894DEBF0FBECDBFDF91CF911F914C
:101DD0000F91FF90EF90DF90CF90BF90AF909F90CA
:101DE0008F907F906F905F904F903F902F900895CD
:101DF0008F929F92AF92CF92EF92FF920F931F9389
:101E0000CF93DF93EC01262F898D9A8D009709F0EF
:101E100051C06A30D1F41D861C868D8948E0849FAC
:101E2000900111248E859F85820F931F9F878E8737
:101E300081E090E0DF91CF911F910F91FF90EF90A3
:101E4000CF90AF909F908F9008956D3089F3CC889C
:101E5000AD888F898823C1F08C859D8536E0C39E2F
:101E6000800D911D1124488559854817590764F440
:101E70004E855F851D861C8638E0A39EC001112417
:101E8000840F951F9F878E87EA88FB8808891989A8
:101E90004E855F856C857D85CE010E94D30C2C8993
:101EA0008C859D8546E0249F800D911D11249D8782
:101EB0008C87BECF6A3069F41D861C86FC0138967B
:101EC000E4912D898E859F85E29F800D911D1124BF
:101ED000ADCF6D3009F4ACCFFC013496349163176B
:101EE00008F4A6CF3296E491E61708F4A1CFFC01DE
:101EF000329685909490462F431B342F47E0349FB1
:101F0000800C911C1124F401329634913196E491A5
:101F10003323A9F1EE2399F1CC88F4013596E491AD
:101F2000AD884F89442301F10E2E000CFF0BE30F07
:101F3000F11DCE9EA001CF9E500D11246C857D8594
:101F4000460F571F68857985641775076CF44E85B1
:101F50005F851D861C86FC013896E491AE9E400D7F
:101F6000511D11245F874E87EA88FB8808891989EB
:101F70004E855F856C857D85CE010E94D30CF40172
:101F80003496E4912C898C859D85E29F800D911D6E
:101F900011248DCF6F927F928F929F92AF92BF92BA
:101FA000CF92DF92EF92FF920F931F93CF93DF9325
:101FB000EC016B015A0139014801E881F981028481
:101FC000F385E02D0995E881F9810288F389E02DF8
:101FD00087019301A501B601CE010995A501480D20
:101FE000591D41505109E881F9810288F389E02D9A
:101FF0009301B601CE010995E881F9810088F18944
:10200000E02D9401A501B601CE010995C60CD71C9F
:10201000B60161507109E881F9810088F189E02DEC
:102020009401A501CE010995E881F9810688F78917
:10203000E02DCE01DF91CF911F910F91FF90EF9096
:10204000DF90CF90BF90AF909F908F907F906F90D8
:1020500009946F927F928F929F92AF92BF92CF928C
:10206000DF92EF92FF920F931F93CF93DF935C0168
:10207000EB016A01490138018701DC01ED91FC9116
:102080006217730719F5641675062CF0962D872DC7
:102090003A01C92ED82E9601261937092F5F3F4FD6
:1020A000048CF58DE02DA301BE01C5010995DF91DA
:1020B000CF911F910F91FF90EF90DF90CF90BF9045
:1020C000AF909F908F907F906F9008954615570521
:1020D00091F42617370724F0892D4B01C22FD82FF2
:1020E0009E01281939092F5F3F4F068CF78DE02D8F
:1020F000A601B401DACF0284F385E02D0995D5015C
:10210000ED91FC910488F589E02D83019401A601ED
:10211000BE01C5010995D501ED91FC910688F789AD
:10212000E02DC501DF91CF911F910F91FF90EF90AE
:10213000DF90CF90BF90AF909F908F907F906F90E7
:102140000994EF92FF920F931F93DC011A960D9161
:102150001C911B9718962D913C911997ED91FC912C
:1021600000A0F1A1E02D7B0150E040E070E060E0D4
:1021700009951F910F91FF90EF9008954F925F92F4
:102180006F927F928F929F92AF92BF92CF92DF9287
:10219000EF92FF920F931F93CF93DF936C012B016C
:1021A0005A0139014801DC01ED91FC910284F3856B
:1021B000E02D0995E201640C751CD601ED91FC91AE
:1021C000C615D7055CF40088F189E02D87019401DC
:1021D000A501BE01C60109952196EFCF0688F789B2
:1021E000E02DC601DF91CF911F910F91FF90EF90ED
:1021F000DF90CF90BF90AF909F908F907F906F9027
:102200005F904F9009948F929F92AF92BF92CF921E
:10221000DF92EF92FF920F931F93CF93DF93EC0126
:102220005B014A016901E881F9810284F385E02DAF
:10223000099595012C0D3D1D21503109E881F98149
:102240000488F589E02D78018401A401B501CE014F
:102250000995E881F9810688F789E02DCE01DF91A3
:10226000CF911F910F91FF90EF90DF90CF90BF9093
:10227000AF909F908F9009948F929F92AF92BF9250
:10228000CF92DF92EF92FF920F931F93CF93DF9342
:10229000EC015B014A0169017801E881F98102845E
:1022A000F385E02D0995C80CD91C86010150110950
:1022B000E881F9810488F589E02D9501A401B50133
:1022C000CE010995E881F9810688F789E02DCE01D4
:1022D000DF91CF911F910F91FF90EF90DF90CF9002
:1022E000BF90AF909F908F900994EF92FF920F93C1
:1022F0001F93DC01ED91FC9100A0F1A1E02D099567
:102300001F910F91FF90EF9008950F931F93DC01A1
:10231000ED91FC91068CF78DE02D09951F910F91A1
:1023200008950F931F93DC01ED91FC91048CF58DC2
:10233000E02D09951F910F910895DC01ED91FC911D
:102340000084F185E02D09943F924F925F926F9245
:102350007F928F929F92AF92BF92CF92DF92EF9235
:10236000FF920F931F93CF93DF935C017B014A0190
:102370006901390187E0680E711C93E075946794D8
:102380009A95E1F72B01400E511E10E000E0312C30
:10239000D0E0C0E0CE0187709927330C892B59F427
:1023A000FE0183E0F595E7958A95E1F7E00FF11FCF
:1023B000E80DF91D349037FE0AC021E030E0A70196
:1023C000B5016C0F7D1F80E194E00E949D11219664
:1023D000CC16DD06F9F68FEFE81AF80A060D171D80
:1023E000E414F504A9F6DF91CF911F910F91FF90AE
:1023F000EF90DF90CF90BF90AF909F908F907F90A5
:102400006F905F904F903F9008952F923F924F9220
:102410005F926F927F928F929F92AF92BF92CF9274
:10242000DF92EF92FF920F931F93CF93DF9300D031
:1024300000D000D0CDB7DEB73C016A013E832D83CA
:10244000FC82EB825801A41AB50AB7FE03C0B1940E
:10245000A194B1088D809E80861A970A97FE03C0CA
:102460009194819491088A149B045CF0902F812FA1
:102470000D811E819D838E839C2D8D2D6B01692F77
:10248000782F0C151D055CF09D818E817E836D83F8
:10249000692F782F902F812F8601C92ED82E1601F3
:1024A000201A310A2B012D813E81421A530A57FE10
:1024B00003C0519441945108710137FE03C03FEFAE
:1024C000E31AF30AF594E7948D819E8186179707A6
:1024D0005CF5A1E0B0E0BA83A983C016D1064CF147
:1024E000D301ED91FC910484F585E02D2B813C8195
:1024F000A8016D817E818A149B041CF04D815E8150
:10250000B801C3010995E418F508F7FE0AC02D814A
:102510003E8189819A81280F391F3E832D83E20CE9
:10252000F31C0F5F1F4FD9CF2FEF3FEF3A83298363
:10253000D4CF26960FB6F894DEBF0FBECDBFDF9185
:10254000CF911F910F91FF90EF90DF90CF90BF90B0
:10255000AF909F908F907F906F905F904F903F9043
:102560002F900895089520910803260F3327331FD5
:1025700021323105ECF420912C03FC0190E080E045
:10258000243069F082E00895A09108032191AC0104
:1025900048515D4FA40FB52FB11D2C93019686179E
:1025A00098F380910803680F6093080380E0089512
:1025B00081E008959B01AC0160E074E284EF90E05B
:1025C0000E94072F2051310941095109569547951D
:1025D000379527952093B800089510922C0381E039
:1025E00080932E0310922D0361E082E10E94AC06DD
:1025F00061E083E10E94AC06E9EBF0E080818E7F30
:10260000808380818D7F808388E48093B80085E417
:102610008093BC000895CF93DF9391E09093E702FD
:102620008823B9F0C091B800D091BA008091BC0065
:102630008A7B8093BC0060E082E10E94AC0660E08F
:1026400083E10E94AC060E94ED12D093BA00C093C1
:10265000B800DF91CF910895E0915803809157031E
:10266000E81730F4F0E0EE53FD4F808190E00895DC
:102670008FEF9FEF089590915803809157032FEFAC
:102680003FEF981748F4E92FF0E0EE53FD4F20811B
:1026900030E09F5F90935803C901089580915703DC
:1026A00090915803891B990B0895CF92DF92EF9276
:1026B000FF920F931F93CF93DF937C01CB018A018D
:1026C00020916603222389F0EB016B01C40ED51E15
:1026D000CC15DD0569F06991D701ED91FC91019070
:1026E000F081E02DC7010995F3CF642F0E94B3124A
:1026F000C801DF91CF911F910F91FF90EF90DF9074
:10270000CF900895CF93DF931F92CDB7DEB7698343
:10271000209166032223F9F020916303203258F0C0
:1027200021E030E0FC013383228390E080E00F90D1
:10273000DF91CF91089580916403E82FF0E0EE558A
:10274000FD4F998190838F5F80936403809363032F
:1027500081E090E0ECCF61E0CE0101960E94B312DF
:10276000F7CFCF92DF92EF92FF920F931F93CF9309
:10277000DF93D091630381E0D13208F09CC0C09117
:1027800065030E940B076B017C0180912C03811172
:102790006CC082E080932C0381E080932E038FEF46
:1027A00080932B0310925003D0934F03A2EAB2E020
:1027B000EFE2F3E080E0D8138DC0109251038091D6
:1027C0005103CC0FC82BC093510380912D0381304E
:1027D00009F084C010922D030E940B076B017C014D
:1027E000809151038093BB008091E3029091E402B9
:1027F000A091E502B091E602892B8A2B8B2BA1F0E8
:102800000E940B070091E3021091E4022091E5027F
:102810003091E6026C197D098E099F09061717078A
:102820002807390708F442C08091BC0083FDD8CF47
:1028300085EC8093BC000E940B076B017C018091AA
:102840002C03823009F44CC080912B038F3F09F494
:1028500069C080912B03803209F466C080912B03FC
:10286000803309F463C084E026C08091E302909134
:10287000E402A091E502B091E602892B8A2B8B2B12
:1028800009F483CF0E940B070091E3021091E40248
:102890002091E5023091E6026C197D098E099F09AD
:1028A000061717072807390708F06FCF8091E20253
:1028B0000E940B1385E01092640310926303109240
:1028C0006603DF91CF911F910F91FF90EF90DF9002
:1028D000CF9008959D9191938F5F6DCF85EEA9CF95
:1028E0008091E3029091E402A091E502B091E602AA
:1028F000892B8A2B8B2B09F4A2CF0E940B07009106
:10290000E3021091E4022091E5023091E6026C1995
:102910007D098E099F09061717072807390708F050
:102920008ECFC4CF80E0C7CF82E0C5CF83E0C3CFD6
:10293000EF92FF920F931F93CF93DF937C01C62FEB
:1029400080912D0490912E04009709F459C0209194
:10295000310431E0309366032093650310926403E1
:1029600010926303DC01ED91FC910190F081E02D68
:1029700060E009958701EE24E394F12CD1E0C15089
:1029800080912D0490912E04CF3F91F1B0E2EB168F
:10299000F104D8F00E94B11380912D0490912E047F
:1029A00020913104D0936603209365031092640351
:1029B00010926303DC01ED91FC910190F081E02D18
:1029C00060E00995EE24E394F12C80912D04909120
:1029D0002E04F8016491DC01ED91FC910190F081ED
:1029E000E02D0995BFEFEB1AFB0A0F5F1F4FC7CF12
:1029F000DF91CF911F910F91FF90EF900C94B11345
:102A0000E0913D04F0913E049081809143048095D3
:102A1000892380838701C15008F438C0F80184916C
:102A200020912B0430912C04232B29F00E94B30C0D
:102A30000F5F1F4FF0CF28E030E040E8E09139040D
:102A4000F0913A0490914104582F5423D9F05081C9
:102A5000952B9083E0913B04F0913C049081509140
:102A60004204952B9083E0913B04F0913C0450810B
:102A70009091420490959523908346952150310979
:102A8000E9F6D6CF508190959523E3CFDF91CF9192
:102A90001F910F91FF90EF9008951F93CF93DF93B5
:102AA000EC018D8D9E8D009721F1162F29A131E02B
:102AB00030936603209365031092640310926303BE
:102AC000DC01ED91FC910190F081E02D60E0099531
:102AD0008D8D9E8DDC01ED91FC910190F081E02DBA
:102AE000612F09958D8D9E8DDF91CF911F910C9453
:102AF000B113ADA5BEA59C918BA9809589238C931C
:102B00008B8D9C8D892B31F0862FDF91CF911F917A
:102B10000C94B30C28E030E080E8A9A5BAA599A9E7
:102B2000462F4823C1F04C91942B9C93ABA5BCA598
:102B30009C914AA9942B9C93ABA5BCA54C919AA9B6
:102B4000909594239C9386952150310931F7DF911C
:102B5000CF911F9108954C9190959423E6CFDF92E9
:102B6000EF92FF920F931F93CF93DF9380912D04E9
:102B700090912E04892B09F48AC0609145047091CC
:102B8000460480914704909148040E94DA1265E05F
:102B900089E99AE00E94981460911404615080E1E0
:102BA00094E00E944D152091160430911704C9013C
:102BB000079697FD079623E0959587952A95E1F767
:102BC0002091140430911504829F8001839F100D81
:102BD000929F100D1124C0912F04D0913004809148
:102BE0002D0490912E040C0F1D1F009709F480C036
:102BF0002091310431E030936603209365031092F5
:102C0000640310926303DC01ED91FC910190F0816B
:102C1000E02D60E40995EE24E394F12CDD24D394B7
:102C200080912D0490912E040C171D0709F446C0C5
:102C3000B0E2EB16F104D8F00E94B11380912D049C
:102C400090912E0420913104D09266032093650365
:102C50001092640310926303DC01ED91FC910190EA
:102C6000F081E02D60E40995EE24E394F12C80914D
:102C70002D0490912E046991DC01ED91FC9101905D
:102C8000F081E02D0995BFEFEB1AFB0AC9CF8091C7
:102C90002B0490912C04892B31F080914E0490915B
:102CA0004F040E94BA0CE0913F04F09140049081DF
:102CB0008091440480958923808369CF0E94B11359
:102CC00080912D0490912E04892B09F452C06091BB
:102CD000490470914A0480914B0490914C04DF9117
:102CE000CF911F910F91FF90EF90DF900C94DA122B
:102CF000E0913D04F0913E04808190914304892B42
:102D000080830C171D07E1F2899120912B043091EB
:102D10002C04232B19F00E94B30CF3CF28E030E0F1
:102D200040E8E0913904F0913A0490914104582F21
:102D30005423D9F05081952B9083E0913B04F0917E
:102D40003C04908150914204952B9083E0913B0488
:102D5000F0913C045081909142049095952390838A
:102D6000469521503109E9F6CCCF508190959523B5
:102D7000E3CFE0913F04F0914004808190914404BE
:102D8000892B8083DF91CF911F910F91FF90EF905E
:102D9000DF900895CF93C82F80912D0490912E0439
:102DA000892B01F16091450470914604809147049C
:102DB000909148040E94DA126C2F80E194E00E9406
:102DC0004D1580912D0490912E04892B11F1609165
:102DD000490470914A0480914B0490914C04CF9126
:102DE0000C94DA1280912B0490912C04892B31F0F1
:102DF00080914E0490914F040E94BA0CE0913F04E0
:102E0000F0914004908180914404809589238083CF
:102E1000D3CFE0913F04F09140048081909144042D
:102E2000892B8083CF9108951F93CF93DF93EC017B
:102E3000162F8D8D9E8D892BC9F06DA97EA98FA926
:102E400098AD0E94DA1266EA111167EACE010E947B
:102E50004D158D8D9E8D892BC9F069AD7AAD8BADE9
:102E60009CADDF91CF911F910C94DA128B8D9C8DCC
:102E7000892B21F08EAD9FAD0E94BA0CEFA5F8A969
:102E800090818CA9809589238083DDCFEFA5F8A957
:102E900080819CA9892B8083DF91CF911F91089518
:102EA00090E080E00895CF92DF92EF92FF920E942F
:102EB000EA086B017C010E94EA086C197D098E0901
:102EC0009F09683B7B408105910560F482E00E9488
:102ED0008306019769F06AE070E080E090E00E946C
:102EE0003007E9CF81E0FF90EF90DF90CF90089519
:102EF00080E0F9CFCF93DF93EC010E94EA0868836A
:102F000079838A839B83DF91CF9108951F93CF9319
:102F1000DF93EC011C82611104C08A819B81892BA3
:102F2000F1F0162F0E94EA0828813981AB01421B7B
:102F3000530B9A01EA81FB81E930F10508F041C0A9
:102F4000EC55F84E0C946130AD17B317BB17EA1768
:102F5000C317E117CB17D317D31711112FC0DF9168
:102F6000CF911F910895112361F142335105BCF3B4
:102F700022E030E01CC0112339F1203931407CF3CC
:102F800028E030E014C0111122C02E3531403CF34E
:102F900025E030E00CC01123E9F042335105FCF28A
:102FA00027E030E004C029E030E01111D8CF798368
:102FB00068833B832A8381E08C83D1CF21E030E09A
:102FC000F6CF30E020E0F3CF23E030E0F0CF26E092
:102FD00030E0EDCF24E030E0EACFFC018081918148
:102FE000009711F00C94033108952091160430914C
:102FF0001704C901079697FD079623E095958795D5
:103000002A95E1F72091140430911504829FA001C4
:10301000839F500D929F500D112470E060E08091CD
:103020002F04909130040C9457320E944932FB01D6
:1030300001900020E9F73197AF01461B570BDC01E7
:10304000ED91FC910280F381E02D0994AF92BF9243
:10305000CF92DF92EF92FF920F931F93CF93DF9364
:10306000CDB7DEB7A1970FB6F894DEBF0FBECDBFC8
:103070001091C60460E070E080EC9FE7112319F125
:10308000A090C804B090C904C12CD12C760100E0F6
:10309000F50121913191419151915F01C701B60133
:1030A0000E94392F6B017C010F5F1013F1CF612F4C
:1030B00070E090E080E00E94732D9B01AC01C7019D
:1030C000B6010E94A52F0E94173081E0809324044E
:1030D0008093250484E690E090931D0480931C0463
:1030E00010921F0410921E04643608F063E6262F27
:1030F00030E050E040E019A28E010F5D1F4F8AE0E2
:10310000C82ED12CE12CF12CCA01B901A7019601DE
:103110000E94072F605DF80162938F012115310530
:103120004105510589F7309729F0BF0180E194E00E
:103130000E9417186BE771E080E194E00E94171875
:103140000E94AF15A1960FB6F894DEBF0FBECDBF9B
:10315000DF91CF911F910F91FF90EF90DF90CF9073
:10316000BF90AF9008950F931F93CF93DF93EC011F
:1031700088819981009759F02A813B81261737076A
:1031800030F081E0DF91CF911F910F9108958B0175
:103190006F5F7F4F0E948C31009759F0998388832D
:1031A0001B830A832C813D81232B59F7FC0110825C
:1031B000E8CF80E0E7CFEF92FF920F931F93CF937A
:1031C000DF93EC017B01FB0101900020E9F73197CF
:1031D0008F01061B170BB8010E94B3182881398193
:1031E000811113C02115310519F0C9010E94033165
:1031F000198218821D821C821B821A82DF91CF9154
:103200001F910F91FF90EF9008951D830C83B701DC
:10321000C901DF91CF911F910F91FF90EF900C9416
:103220005E320F931F93CF93DF93CDB7DEB729970D
:103230000FB6F894DEBF0FBECDBF8C01862FF8010C
:103240001182108213821282158214824AE0BE011A
:103250006F5F7F4F90E00E94422DBE016F5F7F4FF6
:10326000C8010E94DB1829960FB6F894DEBF0FBE86
:10327000CDBFDF91CF911F910F9108950F931F93B1
:10328000CF93DF93CDB7DEB762970FB6F894DEBF6A
:103290000FBECDBF8C01CB01F801118210821382C9
:1032A0001282158214824AE0BE016F5F7F4F0E9436
:1032B000372DBE016F5F7F4FC8010E94DB186296F9
:1032C0000FB6F894DEBF0FBECDBFDF91CF911F9137
:1032D0000F910895EF92FF920F931F93CF93DF9377
:1032E000EC01198218821B821A821D821C826115D0
:1032F0007105E1F08B01FB0101900020E9F73197A6
:103300007F01E61AF70AB7010E94B31828813981B4
:10331000811113C02115310519F0C9010E94033133
:10332000198218821D821C821B821A82DF91CF9122
:103330001F910F91FF90EF900895FD82EC82B801EC
:10334000C901DF91CF911F910F91FF90EF900C94E5
:103350005E32CF93DF9300D000D000D0CDB7DEB780
:103360000E94F51760E172E0CE0101960E946A1991
:1033700080916D0490916E0463E871E08230910554
:1033800059F06CE871E08430910531F06DE771E03F
:10339000019711F060E172E0CE0101960E94DB1806
:1033A00082E0809324048093250410921D041092DF
:1033B0001C048CE090E090931F0480931E04CE01C7
:1033C00001960E9425090E9426180E94AF15CE0181
:1033D00001960E94ED1726960FB6F894DEBF0FBE39
:1033E000CDBFDF91CF910895CF93DF9300D000D070
:1033F00000D0CDB7DEB70E94F51761EB71E0CE01CA
:1034000001960E946A1981E0809324048093250428
:1034100010921D0410921C0410921F0410921E049E
:10342000CE0101960E942509CE0101960E94ED175A
:10343000809171046FE971E0811108C0809173047B
:1034400064E971E0811102C065E971E0CE01019685
:103450000E946A1982E080932404809325041092CC
:103460001D0410921C048CE090E090931F04809344
:103470001E04CE0101960E942509CE0101960E94EC
:10348000ED170E94AF1526960FB6F894DEBF0FBE5B
:10349000CDBFDF91CF910895CF93DF9300D000D0BF
:1034A00000D0CDB7DEB70E94F5176AEA71E0CE0111
:1034B00001960E946A1981E0809324048093250478
:1034C00010921D0410921C0410921F0410921E04EE
:1034D000CE0101960E942509CE0101960E94ED17AA
:1034E000909172048091750491112CC06AEB71E087
:1034F000811102C06CEB71E0CE0101960E946A1945
:1035000082E0809324048093250410921D0410927D
:103510001C048CE090E090931F0480931E04CE0165
:1035200001960E942509CE0101960E94ED170E9486
:10353000AF1526960FB6F894DEBF0FBECDBFDF9154
:10354000CF91089566EC71E08111D6CF64EC71E003
:10355000D3CFCF92DF92EF92FF920F931F93CF932F
:10356000DF93CDB7DEB7AE970FB6F894DEBF0FBED0
:10357000CDBFF82ED62E0E94F5170F2D10E08D2D01
:1035800090E001969F938F931F92FF928FEC91E0B2
:103590009F938F93CE0101967C019F938F930E94FE
:1035A0006532B701CE0189960E946A1981E0809345
:1035B00024048093250410921D0410921C04109280
:1035C0001F0410921E04CE0189960E942509CE0187
:1035D00089960E94ED17780191E0E91AF1080FB67B
:1035E000F894DEBF0FBECDBFEE0CFF1CEE0CFF1C2F
:1035F000D11053C0000F111F000F111FF801E15629
:10360000FB4F6081CE0189960E94111913E010933F
:1036100024041093250410921D0410921C043CE015
:10362000C32ED12CD0921F04C0921E04CE018996C5
:103630000E942509CE0189960E94ED17F701E559F0
:10364000FB4F61ADCE0189960E941119109324049D
:103650001093250480E490E090931D0480931C0453
:10366000D0921F04C0921E04CE0189960E942509A3
:10367000CE0189960E94ED170E94AF15AE960FB647
:10368000F894DEBF0FBECDBFDF91CF911F910F9198
:10369000FF90EF90DF90CF900895870105591B4F61
:1036A000F80162ADCE0189960E94111983E0F82ECF
:1036B000F0922404F092250410921D0410921C0430
:1036C0009CE0C92ED12CD0921F04C0921E04CE01C2
:1036D00089960E942509CE0189960E94ED17F8016E
:1036E00063ADCE0189960E941119F0922404F092E4
:1036F0002504B0CF0F931F93CF93DF9300D000D05A
:1037000000D0CDB7DEB70E94F51761EE71E0CE01B3
:1037100001960E946A19E0E1F4E081E0848B858BD8
:103720001586148617861686CE0101960E942509F5
:10373000CE0101960E94ED170E94AF1500E011E046
:1037400083E895E0F80191838083E9E6F0E08081E9
:103750008C7F8083E89A30E020E050E040E06AE02F
:1037600070E082E693E00E940E0AE89884E895E013
:10377000F8019183808386E694E00E947A1726966A
:103780000FB6F894DEBF0FBECDBFDF91CF911F9172
:103790000F910895EF92FF920F931F93CF93DF93B2
:1037A00000D000D000D0CDB7DEB70E94F5176DEE87
:1037B00071E0CE0101960E946A1981E08093240491
:1037C0008093250410921D0410921C0410921F0473
:1037D00010921E04CE0101960E942509CE01019689
:1037E0000E94ED1780917904813061F401E010E0CE
:1037F00029E030E04FE150E070E060E080E194E0EB
:103800000E94BC0B60917604CE0101960E941119B2
:1038100012E0109324041093250410921D041092BA
:103820001C048FE0E82EF12CF0921F04E0921E049D
:10383000CE0101960E942509CE0101960E94ED1746
:1038400080917904823040F160917704CE01019635
:103850000E94111910932404109325048EE190E026
:1038600090931D0480931C04F0921F04E0921E04A8
:10387000CE0101960E942509CE0101960E94ED1706
:1038800001E010E029E030E04FE150E06EE170E04F
:1038900080E194E00E94BC0B80917904833058F160
:1038A00060917804CE0101960E94111982E0809304
:1038B0002404809325048CE390E090931D0480936E
:1038C0001C048FE090E090931F0480931E04CE01AF
:1038D00001960E942509CE0101960E94ED1701E094
:1038E00010E029E030E04FE150E06CE370E080E16F
:1038F00094E00E94BC0B0E9426180E94AF152696E9
:103900000FB6F894DEBF0FBECDBFDF91CF911F91F0
:103910000F91FF90EF900895EF92FF920F931F93F6
:10392000CF93DF9300D000D000D0CDB7DEB70E9498
:10393000F5176BEF71E0CE0101960E946A1981E0E4
:10394000809324048093250410921D0410921C047B
:1039500010921F0410921E04CE0101960E942509A8
:10396000CE0101960E94ED17E0919204E25060E0D2
:10397000E73020F4F0E0EC5DFE4F608170E001E0A4
:1039800010E029E030E04FE150E080E194E00E9457
:10399000BC0B60917A04CE0101960E94111912E0CD
:1039A000109324041093250410921D0410921C04FB
:1039B0008FE0E82EF12CF0921F04E0921E04CE015D
:1039C00001960E942509CE0101960E94ED17609193
:1039D0007B04CE0101960E941119109324041093C8
:1039E00025048CE090E090931D0480931C04F092D9
:1039F0001F04E0921E04CE0101960E942509CE010B
:103A000001960E94ED176BEE71E0CE0101960E94C7
:103A10006A19109324041093250484E190E0909394
:103A20001D0480931C04F0921F04E0921E04CE013A
:103A300001960E942509CE0101960E94ED17609122
:103A40007C04CE0101960E94111910932404109356
:103A500025048EE190E090931D0480931C04F09265
:103A60001F04E0921E04CE0101960E942509CE019A
:103A700001960E94ED1760917D04CE0101960E948F
:103A8000111910932404109325048AE290E0909376
:103A90001D0480931C04F0921F04E0921E04CE01CA
:103AA00001960E942509CE0101960E94ED176BEE4A
:103AB00071E0CE0101960E946A19109324041093BC
:103AC000250482E390E090931D0480931C04F092FF
:103AD0001F04E0921E04CE0101960E942509CE012A
:103AE00001960E94ED1760917E04CE0101960E941E
:103AF000111910932404109325048CE390E0909303
:103B00001D0480931C04F0921F04E0921E04CE0159
:103B100001960E942509CE0101960E94ED17609141
:103B20007F04CE0101960E94111910932404109372
:103B3000250488E490E090931D0480931C04F09287
:103B40001F04E0921E04CE0101960E942509CE01B9
:103B500001960E94ED1760918004CE0101960E94AB
:103B60001119109324041093250484E590E0909398
:103B70001D0480931C04F0921F04E0921E04CE01E9
:103B800001960E942509CE0101960E94ED176091D1
:103B90008104CE0101960E94111910932404109300
:103BA000250480E690E090931D0480931C04F0921D
:103BB0001F04E0921E04CE0101960E942509CE0149
:103BC00001960E94ED170E94AF1526960FB6F89445
:103BD000DEBF0FBECDBFDF91CF911F910F91FF9040
:103BE000EF90089585ED8093BC008091E302909161
:103BF000E402A091E502B091E6020796A11DB11D75
:103C000023E0B695A795979587952A95D1F72091AA
:103C1000BC0024FD03C010922C0308954091E302E0
:103C20005091E4026091E5027091E602452B462B2B
:103C3000472B69F30097A105B10541F02AE22A95C7
:103C4000F1F700C00197A109B109E1CF8091E2022B
:103C50000C940B130C94982E1F920F920FB60F9288
:103C600011242F933F938F939F93AF93BF93809192
:103C70005A0390915B03A0915C03B0915D03309176
:103C8000590323E0230F2D3758F50196A11DB11DCF
:103C90002093590380935A0390935B03A0935C0392
:103CA000B0935D0380915E0390915F03A0916003E8
:103CB000B09161030196A11DB11D80935E039093A5
:103CC0005F03A0936003B0936103BF91AF919F9195
:103CD0008F913F912F910F900FBE0F901F901895CD
:103CE00026E8230F0296A11DB11DD2CF1F920F927D
:103CF0000FB60F9211242F933F934F935F936F93BF
:103D00007F938F939F93AF93BF93EF93FF93E09134
:103D10000201F09103010995FF91EF91BF91AF91DD
:103D20009F918F917F916F915F914F913F912F91D3
:103D30000F900FBE0F901F9018951F920F920FB605
:103D40000F9211242F933F934F935F936F937F9321
:103D50008F939F93AF93BF93EF93FF93E0910001F5
:103D6000F09101010995FF91EF91BF91AF919F9162
:103D70008F917F916F915F914F913F912F910F9014
:103D80000FBE0F901F9018951F920F920FB60F92B3
:103D900011242F933F934F935F936F937F938F9350
:103DA0009F93AF93BF93EF93FF9387E693E00E94B7
:103DB0007F09FF91EF91BF91AF919F918F917F917B
:103DC0006F915F914F913F912F910F900FBE0F9088
:103DD0001F9018951F920F920FB60F9211242F93D8
:103DE0008F939F93EF93FF93E0917703F091780384
:103DF0008081E0917D03F0917E0382FD1BC0908164
:103E0000809180038F5F8F7320918103821741F02F
:103E1000E0918003F0E0E959FC4F958F8093800397
:103E2000FF91EF919F918F912F910F900FBE0F9067
:103E30001F9018958081F4CF1F920F920FB60F92AA
:103E400011248F930FB6F894A89580916000886133
:103E500080936000109260000FBE8F910F900FBE94
:103E60000F901F9018951F920F920FB60F9211246A
:103E70002F933F934F935F936F937F938F939F9372
:103E8000AF93BF93EF93FF938091B900887F803603
:103E900009F44AC0F0F5883209F4A7C018F580315A
:103EA00009F49BC0B8F4882309F4F9C0883009F4F8
:103EB00094C0FF91EF91BF91AF919F918F917F91AE
:103EC0006F915F914F913F912F910F900FBE0F9087
:103ED0001F901895883109F488C0803251F780937B
:103EE0002B0314C0803409F49DC040F48033B9F32F
:103EF0008833F9F680932B0385ECB0C0803509F444
:103F000085C0883509F496C0883499F60E94F21D60
:103F1000D0CF883909F48CC038F5883729F050F4AF
:103F2000883611F0803729F683E080932C031092B5
:103F30002A0357C0883809F47BC0803919F08038CB
:103F400009F0B7CF80912A03803208F071C0E09168
:103F50002A0381E08E0F80932A038091BB00F0E05A
:103F6000E65FFC4F80833DC0803B39F0E0F4803A4F
:103F700009F479C0883A09F09CCF84E080932C033F
:103F80001092090310920803E0915303F091540337
:103F900009958091080381110FC081E08093080387
:103FA0001092E80209C0803C09F4A6CF883C09F4CD
:103FB000A3CF883B09F07DCFE091090381E08E0F0C
:103FC00080930903F0E0E851FD4F80818093BB00AE
:103FD000909109038091080329C080915103809337
:103FE000BB0085EC8093BC0064CF9091500380911E
:103FF0004F03981758F5E091500381E08E0F80939E
:104000005003F0E0E15DFC4F8081E9CFE091500387
:1040100081E08E0F809350038091BB00F0E0E15D62
:10402000FC4F80839091500380914F039817C8F202
:1040300085E8D8CFE091500381E08E0F8093500344
:104040008091BB00F0E0E15DFC4F808380912E0306
:1040500081115CCF81E080932D0384EA8093BC00C2
:1040600010922C0326CF85EC8093BC0010922C0379
:1040700080912A03803230F4E0912A03F0E0E65F79
:10408000FC4F108260912A0370E0E0915503F0919B
:1040900056038AE093E0099510922A030ACF109202
:1040A0002B0334CFCF93DF93EC01188684E189830F
:1040B00080E590E00E9467309D838C8384E190E0EE
:1040C0000E9467309F838E831A821B82188280E051
:1040D0009981891738F4EE81FF81E80FF11D808303
:1040E0008F5FF6CFDF91CF910895CF9310926A033F
:1040F0001092690388EE93E0A0E0B0E080936B0338
:1041000090936C03A0936D03B0936E032FE231E0A4
:10411000309368032093670325EC30E030937403F9
:104120002093730324EC30E03093760320937503DF
:1041300020EC30E0309378032093770321EC30E0DB
:1041400030937A032093790322EC30E030937C03A0
:1041500020937B0326EC30E030937E0320937D0395
:1041600010928003109281031092820310928303B5
:104170001092070410920604809308049093090497
:10418000A0930A04B0930B0481E491E0909305049A
:104190008093040484EC94E00E9452208DEC94E01F
:1041A0000E945220109213041092120420E830E072
:1041B000309315042093140480E290E09093170448
:1041C00080931604309319042093180490931B04D1
:1041D00080931A041092260410921D0410921C045D
:1041E00010921F0410921E04C1E0C0932504C093D6
:1041F00024048FEF9FEF90932304809322049093E5
:10420000210480932004C093270410922804109264
:104210002A041092290483E591E09093110480937D
:10422000100410922C0410922B0484E094E09093DC
:104230002E0480932D041092300410922F048FEFDF
:10424000809334048093350480933604809337043C
:104250008093380480E89AE1A6E0B0E080934504BA
:1042600090934604A0934704B093480480EA96E8EC
:10427000A1E0B0E08093490490934A04A0934B04DA
:10428000B0934C0480E580934E0410924F040E943A
:10429000EA087093510460935004109253041092F2
:1042A0005204109254048CE090E090935604809352
:1042B0005504109258041092570462E00E94DA06E6
:1042C0000E94EA0870935A046093590410925C04A7
:1042D00010925B0410925D0482E090E090935F0482
:1042E00080935E04109261041092600462E00E9468
:1042F000DA0680EC97E2A9E0B0E080936204909344
:104300006304A0936404B09365040E94EA08609378
:104310006604709367048093680490936904109214
:104320006C0410926B0481E090E090936E04809393
:104330006D041092700410926F0410927104109228
:1043400072041092730484E080937404C093750423
:1043500085E0809376048093770480937804C093FB
:104360007904C0939204C0937A0480937B041092E2
:104370007C0480937D04C0937E0499E090937F0435
:1043800080938004809381041092830483E080935F
:104390008204109285049093840410928604C09342
:1043A0008704109288049093890410928A0482E012
:1043B00080938B0410928C0490938D0410928E0441
:1043C00090938F04109290049093910482E28093D2
:1043D000B30490E080E0DC01AD56BB4F30E020E05C
:1043E000BC016256754FFB01E20FF31F45915491DA
:1043F0004D931F961C921F972F5F3F4F243031051E
:1044000091F704968031910531F781E08093B404EF
:104410001092B5041092B6041092B7041092B8042A
:104420001092B9041092BA040E94EA086093BC0486
:104430007093BD048093BE049093BF041092C00497
:104440001092C1041092C2041092C304CF91089537
:10445000CF93DF93CDB7DEB7AE970FB6F894DEBF3C
:104460000FBECDBF789484B5826084BD84B5816071
:1044700084BD85B5826085BD85B5816085BD80912F
:104480006E00816080936E001092810080918100A7
:10449000826080938100809181008160809381009F
:1044A000809180008160809380008091B100846061
:1044B0008093B1008091B00081608093B0008091C2
:1044C0007A00846080937A0080917A008260809381
:1044D0007A0080917A00816080937A0080917A00DE
:1044E000806880937A001092C100E0917703F09188
:1044F000780382E08083E0917303F091740310826B
:10450000E0917503F09176038FEC808310927F0326
:10451000E0917B03F0917C0386E08083E091790356
:10452000F0917A03808180618083E0917903F0913A
:104530007A03808188608083E0917903F0917A0327
:10454000808180688083E0917903F0917A03808193
:104550008F7D808368EE73E080E090E00E943007FA
:104560001092580310925703109264031092630341
:104570000E94ED1286EF98E09093540380935303CA
:1045800087EF98E0909356038093550390E080E086
:104590000E94902E813009F048C08AE090E00E948D
:1045A000902E8093740484E190E00E94902E91E01C
:1045B000811101C090E0909375048EE190E00E941B
:1045C000902E91E0811101C090E09093730468EE09
:1045D00073E080E090E00E94300780912F0490917A
:1045E0003004892BD1F10E94F517209116043091E7
:1045F00017048091140490911504213231050CF0B8
:1046000063C0B9016052710977FF02C06F5F7F4FCD
:10461000759567958357910997FD019600E210E023
:1046200023E730E04AE855E062C061E090E080E0D6
:104630000E942A1E609174048AE090E00E942A1E63
:104640006091750484E190E00E942A1E60917304D9
:104650008EE190E00E942A1EBACF2091160430917C
:104660001704C901079697FD0796B3E095958795BE
:10467000BA95E1F72091140430911504AC01429FE2
:10468000C001439F900D529F900D11240E946730EE
:104690009093300480932F04892B09F0A4CF0AE271
:1046A0001AE0F8016491662341F087E693E00E94E6
:1046B000A1090F5F1F4F892BA1F76EE072E087E61B
:1046C00093E00E941718FFCFB9016054710977FF7A
:1046D00002C06F5F7F4F759567958255910997FD71
:1046E000019600E410E022E530E04AE657E09595B7
:1046F00087950E94A41182E08093320480912D045A
:1047000090912E04892B09F4BAC28CE38093310472
:10471000109258031092570310926403109263038F
:104720000E94ED1286EF98E0909354038093530318
:1047300087EF98E090935603809355038091380457
:1047400087FD1EC061E00E94DA0661E080913804B6
:104750000E94AC0661E070E080E090E00E943007CB
:1047600060E0809138040E94AC066AE070E080E06E
:1047700090E00E94300761E0809138040E94AC060E
:1047800080912D0490912E04892B09F437C36091F8
:1047900045047091460480914704909148040E941A
:1047A000DA1264E086E895E00E949814609116049D
:1047B000615080E194E00E944D1564E082E895E04C
:1047C0000E9498148091320460E1813009F064E124
:1047D00080E194E00E944D1564E08EE795E00E9430
:1047E00098148FE880934D048091140490911504DF
:1047F0008038910509F01BC380911604909117042D
:104800008034910509F023C380913204813009F08E
:104810000CC38FE980934D0412E16AED80E194E0CE
:104820000E944D15612F80E194E00E944D1561E8D2
:1048300080E194E00E944D1560914D0480E194E088
:104840000E944D1569ED80E194E00E944D15809124
:10485000320462E2813009F061EF80E194E00E946D
:104860004D1566E088E795E00E94981480912D042C
:1048700090912E04892B09F4EEC260914904709145
:104880004A0480914B0490914C040E94DA1268EE25
:1048900073E080E090E00E9430070E94F51781E00D
:1048A00090E09093230480932204909321048093BA
:1048B000200462E080E194E00E94BE0C80917304C9
:1048C00062E0811160E080E194E00E94BE0C62E051
:1048D00082E00E94DA0686E694E00E947A170E943F
:1048E00062071092700410926F040E94A9198E0141
:1048F0000F5F1F4F79E4E72E72E0F72EE0E4CE2E33
:10490000E2E0DE2EFCE08F2E912C64E1662E712C0D
:1049100055245394809155040E94830661E02091B0
:104920005704309158042817390709F060E080E5F2
:1049300094E00E94861780915E040E94830661E0E5
:1049400020916004309161042817390709F060E074
:1049500089E594E00E9486170E94EA082091C0042D
:104960003091C1044091C2045091C304621773078F
:104970008407950708F470C1809154048823D1F00E
:1049800080915204909153040597C9F486E694E00F
:104990000E947A1780916F04909170048230910583
:1049A00009F496C308F061C2009709F476C2019732
:1049B00009F4DEC280915404882309F469C080910F
:1049C000520490915304079709F062C086E694E080
:1049D0000E947A1785E08093760480937704809311
:1049E0007804509279045092920450927A04809301
:1049F0007B0410927C0480937D0450927E0499E0A5
:104A000090937F048093800480938104E3EAF4E030
:104A100083EB94E0108211821282138234968E17F7
:104A20009F07C1F75092B4041092B5041092B604D7
:104A30001092B7041092B8041092B9041092BA04FC
:104A40000E94F5176AE372E0C8010E946A1982E0C9
:104A5000809324048093250410921D0410921C045A
:104A600090921F0480921E04C8010E942509C8016B
:104A70000E94ED170E94AF1568EE73E080E090E0B1
:104A80000E9430071092700410926F040E94A919BE
:104A9000809154048823D1F0809152049091530462
:104AA0000897A1F486E694E00E947A1780916F043B
:104AB000909170048230910509F4DBC308F047C37C
:104AC000009709F45BC3019709F4B3C380915D04B7
:104AD0008823D1F080915B0490915C040597A1F448
:104AE00086E694E00E947A1780916F04909170049A
:104AF0008230910509F401C408F0C9C3009709F494
:104B0000DDC3019709F40FC480915D04882309F186
:104B100080915B0490915C040797D9F486E694E059
:104B20000E947A1780916F0490917004019789F424
:104B300080917504882309F4A9C40E94850560E06A
:104B400081E00E94A91AE5E0F0E0F0937004E093A0
:104B50006F0480915D048823B9F080915B0490918B
:104B60005C04089789F486E694E00E947A178091A5
:104B70006F04909170048130910509F436C508F4F2
:104B80000EC5059709F44EC50E94EA082091BC04A1
:104B90003091BD044091BE045091BF04621B730B61
:104BA000840B950B60367A4E8105910560F00E946A
:104BB000EA086093BC047093BD048093BE04909394
:104BC000BF040E9462078091730460E0811101C0FC
:104BD00062E080E194E00E94BE0C0E94EA0820910D
:104BE0006604309167044091680450916904621B27
:104BF000730B840B950B20916204309163044091F8
:104C0000640450916504261737074807590720F5B3
:104C10008EEA0E94CA160E947A1B0E9453178823AC
:104C2000D9F086E694E00E947A178FEA0E94CA16AD
:104C30001092700410926F040E94A9190E94EA0851
:104C400068517C4F8F4F9F4F6093C0047093C10495
:104C50008093C2049093C30462E370E080E090E02C
:104C60000E94300780E090E0892B09F453CE0E9427
:104C70006B09882309F44CCE0E94000046CE61E007
:104C8000809136040E94DA0661E0809137040E9428
:104C9000DA0680913604082E000C990BFC01E35AC9
:104CA000F54FE491F0E0EE0FFF1FE75BF54F259124
:104CB000349130933E0420933D04FC01EF58F54FAE
:104CC000E491E093430480913704082E000C990B83
:104CD000FC01E35AF54FE491F0E0EE0FFF1FE75BB4
:104CE000F54FA591B491B0934004A0933F04FC010B
:104CF000EF58F54FE491E09344048C91E82BEC934A
:104D000080912B0490912C04892B09F434C01FB797
:104D1000F89480915203811127C0E7E6FAE084916C
:104D2000EBE7FAE09491E82FF0E0EE0FFF1FE15C73
:104D3000F54FA591B491EC91E92321F461E08AE06B
:104D40000E94AC0661E08AE00E94DA068CB58061C0
:104D50008CBD8CB580648CBD61E08DE00E94DA066C
:104D600061E08BE00E94DA06809152038F5F8093AE
:104D700052031FBFE3CC61E0809134040E94DA0645
:104D800061E0809135040E94DA0680913404082E97
:104D9000000C990BFC01E35AF54FE491F0E0EE0FA3
:104DA000FF1FE75BF54F2591349130933A04209330
:104DB0003904FC01EF58F54FE491E09341048091F0
:104DC0003504082E000C990BFC01E35AF54FE491D1
:104DD000F0E0EE0FFF1FE75BF54FA591B491B093A4
:104DE0003C04A0933B04FC01EF58F54FE491E093A1
:104DF00042048C91E095E823EC93A0CC80912B04A5
:104E000090912C04892B31F080914E0490914F04A5
:104E10000E94BA0CE0913F04F0914004908180918F
:104E20004404809589238083BCCC8FECF3CC8036FE
:104E3000910569F48091160490911704409739F414
:104E400080913204813029F480E180934D0412E096
:104E5000E4CC8FEAFACFE0913F04F09140048081E6
:104E600090914404892B808312CD8430910509F4FC
:104E700067C108F449C1059709F09CCD8091BA0437
:104E800090E00796877099278093BA04682F617025
:104E900086958F5F0E94A91A8DCD80916D049091A7
:104EA0006E048230910509F443C18430910581F08C
:104EB0008130910509F07ECD9093700480936F044A
:104EC00080917504882309F48EC00E94CA1B72CD9C
:104ED0009093700480936F040E94F51761E172E073
:104EE000C8010E946A19509224045092250410921D
:104EF0001D0410921C0410921F0410921E04C8017D
:104F00000E942509C8010E94ED176DE172E0C801F9
:104F10000E946A19509224045092250410921D0494
:104F200010921C048AE090E090931F0480931E046A
:104F3000C8010E942509C8010E94ED176BE272E0CA
:104F4000C8010E946A1950922404509225041092BC
:104F50001D0410921C0470921F0460921E04C8016C
:104F60000E942509C8010E94ED170E94AF1522CDAD
:104F70008091920490917504992311F1813049F444
:104F800080917604882309F4A0CF81508093760421
:104F90009CCF823049F480917704882309F495CF1F
:104FA00081508093770491CF833009F08ECF809128
:104FB0007804882309F489CF81508093780485CFC1
:104FC0008130C1F480917A0490918304981718F489
:104FD000815080937A0480917A04833039F410925E
:104FE0007B04509284040E948C1CE4CC89E0809362
:104FF0008404F9CF823051F480917B049091850430
:10500000981788F7815080937B04EDCF8330A9F403
:1050100080917C0490918604981718F481508093B5
:105020007C0480917C04813031F480937D0482E0A3
:1050300080938904D8CF89E0FBCF843051F48091EC
:105040007D0490918804981770F6815080937D04B8
:10505000CACF8530A9F480917E0490918A04981774
:1050600018F4815080937E0480917E04823009F090
:10507000BACF10927F041092800410928104B3CFB3
:10508000863059F480917F0490918C04981708F031
:10509000AACF815080937F04A6CF873059F48091A6
:1050A000800490918E04981708F09DCF81508093D2
:1050B000800499CF883009F096CF80918104909137
:1050C0009004981708F08FCF8150809381048BCF84
:1050D0008091710481110CC0609173046525609307
:1050E00073048EE190E00E942A1E0E94F41962CCA3
:1050F000813009F05FCC83E090E09093700480935E
:105100006F040E944C1A56CC80917204811115C014
:1051100050927504609174048AE090E00E942A1E07
:105120006091750484E190E00E942A1E82E090E084
:105130009093700480936F04D8CF10927504EACFD7
:105140001092700410926F040E94A91933CC84301D
:10515000910509F48EC008F491C0059709F0B6CC0A
:1051600021E030E03093700420936F048091750447
:10517000882309F47BC00E94CA1BA8CC85E08093D9
:105180007604809377048093780450927904509247
:10519000920450927A0480937B0410927C04809352
:1051A0007D0450927E0499E090937F048093800464
:1051B00080938104E3EAF4E083EB94E010821182AF
:1051C0001282138234968E179F07C1F75092B4044F
:1051D0001092B5041092B6041092B7041092B8045D
:1051E0001092B9041092BA040E94F5176AE372E0B3
:1051F000C8010E946A1982E08093240480932504E8
:1052000010921D0410921C0490921F0480921E04A0
:10521000C8010E942509C8010E94ED170E94AF1520
:1052200068EE73E080E090E00E9430070E94A919C8
:105230004DCC80919204813051F410927004109200
:105240006F040E94A91985E0809376043FCC8150B9
:1052500090917504992341F0909179049150909325
:1052600079048093920487CF809392040E948C1CCF
:105270002DCC1092700410926F04D8CF82E090E091
:105280009093700480936F040E94F4191FCC8430B3
:10529000910509F4F6C0E0F1059709F035CC80914D
:1052A000BA0490E00196877099278093BA04682F1A
:1052B000617086958F5F0E94A91A26CC80916D043B
:1052C00090916E048130910539F482E090E09093E2
:1052D0006E0480936D0409C08230910549F444E066
:1052E00050E050936E0440936D040E94A9190CCCB9
:1052F0000497D9F781E090E0EACF8091710490E0C3
:10530000019681709927809371040E94F419FCCB57
:105310008091720490E001968170992780937204C5
:105320000E944C1AF1CB80919204909175049923BC
:1053300001F1813051F480917604893018F48F5F47
:10534000809376040E94CA1BDFCB823041F48091A7
:1053500077048930B8F78F5F80937704F3CF833079
:1053600089F780917804893068F78F5F809378049B
:10537000E9CF8130C1F480917A0490918204891739
:1053800018F48F5F80937A0480917A04833039F423
:1053900010927B04509284040E948C1CB5CB89E04F
:1053A00080938404F9CF823051F480917B049091F2
:1053B0008404891788F78F5F80937B04EDCF833057
:1053C000A9F480917C0490918704891718F48F5F69
:1053D00080937C0480917C04813031F480937D043F
:1053E00082E080938904D8CF89E0FBCF843051F4E8
:1053F00080917D0490918904891770F68F5F809366
:105400007D04CACF8530A9F480917E0490918B04ED
:10541000891718F48F5F80937E0480917E04823018
:1054200009F0BACF10927F04109280041092810488
:10543000B3CF863059F480917F0490918D04891701
:1054400008F0AACF8F5F80937F04A6CF873059F4EE
:105450008091800490918F04891708F09DCF8F5F11
:105460008093800499CF883009F096CF8091810491
:1054700090919104891708F08FCF8F5F80938104FA
:105480008BCF1092700410926F042FCF20917A046A
:105490009AE080917B04299F800D112420917C0447
:1054A000E0917D04299FE00D112420917E0430912C
:1054B0007F04299F300D11244091800420918104A4
:1054C000499F200D1124F4E63F9F200D112430E068
:1054D000E33010F421503109F0E0E95EFE4FE08145
:1054E000E80FFF27FF1FE20FF31FB90176956795BD
:1054F00076956795E60FF71FC90160E971E00E9494
:105500004D30E60FF71FC90164E670E00E944D3090
:10551000CF01861B970B67E070E00E944D305C0165
:105520008EE0EAE0F1E0D80101900D928A95E1F772
:105530000E94F517AA0CBB1CF801EA0DFB1D608147
:105540007181CE0189960E946A1982E080932404B9
:105550008093250410921D0410921C0490921F0445
:1055600080921E04CE0189960E942509CE0189965B
:105570000E94ED170E94AF1568EB7BE080E090E0A1
:105580000E9430070E94850560E081E00E94A91A10
:1055900025E030E03093700420936F04DACA8EEA7D
:1055A0000E94CA160E947A1B0E945317882309F48E
:1055B000EBCA86E694E00E947A178FEA0E94CA1628
:1055C0001092700410926F040E94A9190E94EA08B8
:1055D00068517C4F8F4F9F4F6093C0047093C104FC
:1055E0008093C2049093C304CFCA8091750488232A
:1055F00079F080917904833040F48F5F809379044F
:10560000809192048F5F809392040E94CA1BBCCA4F
:1056100080919204883019F08F5F809392040E94E9
:105620008C1CB2CA8091B704833008F11092B70481
:105630008091B404882361F08091B5048F5F8093DA
:10564000B5048430A0F01092B4041092B6040FC0D8
:105650008091B804811190C08091B6048F5F8093CF
:10566000B604843020F05092B8041092B9040E941D
:10567000F5178091B80481114DC19091B7048091C4
:10568000B404882309F4C6C0E091B504F0E0E559FC
:10569000FB4F80AD34AD911189C0982F930F943694
:1056A00008F079C01F929F931F923F931F928F9390
:1056B000DF92CF921F930F930E9465320FB6F8943A
:1056C000DEBF0FBECDBF61E572E0CE0189960E94BC
:1056D0006A19509224045092250410921D041092CD
:1056E0001C0410921F0410921E04CE0189960E9481
:1056F0002509CE0189960E94ED176091B50470E0EE
:105700006F5F7F4FCE0189960E943E19509224040C
:105710005092250470921D0460921C0410921F0484
:1057200010921E04CE0189960E942509CE01899609
:105730000E94ED17B801CE0189960E946A1982E095
:10574000809324048093250410921D0410921C045D
:1057500090921F0480921E04CE0189960E94250912
:10576000CE0189960E94ED170E94AF158091B70473
:105770008F5F8093B70408CA8091B9048F5F8093CC
:10578000B904823008F473CF1092B8045092B40474
:105790001092B5045ACF1F929F931F923F93FF928E
:1057A000EF921F930F930E94653288CFDF01A05CB8
:1057B000BF4F2C91913099F4982F930F920F9436FC
:1057C00048F41F929F931F922F93830F9927991F3D
:1057D0009F936DCF1F929F931F922F93E0CF923094
:1057E00009F071CFEC5BFF4F4081982F930F920F20
:1057F000940F943650F41F929F931F924F93830FF0
:105800009927991F820F911DE3CF1F929F931F929B
:105810004F93C5CFE091B604F0E0DF01AA0FBB1FA4
:10582000AA0FBB1FAD55BB4F8C91EE0FFF1FEE0FA4
:10583000FF1FE559FB4F31AD91113DC0982F930FDC
:10584000943670F51F929F931F923F931F928F93F0
:10585000DF92CF921F930F930E9465320FB6F89498
:10586000DEBF0FBECDBF66E572E0CE0189960E9415
:105870006A19509224045092250410921D0410922B
:105880001C0410921F0410921E04CE0189960E94DF
:105890002509CE0189960E94ED176091B6042FCF9D
:1058A0001F929F931F923F93FF92EF921F930F932C
:1058B0000E946532D3CF22AD913099F4982F930F87
:1058C000920F943648F41F929F931F922F93830F49
:1058D0009927991F9F93BBCF1F929F931F922F933E
:1058E000E3CF923009F0BFCF43AD982F930F920FC3
:1058F000940F943650F41F929F931F924F93830FEF
:105900009927991F820F911DE5CF1F929F931F9298
:105910004F93CACF8091B904811139C0B090A304CC
:105920004090A804A090AD043090B2046BE572E002
:10593000C8010E946A1950922404509225041092C2
:105940001D0410921C0410921F0410921E04C80122
:105950000E942509C8010E94ED178091B7048111AA
:105960002CC08B2D840D8436E8F41F928F931F92E8
:105970004F921F92BF92DF92CF921F930F930E947C
:1059800065320FB6F894DEBF0FBECDBFD3CEB09058
:10599000A6044090A904A090AC043090AF0462E645
:1059A00072E0C6CF1F928F931F924F92FF92EF9299
:1059B0001F930F930E946532E4CF8130B1F48B2D99
:1059C000840D8A0D843660F41F928F931F92AF92DC
:1059D000EB2DE40DFF27FF1FCF019F93EF93CBCF5C
:1059E0001F928F931F92AF92E1CF823009F0A2CE27
:1059F0008B2D840D8A0D830D843670F41F928F9346
:105A00001F923F92EB2DE40DFF27FF1FAE0EBF2E1E
:105A1000B11CBF92AF92AFCF1F928F931F923F9254
:105A2000C5CF83E591E09093110480931004809199
:105A30002F0490913004009711F00E94033180915F
:105A4000D1049091D2040E9403318091D3049091AB
:105A5000D4040E9403318091C8049091C9040E942B
:105A600003318091CA049091CB040C940331BB277D
:105A70004A3031F4992322F4BDE2909581959F4FED
:105A80000C94432DBB27FB015527AA27880F991F8C
:105A9000AA1FA41710F0A41B83955051B9F7A05D5D
:105AA000AA3308F0A95DA193009779F7B111B193DA
:105AB0001192CB010C945C2DDC01FC01672F7191DC
:105AC0007723E1F7329704C07C916D9370836291E4
:105AD000AE17BF07C8F308950E94AE2D08F481E009
