:100000000C9486050C9466290C943F290C94AE053B
:100010000C94AE050C94AE050C94E5290C94AE0539
:100020000C94AE050C94AE050C94AE050C94AE0584
:100030000C94AE050C94AE050C94AE050C94AE0574
:100040000C94F5280C94AE050C94B3290C948D29CE
:100050000C94AE050C94AE050C94AE050C94AE0554
:100060000C94FC290C94AE0500000000003E5B4F90
:100070005B3E3E6B4F6B3E1C3E7C3E1C183C7E3C08
:10008000181C577D571C1C5E7F5E1C00183C180016
:10009000FFE7C3E7FF0018241800FFE7DBE7FF30A6
:1000A000483A060E2629792926407F050507407F14
:1000B00005253F5A3CE73C5A7F3E1C1C08081C1C87
:1000C0003E7F14227F22145F5F005F5F06097F017D
:1000D0007F006689956A606060606094A2FFA29468
:1000E00008047E040810207E201008082A1C080836
:1000F0001C2A08081E101010100C1E0C1E0C303884
:100100003E3830060E3E0E06000000000000005F84
:1001100000000007000700147F147F14242A7F2AA0
:100120001223130864623649562050000807030062
:10013000001C2241000041221C002A1C7F1C2A08AE
:10014000083E080800807030000808080808000011
:1001500060600020100804023E5149453E00427F85
:10016000400072494949462141494D331814127FD4
:100170001027454545393C4A494931412111090774
:100180003649494936464949291E000014000000F5
:1001900040340000000814224114141414140041C7
:1001A00022140802015909063E415D594E7C121184
:1001B000127C7F494949363E414141227F414141BC
:1001C0003E7F494949417F090909013E4141517337
:1001D0007F0808087F00417F41002040413F017FA8
:1001E000081422417F404040407F021C027F7F0470
:1001F00008107F3E4141413E7F090909063E4151B9
:10020000215E7F09192946264949493203017F01A8
:10021000033F4040403F1F2040201F3F4038403FA9
:10022000631408146303047804036159494D4300BF
:100230007F4141410204081020004141417F0402F6
:10024000010204404040404000030708002054548D
:1002500078407F284444383844444428384444286B
:100260007F385454541800087E090218A4A49C78BE
:100270007F0804047800447D40002040403D007F1A
:100280001028440000417F40007C047804787C08FA
:100290000404783844444438FC18242418182424CE
:1002A00018FC7C08040408485454542404043F44B3
:1002B000243C4040207C1C2040201C3C4030403CE2
:1002C00044281028444C9090907C4464544C440042
:1002D00008364100000077000000413608000201A6
:1002E0000204023C2623263C1EA1A161123A404092
:1002F000207A38545455592155557941225454780F
:1003000042215554784020545579400C1E527212A7
:100310003955555559395454545939555454580030
:1003200000457C410002457D420001457C407D1234
:1003300011127DF0282528F07C5455450020545496
:100340007C547C0A097F4932494949323A44444441
:100350003A324A4848303A4141217A3A424020787C
:10036000009DA0A07D3D4242423D3D4040403D3C7D
:1003700024FF2424487E4943662B2FFC2F2BFF09A2
:1003800029F620C0887E0903205454794100004496
:100390007D413048484A32384040227A007A0A0A81
:1003A000727D0D19317D2629292F282629292926F4
:1003B00030484D4020380808080808080808382F39
:1003C00010C8ACBA2F102834FA00007B00000814C3
:1003D0002A142222142A14085500550055AA55AA99
:1003E00055AAFF55FF55FF000000FF00101010FF39
:1003F00000141414FF001010FF00FF1010F010F094
:10040000141414FC001414F700FF0000FF00FF1484
:1004100014F404FC141417101F10101F101F1414D0
:10042000141F00101010F0000000001F101010101A
:100430001F10101010F010000000FF10101010100E
:1004400010101010FF10000000FF140000FF00FF4C
:1004500000001F10170000FC04F4141417101714E8
:1004600014F404F40000FF00F7141414141414140A
:10047000F700F7141414171410101F101F1414147D
:10048000F4141010F010F000001F101F0000001FE7
:1004900014000000FC140000F010F01010FF10FF1A
:1004A000141414FF141010101F00000000F010FFAF
:1004B000FFFFFFFFF0F0F0F0F0FFFFFF0000000093
:1004C00000FFFF0F0F0F0F0F3844443844FC4A4A17
:1004D0004A347E02020606027E027E0263554941CC
:1004E000633844443C04407E201E2006027E020203
:1004F00099A5E7A5991C2A492A1C4C7201724C3017
:100500004A4D4D303048784830BC625A463D3E49ED
:100510004949007E0101017E2A2A2A2A2A44445F91
:10052000444440514A444040444A51400000FF0185
:1005300003E080FF000008086B6B08361236243693
:10054000060F090F060000181800000010100030F8
:1005500040FF0101001F01011E00191D1712003C80
:100560003C3C3C00000000002200FF210000010391
:10057000070F1F3F7F0080C0E0F0F8FCFEDB40A4C7
:10058000A62EAF2000A1C8D300408DAED580A80014
:1005900000600000000000000000000000000000FB
:1005A000E00000000000000000000000000001E08A
:1005B0000000000000000000000000000001F0004A
:1005C00000000000000000000000000003F0000038
:1005D000000000000000000000000007F000000024
:1005E0000000000000000000000007F8000000000C
:1005F0000000000000000000000FF800000003C031
:10060000007E000001E0007F0FF800000003C00042
:10061000FE000001E000FFEFF800000003C000FE54
:10062000000001E000FFFFF800000003C000F00040
:1006300000000F007FFE7FC0000003C000F000003C
:10064000000F003FFE7FF83FF1FBCFFCFEF3BC3D07
:10065000EFE01FFE7FFF7FFBFFDFFEFEFFBC3DEFF5
:10066000E01FC6FFFF7FFBFFDFFEFEFFBC3DEFE0AC
:100670000FE3C7FE787BC3DE1EF0FFBC3DEF000733
:10068000FF87FC787BC3DE1EF0F83C3DEF0001FFE6
:10069000FFF0007BC3C01EF0F03C3DEF0001F37F94
:1006A000E03FFBC3CFFEF0F03C3DEF0003E33F80B3
:1006B0007FFBC3DFFEF0F03C3DEF0007E73C007836
:1006C0007BC3DE1EF0F03C3DEF0007FFBE00787BF1
:1006D000C3DE1EF0F03C3DEF0007FFFE00787BC359
:1006E000DE1EF0F03C3DEF000FFFFE007FFBFFDF62
:1006F000FEF0F03FFDEFE00FFFFF007FFBFFDFFEAE
:10070000F0F03FFDEFE00FF9FF003E79F9CF9EF0EA
:10071000F01F3DE7E01FF1FF0000000000000000B7
:10072000000000001F80FF007FFFFFFFFFFFFFFFB3
:10073000FFFFE01C007F007FFFFFFFFEB46D888D90
:1007400018E000001F007FFFFFFFFE95AD7DB5772D
:10075000E000000F007FFFFFFFFEA5AD9D8D19E0BB
:10076000000006007FFFFFFFFEB5ADEDB57EE000A7
:1007700000000000018000000000000000000003F5
:100780008000000000000000000007C00000000022
:10079000000000000007C000000000000000000092
:1007A0000FC00000000000000000001FE00000007B
:1007B0000000000000001FE000000000000000003A
:1007C000003FE00000000000000000003FF00000DB
:1007D000000000000000007FF000000000000000AA
:1007E0001FF87FF0000000000000003FFE7FF000D7
:1007F0000000000000003FFF7FF00000000000004C
:10080000001FFFFBE0000000000000000FFFF9FFE9
:10081000C00000000000000FFFF9FFF8000000001A
:10082000000007FFF1FFFF00000000000003FC7361
:10083000FFFF80000000000001FE3FFFFF8000007E
:1008400000000000FF1E0FFF000000000000007FFE
:10085000FE1FFC000000000000003FFFFFF800004A
:1008600000000000000FDFFFE000000000000000BB
:100870001F19FFC0000000000000003F3CFF000007
:100880000000000000007E7CF80000000000000076
:10089000007FFE7C0000000000000000FFFFFC0065
:1008A00000000000000000FFFFFE0000000000004C
:1008B0000000FFFFFE0000000000000001FFEFFE4F
:1008C0000000000000000001FFCFFE00000000005B
:1008D000000003FF07FE0000000000000003FC070B
:1008E000FE0000000000000003F003FE0000000016
:1008F000000000018000FE00000000000000000079
:10090000007E000000000000000000003E0000002B
:10091000000000000000000C000000000000078044
:1009200000FC000003C0000000078001FC00000381
:10093000C0000000078001FC000003C000000007A9
:100940008001E00000001E000000078001E00000C0
:10095000001E007FE3F79FF9FDE7787BDFC0FFF71C
:10096000FFBFFDFDFF787BDFC0FFF7FFBFFDFDFF91
:10097000787BDFC0F0F787BC3DE1FF787BDE00F0DD
:10098000F787BC3DE1F0787BDE0000F787803DE132
:10099000E0787BDE007FF7879FFDE1E0787BDE007B
:1009A000FFF787BFFDE1E0787BDE00F0F787BC3D15
:1009B000E1E0787BDE00F0F787BC3DE1E0787BDEAC
:1009C00000F0F787BC3DE1E0787BDE00FFF7FFBF7A
:1009D000FDE1E07FFBDFC0FFF7FFBFFDE1E07FFB54
:1009E000DFC07CF3F39F3DE1E03E7BCFC000000021
:1009F0000000000000000000FFFFFFFFFFFFFFFFFF
:100A0000FFFFC0FFFFFFFFFD68DB111A31C0FFFFD2
:100A1000FFFFFD2B5AFB6AEFC0FFFFFFFFFD4B5BA3
:100A20003B1A33C0FFFFFFFFFD6B5BDB6AFDC0536A
:100A300053443133303620626567696E20666169E0
:100A40006C656400446973706C617920696E6974C7
:100A500069616C697A6174696F6E206661696C6541
:100A6000642E205265747279696E672E2E2E0000F6
:100A7000000000240027002A0000000000250028B4
:100A8000002B0000000000230026002900040404BD
:100A90000404040404020202020202030303030327
:100AA0000301020408102040800102040810200104
:100AB00002040810200000000800020100000304E6
:100AC0000700000000000000002D2D2D2D2D2D2DE4
:100AD0002D2D2D2D2D2D2D2D2D2D2D2D2D2D2D0073
:100AE0002D2D2D2D204D6167696320537175617225
:100AF00065202D2D2D2D0009060310040F0A050E6B
:100B000001080B070C0D0200322B7B3011241FBE95
:100B1000CFEFD8E0DEBFCDBF12E0A0E0B1E0E8E467
:100B2000F1E702C005900D92A83CB107D9F725E086
:100B3000A8ECB2E001C01D92A431B207E1F715E0C4
:100B4000C5E8D5E004C02197FE010E94F233C43805
:100B5000D107C9F70E94132D0C9497380C9400000C
:100B6000089508950895833081F028F4813099F034
:100B70008230A9F008958730A9F08830C9F0843018
:100B8000B1F4809180008F7D03C0809180008F77C9
:100B900080938000089584B58F7784BD089584B5CF
:100BA0008F7DFBCF8091B0008F778093B000089548
:100BB0008091B0008F7DF9CFCF93DF93282F30E065
:100BC000F901EB54F54F8491F901EF55F54FD491AC
:100BD000F901E357F54FC491CC23A1F081110E9494
:100BE000B305EC2FF0E0EE0FFF1FED57F54FA59189
:100BF000B491EC91ED2381E090E009F480E0DF9185
:100C0000CF91089580E090E0FACF1F93CF93DF93C8
:100C1000282F30E0F901EB54F54F8491F901EF559D
:100C2000F54FD491F901E357F54FC491CC23A9F0C6
:100C3000162F81110E94B305EC2FF0E0EE0FFF1F7D
:100C4000E758F54FA591B4918FB7F894EC91111135
:100C500008C0D095DE23DC938FBFDF91CF911F9129
:100C60000895DE2BF8CFCF93DF9390E0FC01EF5592
:100C7000F54F24918357954FFC0184918823D1F03F
:100C800090E0880F991FFC01E159F54FA591B491AF
:100C9000FC01E758F54FC591D491623071F49FB7CC
:100CA000F8943C91822F809583238C93E8812E2B9E
:100CB00028839FBFDF91CF9108958FB7F894EC916F
:100CC0002E2B2C938FBFF6CF3FB7F89480918803DB
:100CD00090918903A0918A03B0918B0326B5A89BBC
:100CE00005C02F3F19F00196A11DB11D3FBFBA2FBE
:100CF000A92F982F8827BC01CD01620F711D811D7E
:100D0000911D42E0660F771F881F991F4A95D1F702
:100D100008958F929F92AF92BF92CF92DF92EF92FF
:100D2000FF924B015C010E9464066B017C010E94F2
:100D300064066C197D098E099F09683E7340810520
:100D40009105A8F321E0821A9108A108B10888EE64
:100D5000C80E83E0D81EE11CF11C81149104A1048B
:100D6000B10429F7FF90EF90DF90CF90BF90AF9044
:100D70009F908F9008952FB7F8946091840370919D
:100D8000850380918603909187032FBF0895CF92AA
:100D9000DF92EF92FF920E94BB066B017C010E94E2
:100DA000BB066C197D098E099F09683B7B40810554
:100DB000910560F482E00E94DC05019769F06AE029
:100DC00070E080E090E00E948906E9CF81E0FF902A
:100DD000EF90DF90CF90089580E0F9CF08950895C7
:100DE000DC01ED91FC910190F081E02D0994DB0193
:100DF00014964D915C9115976D917C91DC01ED916C
:100E0000FC910280F381E02D0994AF92BF92CF92C2
:100E1000DF92EF92FF920F931F93CF93DF936C01BA
:100E20007B018B01040F151FEB015E01AE18BF089B
:100E3000C017D10759F06991D601ED91FC9101904D
:100E4000F081E02DC6010995892B79F7C501DF9165
:100E5000CF911F910F91FF90EF90DF90CF90BF90B7
:100E6000AF900895FC01538D448D252F30E0842FE1
:100E700090E0821B930B541710F0CF9608950197C2
:100E80000895FC01918D828D981761F0A28DAE0FAF
:100E9000BF2FB11D5D968C91928D9F5F9F73928F36
:100EA00090E008958FEF9FEF0895FC01918D828D62
:100EB000981731F0828DE80FF11D858D90E008952F
:100EC0008FEF9FEF0895FC01918D228D892F90E087
:100ED000805C9F4F821B91098F73992708958DE83D
:100EE00093E00E94630721E0892B09F420E0822F20
:100EF000089580E090E0892B29F00E946F0781110E
:100F00000C9400000895FC01A48DA80FB92FB11D09
:100F1000A35ABF4F2C91848D90E001968F7399272F
:100F2000848FA689B7892C93A089B1898C9183700D
:100F300080648C93938D848D981306C00288F38906
:100F4000E02D80818F7D80830895EF92FF920F9333
:100F50001F93CF93DF93EC0181E0888F9B8D8C8D65
:100F600098131AC0E889F989808185FF15C09FB759
:100F7000F894EE89FF896083E889F989808183701C
:100F8000806480839FBF81E090E0DF91CF911F91CB
:100F90000F91FF90EF900895F62E0B8D10E00F5FEC
:100FA0001F4F0F731127E02E8C8D8E110CC00FB6C2
:100FB00007FCFACFE889F989808185FFF5CFCE015A
:100FC0000E948307F1CFEB8DEC0FFD2FF11DE35A4B
:100FD000FF4FF0829FB7F8940B8FEA89FB898081DD
:100FE0008062CFCFCF93DF93EC01888D8823B9F057
:100FF000AA89BB89E889F9898C9185FD03C0808124
:1010000086FD0DC00FB607FCF7CF8C9185FFF2CFA0
:10101000808185FFEDCFCE010E948307E9CFDF916C
:10102000CF9108954115510529F4EAE7F0E0808158
:101030008F7780836A307105B9F0CB01880F991FD3
:10104000880F991F807267706860682B88E10FB6FF
:10105000F894A895809360000FBE60936000E0E66E
:10106000F0E0808180648083232BD9F483B7817F73
:10107000846083BFF89483B7816083BF85B780663F
:1010800085BF8F7D85BF7894889583B78E7F83BF1A
:101090007894452B29F4EAE7F0E08081806880832A
:1010A000089583B7817F846083BFF89483B781609C
:1010B00083BF7894889583B78E7F83BF7894E9CF78
:1010C0002F923F924F925F926F927F928F929F9258
:1010D000AF92BF92CF92DF92EF92FF920F931F9346
:1010E000CF93DF9300D01F92CDB7DEB79B838A8367
:1010F000DC018C9181119DC0EE24E394F12C10E071
:1011000000E0EA81FB81A680B780C480D58082811F
:101110008E151F0409F008F488C045018E0C9F1C31
:10112000D401BC91B98344E0B49FF0011124EC0DCB
:10113000FD1D4080518062807380D501EC91B4E048
:10114000EB9FF0011124EC0DFD1D208131814281C6
:101150005381C301B2010E94D73018160CF05CC055
:10116000EA81FB818085811130C0570185010150E2
:101170001109D401EE914D01B4E0EB9FF00111246F
:10118000EC0DFD1D2081318142815381C301B201EB
:101190000E94D73087FD02C0850104C058010115A7
:1011A000110521F7C701AA81BB8116962D913C91AB
:1011B000F901E80FF91F0817190788F50197280F9B
:1011C000391FD9012C912083EECF813059F7870147
:1011D000312C212CC80182199309029718F3480178
:1011E000820C931C96948794F501E80DF91DE0811B
:1011F00044E0E49FF0011124EC0DFD1D20813181BC
:1012000042815381C301B2010E94D73087FD02C0E1
:101210001401E0CF8401DECF10E000E0C3CFB9813C
:10122000B083EFEFEE1AFE0A6CCF81E0AA81BB819A
:101230008C93EA81FB81228104811581468157814B
:10124000E22FE695E40FF52FF11DA08144E0A49F65
:10125000D0011124A00FB11F6D917D918D919C91B2
:1012600020FD15C031972081A4E02A9F9001112410
:10127000F801E20FF31F20813181428153810E94E6
:10128000AC3220E030E040E05FE30E943D310F905F
:101290000F900F90DF91CF911F910F91FF90EF90E2
:1012A000DF90CF90BF90AF909F908F907F906F9086
:1012B0005F904F903F902F900895CF93DF93FC0164
:1012C000248135819381A1E0A90FA383B4E09B9F82
:1012D000C0011124820F931FEC01488359836A8354
:1012E0007B839181A91708F013828281891710F4FA
:1012F0008F5F82831082DF91CF910895FC0112826B
:101300001382108290E08181981738F4A681B7810A
:10131000A90FB11D9C939F5FF6CF0895EF92FF92A6
:101320000F931F93CF93DF93EC01EC80FD806E153C
:101330007F050CF070C057FF04C0240F351F50E02C
:1013400040E08E819F81FA01E20FF31F8E179F0705
:101350001CF49C01241B350B121613060CF05BC009
:10136000922F842F8695869586958E9DD0018F9D90
:10137000B00D11246A0F7B1FAF8DB8A1A60FB71F48
:10138000477049F188E0841B482F682F70E0FB010B
:10139000EB58FA4FE491281708F063C0621B7109FB
:1013A0002FEF30E002C0359527956A95E2F7E223EA
:1013B0000130110539F0B0F10230110561F58C9161
:1013C000E82702C08C91E82BEC93941720F12C8134
:1013D0003D81A20FB31FE92FE41BE83078F0023003
:1013E000110521F58E2F9C9190959C932C813D8128
:1013F000A20FB31F88508830B0F7E770EE2359F082
:10140000F0E0E359FA4FE49101301105F9F010F1E1
:101410000230110519F1DF91CF911F910F91FF90CB
:10142000EF900895E0958C91E823CECF81E00115EF
:10143000110509F480E081959E2F8C932C813D81CC
:10144000A20FB31F98509830C0F7D7CF8C91E82BDC
:10145000EC93E1CFE0958C91E823FACF8C91E827CB
:10146000F7CF0130110509F4ADCFE0F202301105DC
:1014700009F4A5CFAE0DBF1DAECF0F931F93CF9331
:10148000DF9377FF04C0260F371F70E060E0DC01B8
:101490001496CD91DC91FB01E20FF31FCE17DF070D
:1014A0001CF49E01261B370B121613064CF5FA018D
:1014B00057FD3796A3E0F595E795AA95E1F7EC9FE0
:1014C000D001ED9FB00DFC9FB00D11246A0F7B1F62
:1014D000DC015F96ED91FC91E60FF71F47705527F1
:1014E00081E090E001C0880F4A95EAF7482F01306B
:1014F000110559F0A8F02E0F3F1F02301105E1F041
:10150000DF91CF911F910F9108952E0F3F1FE2178A
:10151000F307B1F38191DF011197842B8C93F7CFFF
:1015200080952E0F3F1FE217F30751F39191DF01D2
:10153000119798239C93F7CFE217F30709F3819152
:10154000DF01119784278C93F7CF0F931F93FA0134
:10155000DC0156964C9156974230E9F04330A1F1A8
:10156000413061F514964D915C91DA01AE1BBF0BD1
:10157000FD01E21BF30B77FD0BC0DC0116964D91CC
:101580005C916417750724F4AB01BF010E943D0A0A
:101590001F910F91089514964D915C91DA01A61B4D
:1015A000B70BBD0161507109DC0116964D915C913C
:1015B000DA01AE1BBF0BFD01E21BF30B77FDE8CF99
:1015C000AF010E948E09E4CF16964D915C91DA012D
:1015D000A61BB70BBD0161507109CDCF0F931F93AF
:1015E000FA01DC0156964C9156974230A9F04330EF
:1015F00091F1413019F514964D915C91DA01AE1BD1
:10160000BF0BFD013197F7FD04C0AB01BF010E9484
:101610008E091F910F91089514964D915C91DA01F6
:10162000A61BB70BBD01DC0116964D915C91DA014A
:10163000AE1BBF0BFD013197621B730BF7FDE9CFAA
:10164000DC0116964D915C91E417F50714F7AF0194
:101650000E943D0ADECF16964D915C91DA01A61BE1
:10166000B70BBD01621B730BCECFFC0177FD64C0CD
:1016700080859185681779070CF05EC057FD5CC0C6
:1016800082859385481759070CF056C086898230A9
:10169000B1F0833029F1813041F484819581841B3C
:1016A000950BAB01BC01615071092130310509F185
:1016B00008F443C02230310509F463C008958481E1
:1016C0009581DC01A61BB70BBD01615071098681B4
:1016D0009781DC01A41BB50BAD0141505109E5CF49
:1016E00086819781861B970BBA01AC014150510945
:1016F000DCCFCA0157FD0796A3E095958795AA957B
:10170000E1F7A481B5818A9F90018B9F300D9A9F4C
:10171000300D1124620F731F078CF0A1E02DE60F2E
:10172000F71F4770552721E030E001C0220F4A958E
:10173000EAF78081822B80830895CA0157FD0796BE
:1017400033E0959587953A95E1F7A481B5818A9F15
:1017500090018B9F300D9A9F300D1124620F731FE3
:10176000078CF0A1E02DE60FF71F4770552781E0A9
:1017700090E001C0880F4A95EAF78095908189230F
:10178000DACFCA0157FD079623E0959587952A95EC
:10179000E1F7A481B5818A9F90018B9F300D9A9FBC
:1017A000300D1124620F731F078CF0A1E02DE60F9E
:1017B000F71F4770552721E030E001C0220F4A95FE
:1017C000EAF780818227B7CF20912E03260F332797
:1017D000331F21323105ECF420915203FC0190E0DB
:1017E00080E0243069F082E00895A0912E032191D9
:1017F000AC01425F5C4FA40FB52FB11D2C93019635
:10180000861798F380912E03680F60932E0380E073
:10181000089581E008959B01AC0160E074E284EFDB
:1018200090E00E947A3220513109410951095695C0
:101830004795379527952093B80008951092520345
:1018400081E0809354031092530361E082E10E948F
:10185000050661E083E10E940506E9EBF0E0808186
:101860008E7F808380818D7F808388E48093B80021
:1018700085E48093BC000895CF93DF9391E090932B
:101880000D038823B9F0C091B800D091BA008091BF
:10189000BC008A7B8093BC0060E082E10E94050668
:1018A00060E083E10E9405060E941E0CD093BA00FE
:1018B000C093B800DF91CF910895E09182038091A9
:1018C0008103E81730F4F0E0E851FD4F808190E0AB
:1018D00008958FEF9FEF0895909182038091810387
:1018E0002FEF3FEF981748F4E92FF0E0E851FD4F54
:1018F000208130E09F5F90938203C9010895809119
:10190000810390918203891B990B0895CF92DF92F6
:10191000EF92FF920F931F93CF93DF937C01CB0144
:101920008A0120917903222389F0EB016B01C40E17
:10193000D51ECC15DD0569F06991D701ED91FC91BB
:101940000190F081E02DC7010995F3CF642F0E942B
:10195000E40BC801DF91CF911F910F91FF90EF90A1
:10196000DF90CF900895CF93DF931F92CDB7DEB76E
:101970006983209179032223F9F020917F0320329B
:1019800058F021E030E0FC013383228390E080E0D6
:101990000F90DF91CF91089580918003E82FF0E0C0
:1019A000E853FD4F998190838F5F809380038093EC
:1019B0007F0381E090E0ECCF61E0CE0101960E94D0
:1019C000E40BF7CFCF92DF92EF92FF920F931F932A
:1019D000CF93DF93D0917F0381E0D13208F09CC098
:1019E000C09178030E9464066B017C0180915203D0
:1019F00081116CC082E08093520381E08093540394
:101A00008FEF8093510310927603D0937503A8EC67
:101A1000B2E0E5E5F3E080E0D8138DC010927703E3
:101A200080917703CC0FC82BC09377038091530329
:101A3000813009F084C0109253030E9464066B0148
:101A40007C01809177038093BB0080910903909182
:101A50000A03A0910B03B0910C03892B8A2B8B2BCB
:101A6000A1F00E9464060091090310910A032091DD
:101A70000B0330910C036C197D098E099F09061721
:101A800017072807390708F442C08091BC0083FD7E
:101A9000D8CF85EC8093BC000E9464066B017C016A
:101AA00080915203823009F44CC0809151038F3FE2
:101AB00009F469C080915103803209F466C08091B5
:101AC0005103803309F463C084E026C08091090388
:101AD00090910A03A0910B03B0910C03892B8A2BE0
:101AE0008B2B09F483CF0E946406009109031091A7
:101AF0000A0320910B0330910C036C197D098E09A8
:101B00009F09061717072807390708F06FCF80913C
:101B100008030E943C0C85E01092800310927F0322
:101B200010927903DF91CF911F910F91FF90EF9069
:101B3000DF90CF9008959D9191938F5F6DCF85EE4B
:101B4000A9CF8091090390910A03A0910B03B09152
:101B50000C03892B8A2B8B2B09F4A2CF0E946406DD
:101B60000091090310910A0320910B0330910C039B
:101B70006C197D098E099F09061717072807390771
:101B800008F08ECFC4CF80E0C7CF82E0C5CF83E01E
:101B9000C3CF08958EBD00000DB407FEFDCF8EB5F6
:101BA0000895CF92DF92EF92FF920F931F93CF93FE
:101BB000DF93EC016B01142F8D8D9E8D009709F43E
:101BC00054C029A131E03093790320937803109217
:101BD000800310927F03DC01ED91FC910190F08174
:101BE000E02D60E009957601CC24C394D12C01E06E
:101BF00011508D8D9E8D1F3F71F1B0E2CB16D10437
:101C0000C0F00E94E20C8D8D9E8D29A10093790376
:101C1000209378031092800310927F03DC01ED91F2
:101C2000FC910190F081E02D60E00995CC24C394F3
:101C3000D12C8D8D9E8DF7016491DC01ED91FC918D
:101C40000190F081E02D0995BFEFCB1ADB0AEFEF91
:101C5000EE1AFE0ACDCFDF91CF911F910F91FF9029
:101C6000EF90DF90CF900C94E20CEDA5FEA5908153
:101C70008BA98095892380837B01115070F1F70136
:101C800084912B8D3C8D232B31F00E94CA0DFFEFE8
:101C9000EF1AFF0AF2CF28E030E040E8E9A5FAA504
:101CA00099A9582F5423A9F05081952B9083EBA527
:101CB000FCA590815AA9952B9083EBA5FCA550819A
:101CC0009AA990959523908346952150310931F733
:101CD000DECF508190959523E9CFDF91CF911F9171
:101CE0000F91FF90EF90DF90CF9008951F93CF93C7
:101CF000DF93EC018D8D9E8D009721F1162F29A188
:101D000031E030937903209378031092800310928E
:101D10007F03DC01ED91FC910190F081E02D60E00A
:101D200009958D8D9E8DDC01ED91FC910190F081E6
:101D3000E02D612F09958D8D9E8DDF91CF911F91A3
:101D40000C94E20CADA5BEA59C918BA9809589232E
:101D50008C938B8D9C8D892B31F0862FDF91CF91C9
:101D60001F910C94CA0D28E030E080E8A9A5BAA51F
:101D700099A9462F4823C1F04C91942B9C93ABA575
:101D8000BCA59C914AA9942B9C93ABA5BCA54C9156
:101D90009AA9909594239C9386952150310931F707
:101DA000DF91CF911F9108954C9190959423E6CFA8
:101DB0008CBD9DBD0895CF93C82F80915304909101
:101DC0005404892B01F160916B0470916C04809133
:101DD0006D0490916E040E940B0C6C2F86E394E0CE
:101DE0000E94760E8091530490915404892B11F136
:101DF00060916F04709170048091710490917204ED
:101E0000CF910C940B0C8091510490915204892B2A
:101E100031F080917404909175040E94D80EE09185
:101E20006504F0916604908180916A04809589230D
:101E30008083D3CFE0916504F09166048081909116
:101E40006A04892B8083CF910895CF93C82F809106
:101E5000530490915404892B41F160916B0470916B
:101E60006C0480916D0490916E040E940B0C61E8EB
:101E700086E394E00E94760E60917304C11160E0E5
:101E800086E394E00E94760E80915304909154046E
:101E9000892B11F160916F0470917004809171042D
:101EA00090917204CF910C940B0C809151049091FD
:101EB0005204892B31F080917404909175040E9432
:101EC000D80EE0916504F0916604908180916A04D7
:101ED000809589238083CBCFE0916504F0916604DF
:101EE000808190916A04892B8083CF9108951F93FC
:101EF000CF93DF93EC01162F8D8D9E8D892BC9F02A
:101F00006DA97EA98FA998AD0E940B0C66EA1111EC
:101F100067EACE010E94760E8D8D9E8D892BC9F0C9
:101F200069AD7AAD8BAD9CADDF91CF911F910C94D3
:101F30000B0C8B8D9C8D892B21F08EAD9FAD0E945B
:101F4000D80EEFA5F8A990818CA98095892380836C
:101F5000DDCFEFA5F8A980819CA9892B8083DF9133
:101F6000CF911F910895BF92CF92DF92EF92FF928F
:101F70000F931F93CF93DF93EC018D8D9E8D892B53
:101F800009F476C06DA97EA98FA998AD0E940B0CAB
:101F900045E068E675E0CE010E94D10D6C8161508C
:101FA000CE010E94760E2E813F81C901079697FDD2
:101FB000079623E0959587952A95E1F72C813D8139
:101FC000829F7001839FF00C929FF00C11240F8D63
:101FD00018A18D8D9E8DE00EF11E009709F46EC044
:101FE00029A131E030937903209378031092800384
:101FF00010927F03DC01ED91FC910190F081E02DC6
:1020000060E40995CC24C394D12CBB24B3948D8D6A
:102010009E8DE016F106E1F1B0E2CB16D104C0F0DE
:102020000E94E20C8D8D9E8D29A1B09279032093A0
:1020300078031092800310927F03DC01ED91FC91F4
:102040000190F081E02D60E40995CC24C394D12C5B
:102050008D8D9E8DF80161918F01DC01ED91FC91D8
:102060000190F081E02D0995BFEFCB1ADB0ACFCFAD
:102070008B8D9C8D892B21F08EAD9FAD0E94D80E4B
:10208000EFA5F8A990818CA980958923808380CFC2
:102090000E94E20C8D8D9E8D892B09F444C069ADA0
:1020A0007AAD8BAD9CADDF91CF911F910F91FF90D9
:1020B000EF90DF90CF90BF900C940B0CEDA5FEA598
:1020C00080819BA9892B8083E016F10619F3F80122
:1020D00081918F012B8D3C8D232B19F00E94CA0D0D
:1020E000F3CF28E030E040E8E9A5FAA599A9582FF8
:1020F0005423A9F05081952B9083EBA5FCA59081EA
:102100005AA9952B9083EBA5FCA550819AA990958F
:102110009523908346952150310931F7D5CF5081D1
:1021200090959523E9CFEFA5F8A980819CA9892BEB
:102130008083DF91CF911F910F91FF90EF90DF90FF
:10214000CF90BF9008950895FC016370668B8481E1
:10215000958126813781613039F0633029F091878C
:1021600080873387228708953187208793878287E6
:1021700008952F923F924F925F926F927F928F922B
:102180009F92AF92BF92CF92DF92EF92FF920F9306
:102190001F93CF93DF93CDB7DEB76A970FB6F8944E
:1021A000DEBF0FBECDBF9A8F898F7A8369834A01C4
:1021B000D22E18870F833701BC2CDC0159962D9144
:1021C0003C915A972115310509F015C118968D914A
:1021D0009C911997681779070CF0D7C11A968D91C1
:1021E0009C91481759070CF0D0C14C2C512CB6E0EB
:1021F000CB9E600D711D11247C876B871616170608
:102200000CF0C3C1EA2DF0E0FA87E98793E0EE0F06
:10221000FF1F9A95E1F7F88BEF87CF01840F951F89
:10222000181619060CF0B1C1A98DBA8D58968C916B
:10223000811104C0BFEABD1508F4D394A98DBA8DED
:10224000ED91FC9111970284F385E02DCD01099564
:10225000B5E0DB9EC0011124E981FA81FC83EB83A8
:10226000312C212C9C0128593F4F388F2F8B4A2D20
:1022700050E05E8B4D8BEF89F88DE20DF31D44919C
:102280009E828D82D12CC12C69817A81620D731D51
:102290007A8B698B842F90E09C8B8B8BE98DFA8DE8
:1022A000A081B18140FF82C0F1E0BF126FC0AF12C8
:1022B0006DC01C96ED91FC912F813885A4014C0DC9
:1022C0005D1D69897A89898D9A8D0995EB89FC89CB
:1022D000F595E7954E2F5FEFC51AD50A6D817E8182
:1022E0008D899E89680F791F7E836D8398E0C9165A
:1022F000D10481F6AFEF2A1A3A0AEB81FC81E40D92
:10230000F51DFC83EB83F5E02F16310409F0B3CF04
:102310002F81388526153705B9F0A98DBA8DED9135
:10232000FC91B1E0BB1257C0AB1255C069817A81F4
:102330006B5F7F4F0088F189E02D830128E030E05A
:10234000A401898D9A8D0995A98DBA8DED91FC9185
:1023500011970688F789E02DCD016A960FB6F8949B
:10236000DEBF0FBECDBFDF91CF911F910F91FF90C8
:10237000EF90DF90CF90BF90AF909F908F907F9025
:102380006F905F904F903F902F9009941E96ED9123
:10239000FC91EF80F88409851A8592014D815E8158
:1023A0006B817C81898D9A8D099590CF2F8138859D
:1023B0002615370509F48ACF31E0B31207C0A312FE
:1023C00005C01C96ED91FC91930178CF1E96ED917E
:1023D000FC917301E0CF6B857C85641975090684D7
:1023E000F785E02D73010F8518899201A401898D6D
:1023F0009A8D0995A9CFF901349694913297459118
:102400005491D91AB7E0DB9E400D511D1124F901FA
:10241000259134913C8B2B8BFA0125903490FA0155
:102420003296749031963491398B3296649031960D
:10243000449041E04C1518F04A1508F07FC0662D15
:10244000062C000C770B7C836B83842D042C000CF2
:10245000990B9E838D83A98DBA8DED91FC91119777
:102460000284F385E02DCD010995512CD12CC12C8E
:10247000EA2DF0E0FA87E9872B2D30E03C872B87A7
:10248000A401440D511D47FC5A95588F4F8B69810B
:102490007A81660D711D67FC7A957E876D877989D3
:1024A000C71608F051CF2C2D30E04D815E81420FD0
:1024B000531FA985BA854A9FC0014B9F900D5A9F13
:1024C000900D1124FC01E80DF91DF88BEF87852D87
:1024D000612C4F89588D420F531F5E8B4D8B6714B3
:1024E00008F050C044244394480E877041F4C10161
:1024F0000196EB89FC89E20DF31DD4901C01D7FEF7
:1025000019C0A98DBA8DED91FC91662D70E0B1E0F6
:10251000BB1219C0AB1217C02D853E85620F731F09
:102520000484F585E02D2F8138854D895E89898D5C
:102530009A8D0995DD0C6394842DD1CF1E821D8266
:102540001C821B8288CF4B815C81640F751FAB8519
:10255000BC856A9FC0016B9F900D7A9F900D1124DE
:1025600069817A81680F791F0684F785E02DEF80F5
:10257000F88409851A859D014F855889898D9A8D22
:102580000995D8CF570CC3948ACF6A960FB6F894A2
:10259000DEBF0FBECDBFDF91CF911F910F91FF9096
:1025A000EF90DF90CF90BF90AF909F908F907F90F3
:1025B0006F905F904F903F902F9008958F929F92D1
:1025C000AF92CF92EF92FF920F931F93CF93DF932F
:1025D000EC01262F898D9A8D009709F051C06A3041
:1025E000D1F41D861C868D8948E0849F90011124BA
:1025F0008E859F85820F931F9F878E8781E090E055
:10260000DF91CF911F910F91FF90EF90CF90AF90FE
:102610009F908F9008956D3089F3CC88AD888F8915
:102620008823C1F08C859D8536E0C39E800D911D69
:102630001124488559854817590764F44E855F85EC
:102640001D861C8638E0A39EC0011124840F951FAF
:102650009F878E87EA88FB88088919894E855F8560
:102660006C857D85CE010E94B9102C898C859D8555
:1026700046E0249F800D911D11249D878C87BECF3D
:102680006A3069F41D861C86FC013896E4912D8918
:102690008E859F85E29F800D911D1124ADCF6D30F9
:1026A00009F4ACCFFC0134963491631708F4A6CF3B
:1026B0003296E491E61708F4A1CFFC01329685909A
:1026C0009490462F431B342F47E0349F800C911C7D
:1026D0001124F401329634913196E4913323A9F117
:1026E000EE2399F1CC88F4013596E491AD884F89B9
:1026F000442301F10E2E000CFF0BE30FF11DCE9EC3
:10270000A001CF9E500D11246C857D85460F571F6B
:1027100068857985641775076CF44E855F851D861D
:102720001C86FC013896E491AE9E400D511D11248B
:102730005F874E87EA88FB88088919894E855F85FF
:102740006C857D85CE010E94B910F4013496E49128
:102750002C898C859D85E29F800D911D11248DCF44
:102760006F927F928F929F92AF92BF92CF92DF92A1
:10277000EF92FF920F931F93CF93DF93EC016B01C6
:102780005A0139014801E881F9810284F385E02D7D
:102790000995E881F9810288F389E02D8701930189
:1027A000A501B601CE010995A501480D591D41505D
:1027B0005109E881F9810288F389E02D9301B6017E
:1027C000CE010995E881F9810088F189E02D940115
:1027D000A501B601CE010995C60CD71CB601615002
:1027E0007109E881F9810088F189E02D9401A50142
:1027F000CE010995E881F9810688F789E02DCE019F
:10280000DF91CF911F910F91FF90EF90DF90CF90CC
:10281000BF90AF909F908F907F906F9009946F9230
:102820007F928F929F92AF92BF92CF92DF92EF9260
:10283000FF920F931F93CF93DF935C01EB016A012B
:10284000490138018701DC01ED91FC9162177307A2
:1028500019F5641675062CF0962D872D3A01C92EB0
:10286000D82E9601261937092F5F3F4F048CF58D1E
:10287000E02DA301BE01C5010995DF91CF911F9104
:102880000F91FF90EF90DF90CF90BF90AF909F900F
:102890008F907F906F9008954615570591F42617F5
:1028A000370724F0892D4B01C22FD82F9E012819FC
:1028B00039092F5F3F4F068CF78DE02DA601B4013B
:1028C000DACF0284F385E02D0995D501ED91FC91D5
:1028D0000488F589E02D83019401A601BE01C5019C
:1028E0000995D501ED91FC910688F789E02DC50188
:1028F000DF91CF911F910F91FF90EF90DF90CF90DC
:10290000BF90AF909F908F907F906F900994EF92BF
:10291000FF920F931F93DC011A960D911C911B9748
:1029200018962D913C911997ED91FC9100A0F1A181
:10293000E02D7B0150E040E070E060E009951F91E0
:102940000F91FF90EF9008954F925F926F927F9258
:102950008F929F92AF92BF92CF92DF92EF92FF92AF
:102960000F931F93CF93DF936C012B015A01390111
:102970004801DC01ED91FC910284F385E02D09957D
:10298000E201640C751CD601ED91FC91C615D705CA
:102990005CF40088F189E02D87019401A501BE0156
:1029A000C60109952196EFCF0688F789E02DC6016B
:1029B000DF91CF911F910F91FF90EF90DF90CF901B
:1029C000BF90AF909F908F907F906F905F904F904F
:1029D00009948F929F92AF92BF92CF92DF92EF9223
:1029E000FF920F931F93CF93DF93EC015B014A019A
:1029F0006901E881F9810284F385E02D099595014B
:102A00002C0D3D1D21503109E881F9810488F5899B
:102A1000E02D78018401A401B501CE010995E8817A
:102A2000F9810688F789E02DCE01DF91CF911F91C2
:102A30000F91FF90EF90DF90CF90BF90AF909F905D
:102A40008F9009948F929F92AF92BF92CF92DF9214
:102A5000EF92FF920F931F93CF93DF93EC015B01F3
:102A60004A0169017801E881F9810284F385E02D4A
:102A70000995C80CD91C860101501109E881F9811A
:102A80000488F589E02D9501A401B501CE010995D1
:102A9000E881F9810688F789E02DCE01DF91CF9199
:102AA0001F910F91FF90EF90DF90CF90BF90AF906C
:102AB0009F908F900994EF92FF920F931F93DC01E8
:102AC000ED91FC9100A0F1A1E02D09951F910F91CE
:102AD000FF90EF9008950F931F93DC01ED91FC910F
:102AE000068CF78DE02D09951F910F9108950F9396
:102AF0001F93DC01ED91FC91048CF58DE02D09957F
:102B00001F910F910895DC01ED91FC910084F185F6
:102B1000E02D09943F924F925F926F927F928F9235
:102B20009F92AF92BF92CF92DF92EF92FF920F935C
:102B30001F93CF93DF935C017B014A016901390147
:102B400087E0680E711C93E0759467949A95E1F79D
:102B50002B01400E511E10E000E0312CD0E0C0E00F
:102B6000CE0187709927330C892B59F4FE0183E03D
:102B7000F595E7958A95E1F7E00FF11FE80DF91D4E
:102B8000349037FE0AC021E030E0A701B5016C0F98
:102B90007D1F86E394E00E9483152196CC16DD0606
:102BA000F9F68FEFE81AF80A060D171DE414F5047C
:102BB000A9F6DF91CF911F910F91FF90EF90DF90D9
:102BC000CF90BF90AF909F908F907F906F905F90CD
:102BD0004F903F9008952F923F924F925F926F9245
:102BE0007F928F929F92AF92BF92CF92DF92EF929D
:102BF000FF920F931F93CF93DF9300D000D000D0AC
:102C0000CDB7DEB73C016A013E832D83FC82EB82A7
:102C10005801A41AB50AB7FE03C0B194A194B10833
:102C20008D809E80861A970A97FE03C091948194A6
:102C300091088A149B045CF0902F812F0D811E81D6
:102C40009D838E839C2D8D2D6B01692F782F0C1504
:102C50001D055CF09D818E817E836D83692F782FA9
:102C6000902F812F8601C92ED82E1601201A310AE5
:102C70002B012D813E81421A530A57FE03C0519405
:102C800041945108710137FE03C03FEFE31AF30A84
:102C9000F594E7948D819E81861797075CF5A1E0F6
:102CA000B0E0BA83A983C016D1064CF1D301ED91EF
:102CB000FC910484F585E02D2B813C81A8016D8178
:102CC0007E818A149B041CF04D815E81B801C30192
:102CD0000995E418F508F7FE0AC02D813E81898127
:102CE0009A81280F391F3E832D83E20CF31C0F5F5E
:102CF0001F4FD9CF2FEF3FEF3A832983D4CF2696AA
:102D00000FB6F894DEBF0FBECDBFDF91CF911F91FC
:102D10000F91FF90EF90DF90CF90BF90AF909F907A
:102D20008F907F906F905F904F903F902F9008957D
:102D3000089590E080E00895CF93DF93EC010E9426
:102D4000BB06688379838A839B83DF91CF91089543
:102D5000CF93DF93EC018EE480937C0062E070E01F
:102D600080E090E00E94890680917A0080648093E0
:102D70007A0080917A0086FDFCCF809178002091C6
:102D80007900322F282F032E000C440B550B64EBD7
:102D90007BE281E190E00E94113288818E3008F060
:102DA0008E508770806480937C0080917A0080646C
:102DB00080937A0080917A0086FDFCCFA091780004
:102DC000B09179000E943B3226EF37E240E050E0BC
:102DD0000E941132C901DF91CF9108958F929F9285
:102DE000AF92BF92CF92DF92EF92FF9280EB94E08E
:102DF0000E94A816BC01990F880B990B0E94DE3027
:102E0000AB01BC014093A4045093A5046093A604B5
:102E10007093A70482E994E00E945D09C090B40415
:102E2000D090B5040D2C000CEE08FF088090B20481
:102E30009090B304092C000CAA08BB08809194045C
:102E40008823F1F182E994E00E9460080E948A33AD
:102E50009B01AC01281939094A095B09A4E6B0E0D5
:102E60000E943032A7019601281939094A095B09E5
:102E70000E941132CA01B9010E94DE30AB01BC01CF
:102E80004093A8045093A9046093AA047093AB04E0
:102E90008BE994E00E945D0980919D048823A9F04C
:102EA0008BE994E00E9460080E949133862FFF9086
:102EB000EF90DF90CF90BF90AF909F908F9008954C
:102EC00060E070E080EC9FE7C1CF60E070E080ECF4
:102ED0009FE7EACF8F929F92AF92BF92CF92DF92FD
:102EE000EF92FF9282E994E00E947E098BE994E0E0
:102EF0000E947E0980EB94E00E94A816BC01990F05
:102F0000880B990B0E94DE30AB01BC014093A404F6
:102F10005093A5046093A6047093A70482E994E0FB
:102F20000E945D09C090B404D090B5040D2C000C33
:102F3000EE08FF088090B2049090B304092C000CB6
:102F4000AA08BB0880919404882391F182E994E057
:102F50000E9460080E948A339B01AC01281939093C
:102F60004A095B09A4E6B0E00E943032A70196014D
:102F7000281939094A095B090E941132CA01B901AD
:102F80000E94DE30AB01BC014093A8045093A90419
:102F90006093AA047093AB048BE994E0FF90EF90E8
:102FA000DF90CF90BF90AF909F908F900C945D0971
:102FB00060E070E080EC9FE7CDCFFC0190812223A0
:102FC00039F0941738F49F5F908308959150FCCFA7
:102FD0006917E0F30895E091C604E150E83008F085
:102FE00069C0282FF0E0E950F84E0C94F233FF1737
:102FF000111819182B18321845184C1853184091ED
:10300000D0046091CF0487EC94E00E94DD1780919A
:10301000C704833021F089E08093D204089581E0D1
:10302000FBCF4091D2046091D10488EC94E00C94E1
:10303000DD174091D4046091D30489EC94E00E94A0
:10304000DD178091C904813021F089E08093D60496
:10305000089582E0FBCF4091D6046091D5048AECBC
:1030600094E0E5CF4091D8046091D7048BEC94E0D4
:103070000E94DD178091CB048230E1F41092CC04E1
:103080001092CD041092CE0408954091DA0460911C
:10309000D9048CEC94E0CBCF4091DC046091DB044C
:1030A0008DEC94E0C4CF4091DE046091DD048EECA1
:1030B00094E0BDCF08951F93CF93DF93EC011C8262
:1030C000611104C08A819B81892BF1F0162F0E9427
:1030D000BB0628813981AB01421B530B9A01EA815F
:1030E000FB81E930F10508F041C0E758F74E0C9438
:1030F000F233821888189018BF189818B618A018BC
:10310000A818A81811112FC0DF91CF911F91089511
:10311000112361F144315105BCF322E030E01CC0C1
:10312000112339F1283532407CF328E030E014C017
:10313000111122C0203931403CF325E030E00CC0B1
:103140001123E9F044315105FCF227E030E004C0DE
:1031500029E030E01111D8CF798368833B832A833B
:1031600081E08C83D1CF21E030E0F6CF30E020E069
:10317000F3CF23E030E0F0CF26E030E0EDCF24E0E5
:1031800030E0EACF0E94DA35FB0101900020E9F738
:103190003197AF01461B570BDC01ED91FC9102808A
:1031A000F381E02D09948F929F92AF92BF92EF929C
:1031B000FF920F931F93CF93DF93CDB7DEB7A19705
:1031C0000FB6F894DEBF0FBECDBF7C01FA01CB0174
:1031D00019A2223008F42AE08E010F5D1F4F822EC3
:1031E000912CB12CA12CBF01A50194010E947A322F
:1031F000F901CA016A300CF5605DD8016E938D014A
:10320000232B242B252B79F790E080E0109721F0D9
:10321000BD01C7010E94C418A1960FB6F894DEBF85
:103220000FBECDBFDF91CF911F910F91FF90EF9017
:10323000BF90AF909F908F900895695CDECF0F9301
:103240001F93CF93DF938C01D0E0C0E0F801EC0F27
:10325000FD1F6491662341F08DE893E00E94A5076D
:10326000892B11F02196F2CF6CE771E08DE893E0A5
:103270000E94C4188C0F9D1FDF91CF911F910F9159
:1032800008953F924F925F926F927F928F929F929A
:10329000AF92BF92CF92DF92EF92FF920F931F9364
:1032A000CF93DF936C0120E4C20ED11CD601AD9008
:1032B000BC90A114B10409F448C1EC01F5011385D7
:1032C000412C512C90EC692E9FE7792E112351F15E
:1032D000912C812C412C512C320100E0D5011D96FE
:1032E000ED91FC91E80DF91D2081318142815381DE
:1032F000C301B2010E94AC322B013C010F5FB4E06C
:103300008B0E911C1013EACF612F70E090E080E0EB
:103310000E94DE309B01AC01C301B2010E94183350
:103320002B013C01C5014E960E94A816F6010081B2
:103330001181D80190962D913C91312C82179307E1
:1033400054F0C301B2010E949133362EB3E6B61792
:1033500010F483E6382EC8014E960E94A816BC01D0
:10336000990F880B990B0E94DE304B015C012B01F9
:103370003C0181E08C8B8D8BF12CE12C08E010E07E
:1033800022E330E050E040E070E060E0CE010E94D7
:10339000A4142EE130E050E040E064E670E0CE019D
:1033A0000E94A4141D861C861F861E86A5019401FA
:1033B000C501B4010E94C5336FE771E081111AC0E5
:1033C00075016401E894F7F82FEF3FEF4FE75FE7EF
:1033D000C701B6010E94C53381113CC02FEF3FEFFA
:1033E0004FE75FE7C701B6010E94D730181694F582
:1033F00063E871E0CE010E94C41884E690E09D87E6
:103400008C871F861E86E9E0E31520F060E2CE017E
:103410000E94F006432D50E070E060E02AE0CE010B
:103420000E94D31865E2CE010E94F006CE01DF9122
:10343000CF911F910F91FF90EF90DF90CF90BF90B1
:10344000AF909F908F907F906F905F904F903F9044
:103450000C94B30F2FEF3FEF4FE75FE4C501B401CA
:103460000E94C03318161CF467E871E0C3CF2FEF39
:103470003FEF4FE75FECC501B4010E94D73087FDF5
:10348000F3CF20E030E0A901C501B4010E94D7309C
:1034900087FF0AC06DE2CE010E94F00624013501CB
:1034A00077FA709477F870942AE037ED43EA5BE39B
:1034B000C301B2010E94AC322B013C010E94913346
:1034C0004B015C010E94DC309B01AC01C301B201E5
:1034D0000E94AB322B013C012AE0B501A401CE01D0
:1034E0000E94D3186EE2CE010E94F00620E030E088
:1034F00040E251E4C301B2010E943D312B013C0185
:103500000E9491334B01B12CA12C2AE0B501A401FA
:10351000CE010E94D318C501B4010E94DC309B018A
:10352000AC01C301B2010E94AB3220E030E040E2C6
:1035300051E40E943D310E949133AB0170E060E0A4
:103540002AE0CE010E94D31858CFDF91CF911F916E
:103550000F91FF90EF90DF90CF90BF90AF909F9032
:103560008F907F906F905F904F903F900895FC01F7
:1035700080819181009711F00C94943408950F93F9
:103580001F93CF93DF93EC0188819981009759F0C5
:103590002A813B812617370730F081E0DF91CF91F8
:1035A0001F910F9108958B016F5F7F4F0E941D3512
:1035B000009759F0998388831B830A832C813D816E
:1035C000232B59F7FC011082E8CF80E0E7CFEF9280
:1035D000FF920F931F93CF93DF93EC017B01FB01CD
:1035E00001900020E9F731978F01061B170BB801F6
:1035F0000E94BF1A28813981811113C0211531051C
:1036000019F0C9010E949434198218821D821C820B
:103610001B821A82DF91CF911F910F91FF90EF9043
:1036200008951D830C83B701C901DF91CF911F91CC
:103630000F91FF90EF900C94EF350F931F93CF9362
:10364000DF93CDB7DEB729970FB6F894DEBF0FBE74
:10365000CDBF8C01862FF801118210821382128255
:10366000158214824AE0BE016F5F7F4F90E00E9496
:10367000AD30BE016F5F7F4FC8010E94E71A2996E7
:103680000FB6F894DEBF0FBECDBFDF91CF911F9173
:103690000F9108950F931F93CF93DF93CDB7DEB7AC
:1036A00062970FB6F894DEBF0FBECDBF8C01CB0181
:1036B000F8011182108213821282158214824AE06C
:1036C000BE016F5F7F4F0E94A230BE016F5F7F4FD0
:1036D000C8010E94E71A62960FB6F894DEBF0FBECB
:1036E000CDBFDF91CF911F910F910895EF92FF927F
:1036F0000F931F93CF93DF93EC01198218821B82E3
:103700001A821D821C8261157105E1F08B01FB019B
:1037100001900020E9F731977F01E61AF70AB70117
:103720000E94BF1A28813981811113C021153105EA
:1037300019F0C9010E949434198218821D821C82DA
:103740001B821A82DF91CF911F910F91FF90EF9012
:103750000895FD82EC82B801C901DF91CF911F91DC
:103760000F91FF90EF900C94EF35FC0186819781CB
:103770009C01295F3F4F37FF02C0295F3F4F83E025
:10378000359527958A95E1F784819581289FA00139
:10379000299F500D389F500D112470E060E0878DF7
:1037A00090A10C94E8350F931F93CF93DF9300D033
:1037B00000D000D0CDB7DEB786E394E00E94B51B01
:1037C0006BE871E0CE0101960E94761BE6E3F4E01F
:1037D00081E0848B858B1586148617861686BE013C
:1037E0006F5F7F4FCF010E94F706CE0101960E94C6
:1037F000B71A86E394E00E94B30F00E011E080EB7B
:1038000095E0F80191838083E9E6F0E080818C7F88
:103810008083E89A30E020E050E040E06AE070E029
:103820008CE893E00E941208E89881EB95E0F8019B
:10383000918380838EE894E00E949C1626960FB6B2
:10384000F894DEBF0FBECDBFDF91CF911F910F91D6
:103850000895CF92DF92EF92FF9280EB94E00E9466
:10386000A816BC01990F880B990B0E94DE306B01E2
:103870007C016091B2047091B304072E000C880B98
:10388000990B0E94DE309B01AC01C701B6010E947A
:10389000D73087FF37C086E394E00E94B51B82E0F3
:1038A00080934A0480934B0481E090E09093490414
:1038B00080934804909347048093460410924304F5
:1038C00010924204109245041092440467E971E09A
:1038D00086E394E00E94C4186CE771E086E394E00C
:1038E0000E94C41886E394E00E94B30F68EB7BE06B
:1038F00080E090E00E9489068EEA0E94DB0E0E9422
:10390000D31BFFCFFF90EF90DF90CF9008950F93E0
:103910001F93CF93DF9300D000D000D0CDB7DEB798
:103920008C010E94B51B6EE771E0CE0101960E94EA
:10393000761B8091B8049091B90467EA71E08230F7
:10394000910559F060EB71E08430910531F061EA46
:1039500071E0019711F06EE771E0CE0101960E94CF
:10396000E71A82E0F801848B858B158614868CE03B
:1039700090E097878687BE016F5F7F4FC8010E94E6
:10398000F706C8010E944119C8010E94B30FCE0179
:1039900001960E94B71A26960FB6F894DEBF0FBEA6
:1039A000CDBFDF91CF911F910F910895CF92DF92FC
:1039B000EF92FF920F931F93CF93DF93CDB7DEB7B4
:1039C0006A970FB6F894DEBF0FBECDBF182FD62E64
:1039D00086E394E00E94B51BE12EF12C8D2D90E042
:1039E00001969F938F931F921F9388EB91E09F9373
:1039F0008F938E010F5F1F4F1F930F930E94F63519
:103A0000B801CE0145960E94761B81E080934A045E
:103A100080934B0410924304109242041092450488
:103A200010924404BE016B5E7F4F86E394E00E94D7
:103A3000F706CE0145960E94B71A87010150110979
:103A40000FB6F894DEBF0FBECDBF000F111F000FE1
:103A5000111F0A541B4FF801D11053C061ADCE01A4
:103A600045960E941D1B23E0F22EF0924A04F0922C
:103A70004B0410924304109242043CE0C32ED12C1C
:103A8000D0924504C0924404BE016B5E7F4F86E332
:103A900094E00E94F706CE0145960E94B71AF801FD
:103AA00062ADCE0145960E941D1BF0924A04F09231
:103AB0004B0480E490E09093430480934204D092BE
:103AC0004504C0924404BE016B5E7F4F86E394E0E0
:103AD0000E94F706CE0145960E94B71A86E394E04D
:103AE0000E94B30F6A960FB6F894DEBF0FBECDBF2B
:103AF000DF91CF911F910F91FF90EF90DF90CF90CA
:103B0000089563ADCE0145960E941D1B13E01093EE
:103B10004A0410934B0410924304109242048CE028
:103B2000C82ED12CD0924504C0924404BE016B5ED5
:103B30007F4F86E394E00E94F706CE0145960E94EF
:103B4000B71AF701EE0FFF1FEE0FFF1FE251FB4FF9
:103B50006081CE0145960E941D1B10934A0410936C
:103B60004B04A7CFCF92DF92EF92FF920F931F9358
:103B7000CF93DF93CDB7DEB72E970FB6F894DEBFA5
:103B80000FBECDBF86E394E00E94B51B69EC71E0E7
:103B9000CE0101960E94761B86E3E82E84E0F82E83
:103BA00081E0F701848B858B15861486178616862F
:103BB000BE016F5F7F4FC7010E94F706CE010196DD
:103BC0000E94B71A88E0EAE0F1E0DE011196019068
:103BD0000D928A95E1F7E091C604EC0FFD2FF11DDF
:103BE000608170E001E010E029E030E04FE150E05A
:103BF000C7010E94EE0A6091C704CE0109960E9497
:103C00001D1B12E0F701148B158B158614869FE09F
:103C1000C92ED12CD786C686BE01675F7F4FC701EC
:103C20000E94F706CE0109960E94B71A6091C80457
:103C3000CE0109960E941D1BF701148B158B8CE099
:103C400090E095878487D786C686BE01675F7F4FE1
:103C5000C7010E94F706CE0109960E94B71A65E9CE
:103C600071E0CE0109960E94761BF701148B158B2B
:103C700084E190E095878487D786C686BE01675F1A
:103C80007F4FC7010E94F706CE0109960E94B71A1E
:103C90006091C904CE0109960E941D1BF701148B87
:103CA000158B8EE190E095878487D786C686BE0106
:103CB000675F7F4FC7010E94F706CE0109960E94F9
:103CC000B71A6091CA04CE0109960E941D1BF70124
:103CD000148B158B8AE290E095878487D786C686F9
:103CE000BE01675F7F4FC7010E94F706CE010996AC
:103CF0000E94B71A65E971E0CE0109960E94761B11
:103D0000F701148B158B82E390E095878487D78623
:103D1000C686BE01675F7F4FC7010E94F706CE01CE
:103D200009960E94B71A6091CB04CE0109960E94B1
:103D30001D1BF701148B158B8CE390E0958784870E
:103D4000D786C686BE01675F7F4FC7010E94F70610
:103D5000CE0109960E94B71A6091CC04CE01099653
:103D60000E941D1BF701148B158B88E490E095874A
:103D70008487D786C686BE01675F7F4FC7010E94D2
:103D8000F706CE0109960E94B71A6091CD04CE01C4
:103D900009960E941D1BF701148B158B84E590E09A
:103DA00095878487D786C686BE01675F7F4FC70128
:103DB0000E94F706CE0109960E94B71A6091CE04C0
:103DC000CE0109960E941D1BF701148B158B80E60E
:103DD00090E095878487D786C686BE01675F7F4F50
:103DE000C7010E94F706CE0109960E94B71AC701C3
:103DF0000E94B30F2E960FB6F894DEBF0FBECDBF54
:103E0000DF91CF911F910F91FF90EF90DF90CF90B6
:103E10000895EF92FF920F931F93CF93DF9300D0FB
:103E200000D000D0CDB7DEB786E394E00E94B51B8A
:103E300068ED71E0CE0101960E94761B81E08093CF
:103E40004A0480934B04109243041092420410924F
:103E5000450410924404BE016F5F7F4F86E394E0F7
:103E60000E94F706CE0101960E94B71A8091C50400
:103E7000813061F401E010E029E030E04FE150E0F2
:103E800070E060E086E394E00E94EE0A6091C20474
:103E9000CE0101960E941D1B12E010934A0410935C
:103EA0004B0410924304109242048FE0E82EF12C50
:103EB000F0924504E0924404BE016F5F7F4F86E3B9
:103EC00094E00E94F706CE0101960E94B71A8091F5
:103ED000C504823058F16091C304CE0101960E945E
:103EE0001D1B10934A0410934B048EE190E09093B5
:103EF000430480934204F0924504E0924404BE01DE
:103F00006F5F7F4F86E394E00E94F706CE01019633
:103F10000E94B71A01E010E029E030E04FE150E0E4
:103F20006EE170E086E394E00E94EE0A8091C504A1
:103F3000833070F16091C404CE0101960E941D1B74
:103F400082E080934A0480934B048CE390E090934A
:103F50004304809342048FE090E090934504809363
:103F60004404BE016F5F7F4F86E394E00E94F70632
:103F7000CE0101960E94B71A01E010E029E030E07E
:103F80004FE150E06CE370E086E394E00E94EE0ABB
:103F900086E394E00E94411986E394E00E94B30F07
:103FA00026960FB6F894DEBF0FBECDBFDF91CF913E
:103FB0001F910F91FF90EF900895CF93DF9300D062
:103FC00000D000D0CDB7DEB786E394E00E94B51BE9
:103FD0006BEF71E0CE0101960E94761B81E0809329
:103FE0004A0480934B0410924304109242041092AE
:103FF000450410924404BE016F5F7F4F86E394E056
:104000000E94F706CE0101960E94B71A9091BD0456
:104010008091C104911131C068EE71E0882311F0E4
:1040200066EE71E0CE0101960E94761B82E08093DD
:104030004A0480934B0410924304109242048CE093
:1040400090E09093450480934404BE016F5F7F4FDE
:1040500086E394E00E94F706CE0101960E94B71A0B
:1040600086E394E00E94B30F26960FB6F894DEBF65
:104070000FBECDBFDF91CF91089560EF71E088232F
:1040800089F262EF71E0CECF1F93CF93DF9300D020
:1040900000D000D0CDB7DEB786E394E00E94B51B18
:1040A00062E072E0CE0101960E94761B81E080936F
:1040B0004A0480934B0410924304109242041092DD
:1040C000450410924404BE016F5F7F4F86E394E085
:1040D0000E94F706CE0101960E94B71A1091BC0407
:1040E000111112C08091BF046CE072E0882311F0BE
:1040F0006BE072E0CE0101960E94761B82E0809315
:104100004A0480934B0419C0113049F48091BE04D5
:1041100068E172E0882371F367E172E0EBCF6DE252
:1041200072E0123039F762E272E0CE0101960E942D
:10413000761B10934A0410934B0410924304109280
:1041400042048CE090E09093450480934404BE01C7
:104150006F5F7F4F86E394E00E94F706CE010196E1
:104160000E94B71A86E394E00E94B30F26960FB61A
:10417000F894DEBF0FBECDBFDF91CF911F910895A0
:1041800085ED8093BC008091090390910A03A09172
:104190000B03B0910C030796A11DB11D23E0B6954A
:1041A000A795979587952A95D1F72091BC0024FD76
:1041B00003C01092520308954091090350910A03DD
:1041C00060910B0370910C03452B462B472B69F331
:1041D0000097A105B10541F02AE22A95F1F700C048
:1041E0000197A109B109E1CF809108030C943C0C1F
:1041F0000C9403328F929F92AF92BF92CF92DF9234
:10420000EF92FF920F931F93CF93DF93CDB7DEB75B
:10421000AE970FB6F894DEBF0FBECDBF80917D0480
:104220000E94DC0561E020917F0430918004281712
:10423000390709F060E088E794E00E945B188091FC
:1042400086040E94DC0561E0209188043091890495
:104250002817390709F060E081E894E00E945B18B4
:104260000E94BB0600910C0510910D0520910E05D2
:1042700030910F05601771078207930708F468C231
:1042800080917C048823D1F080917A0490917B0402
:104290000597A1F48EE894E00E949C168091BA04E0
:1042A0009091BB048230910509F435C308F063C2D4
:1042B000009709F478C2019709F4FFC280917C0449
:1042C000882391F080917A0490917B04079761F4A0
:1042D0008EE894E00E949C161092BB041092BA04DF
:1042E00086E394E00E94871C80917C048823D1F0AF
:1042F00080917A0490917B040897A1F48EE894E071
:104300000E949C168091BA049091BB048230910562
:1043100009F4D8C308F04BC3009709F45FC30197B1
:1043200009F4CCC3809185048823D1F08091830463
:10433000909184040597A1F48EE894E00E949C1665
:104340008091BA049091BB048230910509F412C4A3
:1043500008F0DCC3009709F4F0C3019709F420C406
:1043600080918504882309F47FC180918304909112
:104370008404079709F061C18EE894E00E949C16BE
:104380008091BA049091BB04019709F052C18091C9
:10439000C104811189C02091C7048AE09091C804AA
:1043A000289F900D11242091C904A091CA04289F30
:1043B000A00D11243091CB042091CC04389F200D06
:1043C00011243091CD04E091CE04389FE00D1124EA
:1043D000F0E044E6249FE00DF11D1124A33008F421
:1043E0003197B0E0A15EBE4F2C91290F3327331FC8
:1043F0002E0F3F1FBF017695679576956795260F1F
:10440000371FCF0160E971E00E94CA33260F371FC2
:10441000CF0164E670E00E94CA33C901861B970B86
:1044200067E070E00E94CA338C018EE0E2E1F1E0C7
:10443000DE01119601900D928A95E1F786E394E0F2
:104440000E94B51BF801EE0FFF1F81E090E08C0F7A
:104450009D1FE80FF91F6081718188960E94761B6D
:1044600082E080934A0480934B041092430410929C
:1044700042048CE090E09093450480934404BE0194
:10448000675D7F4F86E394E00E94F706CE01899630
:104490000E94B71A86E394E00E94B30F68EB7BE0BA
:1044A00080E090E00E9489068091C004843009F089
:1044B00082C08091C104882309F4B8C38091C204EA
:1044C0009091C504923009F09CC30091C30410E0A0
:1044D0009AE0899F000D111D1124A80170E060E091
:1044E0002AE08DE893E00E94D3186CE771E08DE834
:1044F00093E00E94C4183091FF042091C004C801C9
:10450000831B9109622F70E00E94DE33031B060FAC
:10451000269F001911248091DF04860F8093EF04F9
:104520008091E004860F8093F0048091E104860F6F
:104530008093F1048091E204800F8093F2048091D3
:10454000E304860F8093F3048091E404800F80934A
:10455000F4048091E504860F8093F5048091E604CD
:10456000860F8093F6048091E704800F8093F70410
:104570008091E804860F8093F8048091E904860F07
:104580008093F9048091EA04860F8093FA04809165
:10459000EB04860F8093FB048091EC04860F8093DC
:1045A000FC048091ED04080F0093FD048091EE045B
:1045B000680F6093FE0480EE9AE00E941F1966E384
:1045C000C62E64E0D62E74E0F72E10E000E0F8016D
:1045D000E754FF4FEC0DFD1D408150E070E060E0BE
:1045E0002AE08DE893E00E94D31869E08DE893E01B
:1045F0000E94F0060F5F1F4F0430110541F76CE772
:1046000071E08DE893E00E94C418FA94E4E0CE0EC5
:10461000D11CF110DACF89EC9AE00E941F1960E0FA
:1046200081E00E94D61C85E090E09093BB048093CB
:10463000BA04809185048823B9F080918304909115
:104640008404089789F48EE894E00E949C16809177
:10465000BA049091BB048130910509F463C308F456
:1046600037C3059709F47BC30E94BB060091080578
:104670001091090520910A0530910B05601B710B03
:10468000820B930B60367A4E8105910590F00E9463
:10469000BB06609308057093090580930A05909303
:1046A0000B050E94EE1686E394E00E9441190E94D9
:1046B000291C8091BE0460E0811101C062E086E3A4
:1046C00094E00E94A4100E94BB0600918E041091F9
:1046D0008F042091900430919104601B710B820B28
:1046E000930B00918A0410918B0420918C043091DB
:1046F0008D04061717072807390750F58EEA0E9420
:10470000DB0E0E94D31B0E94C706882309F18EE8A6
:1047100094E00E949C168FEA0E94DB0E0E946A17AA
:104720001092BB041092BA0486E394E00E94871CA6
:104730000E94291C0E94BB0668517C4F8F4F9F4FDF
:1047400060930C0570930D0580930E0590930F05F3
:10475000AE960FB6F894DEBF0FBECDBFDF91CF91FE
:104760001F910F91FF90EF90DF90CF90BF90AF908F
:104770009F908F9008958430910509F40FC108F43B
:1047800001C1059709F09ACD8091060590E0079642
:104790008770992780930605682F617086958F5FD3
:1047A0000E94D61C8BCD8091B8049091B9048230C0
:1047B000910599F084309105B9F08130910509F0A7
:1047C0007DCD9093BB048093BA048091C10488236B
:1047D00009F49EC00E94091F71CD9093BB04809381
:1047E000BA040E9444206ACD9093BB048093BA041B
:1047F00086E394E00E94B51B67E372E0CE01019668
:104800000E94761B11E010934A0410934B041092FF
:104810004304109242041092450410924404BE01D5
:104820006F5F7F4F86E394E00E94F706CE0101960A
:104830000E94B71A63E472E0CE0101960E94761BD3
:1048400010934A0410934B041092430410924204B4
:104850008AE090E09093450480934404BE016F5F2A
:104860007F4F86E394E00E94F706CE0101960E94F6
:10487000B71A61E572E0CE0101960E94761B109393
:104880004A0410934B04109243041092420484E1B2
:1048900090E09093450480934404BE016F5F7F4F86
:1048A00086E394E00E94F706CE0101960E94B71AB3
:1048B00086E394E00E94B30F01CD8091C104882368
:1048C00021F18091C604813049F48091C20488238B
:1048D00009F480CF81508093C2047CCF823049F4A8
:1048E0008091C304882309F475CF81508093C30459
:1048F00071CF833009F06ECF8091C404882309F40E
:1049000069CF81508093C40465CF80E00E94EB178B
:104910000E94B21DD3CC6091BC0461110FC06091A4
:10492000BF0481E068276093BF0488E290E00E94A2
:10493000F8208091BF040E94250F53CF6130B1F45D
:104940008091BE0468276093BE048EE190E00E94CF
:10495000F8208091BE0460E0811101C062E086E32E
:1049600094E00E94A4100E9444203BCF623009F0E2
:1049700038CF83E090E09093BB048093BA040E9408
:10498000DD1F9CCC61E08091BD04811160E06093EB
:10499000C10484E190E00E94F820F1CF1092BB04A2
:1049A0001092BA0486E394E00E94871C87CC84307E
:1049B000910509F487C008F4A0C0059709F0B2CCAE
:1049C00081E090E09093BB048093BA048091C1048D
:1049D000882309F48FC00E94091FA4CC85E080932E
:1049E000C2048093C3048093C40491E09093C504EF
:1049F0009093C6049093C7048093C8041092C9048E
:104A00008093CA049093CB0499E09093CC04809354
:104A1000CD048093CE04EFEEF4E010821182128276
:104A20001382349624E0EF3FF207B9F781E08093D8
:104A300000051092010510920205109203051092D4
:104A4000040510920505109206050E946A1786E378
:104A500094E00E94B51B60E672E0CE0101960E94D0
:104A6000761B82E080934A0480934B0410924304A7
:104A7000109242048CE090E09093450480934404AB
:104A8000BE016F5F7F4F86E394E00E94F706CE0180
:104A900001960E94B71A86E394E00E94B30F68EE75
:104AA00073E080E090E00E94890686E394E00E9433
:104AB000871C0E94FA200E94291C34CC8091C604D5
:104AC000813049F41092BB041092BA0486E394E05A
:104AD0000E94871C27CC81509091C104992341F0FA
:104AE0009091C50491509093C5048093C60473CFF0
:104AF0008093C6040E94B21D15CC82E090E0909392
:104B0000BB048093BA040E9444200CCC84309105ED
:104B100009F472C0D0F1059709F022CC8091060506
:104B200090E001968770992780930605682F617041
:104B300086958F5F0E94D61C13CC8091B80490910B
:104B4000B9048130910559F482E090E09093B90462
:104B50008093B80486E394E00E94871C01CC8230E5
:104B6000910519F484E090E0F1CF049799F781E082
:104B700090E0ECCF8091BC0490E00196837099277F
:104B80008093BC040E944420EBCB8091BD0490E054
:104B90000196817099278093BD040E94DD1FE0CBB0
:104BA0008091C104882311F18091C604813051F4B1
:104BB0008091C204893018F48F5F8093C2040E94F0
:104BC000091FCECB823041F48091C3048930B8F7FD
:104BD0008F5F8093C304F3CF833089F78091C4043F
:104BE000893068F78F5F8093C404E9CF81E00E9429
:104BF000EB170E94B21DB4CB1092BB041092BA0402
:104C0000A9CF082F10E0933009F067CC9091C3042E
:104C1000A4E68A9F80011124BAE09B9F000D111D1C
:104C200011248091C404080F111D57CC8091C70432
:104C30004AE09091C804849F900D11242091C904EA
:104C40008091CA04249F800D11242091CB043091BF
:104C5000CC04249F300D11245091CD042091CE041A
:104C6000549F200D11249093EF048093F00430930F
:104C7000F1042093F20441E0420F4093F3044FEF1C
:104C8000430F4093F4044DEF480F4093F50443E085
:104C9000490F4093F6044EEF480F4093F70442E06B
:104CA000490F4093F80442E0420F4093F9044EEF5D
:104CB000430F4093FA043F5F3093FB04215020934D
:104CC000FC049F5F9093FD0481508093FE0473CC9D
:104CD0008EEA0E94DB0E0E94D31B0E94C706882327
:104CE00009F4C2CC8EE894E00E949C168FEA0E94E0
:104CF000DB0E0E946A171092BB041092BA0486E37E
:104D000094E00E94871C0E94BB0668517C4F8F4F25
:104D10009F4F60930C0570930D0580930E05909343
:104D20000F05A2CC8091C104882379F08091C5043D
:104D3000833040F48F5F8093C5048091C6048F5FF9
:104D40008093C6040E94091F8FCC8091C6048830CE
:104D500019F08F5F8093C6040E94B21D85CC8091AC
:104D60000305833010F1109203058091000588231C
:104D700061F0809101058F5F809301058430A8F078
:104D8000109200051092020510C080910405811157
:104D9000A5C0809102058F5F80930205843028F0C2
:104DA00081E0809304051092050586E394E00E945B
:104DB000B51B809104058E010F5F1F4F81117AC1D1
:104DC000F090030580910005882309F4E3C0E09189
:104DD0000105F0E0EA54FB4F21ADC22ED12C35ADD8
:104DE000832F90E0AF014F5B5F4FDA014C91642F4E
:104DF00070E0B1E0FB1609F4A7C0FB1608F47EC012
:104E000022E0F21609F4B3C067E772E0CE0189969A
:104E10000E94761BFF24F394F0924A04F0924B0414
:104E200010924304109242041092450410924404DC
:104E3000BE01675D7F4F86E394E00E94F706CE01D6
:104E400089960E94B71A6091010570E06F5F7F4FED
:104E5000CE0189960E944A1BF0924A04F0924B04BC
:104E600084E190E0909343048093420410924504BF
:104E700010924404BE01675D7F4F86E394E00E9478
:104E8000F706CE0189960E94B71AB801CE0189961D
:104E90000E94761B82E080934A0480934B04109218
:104EA0004304109242048CE090E090934504809378
:104EB0004404BE01675D7F4F86E394E00E94F706DD
:104EC000CE0189960E94B71A86E394E00E94B30F40
:104ED000809103058F5F80930305C6CB8091050504
:104EE0008F5F80930505823008F45FCF1092040530
:104EF00081E0809300051092010544CF8C0D9D1D2B
:104F00008436910590F09F938F931F923F9386E68E
:104F100092E09F938F931F930F930E94F6350FB6E5
:104F2000F894DEBF0FBECDBF6FCF9F938F931F92BC
:104F30003F931F922F938EE692E09F938F931F9340
:104F40000F930E94F635EBCF8C0D9D1D680F791FD6
:104F50006436710528F07F936F931F924F93D7CFDC
:104F60007F936F931F924F939F938F93E4CFEB5B4D
:104F7000FF4F40818C0D9D1D860F971F9C01240FB4
:104F8000311D2436310518F03F932F93E6CF3F9320
:104F90002F93E8CF2091020530E0F901EE0FFF1FBB
:104FA000EE0FFF1FEA54FB4FE1AC6E2D70E052ADE7
:104FB000852F90E043ADA42FB0E0E1E0FE1609F4A8
:104FC0004EC0FE1630F142E0F41609F45BC06CE707
:104FD00072E0CE0189960E94761BFF24F394F09232
:104FE0004A04F0924B04109243041092420410922F
:104FF000450410924404BE01675D7F4F86E394E050
:105000000E94F706CE0189960E94B71A60910205A8
:105010001CCF860F971F8436910590F09F938F9336
:105020001F925F9386E692E09F938F931F930F9357
:105030000E94F6350FB6F894DEBF0FBECDBFC7CFC6
:105040009F938F931F925F931F92EF928EE692E051
:105050009F938F931F930F930E94F635EBCF860F8C
:10506000971FA80FB91FA436B10528F0BF93AF93BF
:105070001F924F93D7CFBF93AF931F924F939F939E
:105080008F93E4CF220F331F220F331FF901EE500D
:10509000FB4F4081860F971F8A0F9B1F9C01240F97
:1050A000311D2436310518F03F932F93E1CF3F9304
:1050B0002F93E3CF80910505811143C08091EF04C8
:1050C000E82EF12C8091F404882E912C8091F90423
:1050D000A82EB12CC090FE04D12C61E872E0C8016A
:1050E0000E94761B81E080934A0480934B041092C7
:1050F0004304109242041092450410924404B801F3
:1051000086E394E00E94F706C8010E94B71A8091D6
:105110000305813009F44EC030F1823009F0B5CE7C
:10512000C701880D991D8A0D9B1D9C012C0D3D1DED
:105130002436310508F450C03F932F93DF92CF926D
:105140001CC08091F204E82EF12C8091F504882E89
:10515000912C8091F804A82EB12CC090FB04D12C86
:1051600068E872E0BCCFC701880D991D84369105AF
:1051700090F09F938F939F928F9286E692E09F93F9
:105180008F931F930F930E94F6350FB6F894DEBFEE
:105190000FBECDBF7ACE9F938F939F928F92FF9237
:1051A000EF928EE692E09F938F931F930F930E944E
:1051B000F635EBCFE80CF91C97012A0D3B1D243680
:1051C000310528F03F932F93BF92AF92D6CF3F93F4
:1051D0002F93BF92AF92E3CF3F932F93DF92CF9263
:1051E0009F938F93DECF0C94FB311F920F920FB6DB
:1051F0000F9211242F933F938F939F93AF93BF935D
:105200008091840390918503A0918603B0918703D8
:105210003091830323E0230F2D3758F50196A11D0C
:10522000B11D209383038093840390938503A093FF
:105230008603B09387038091880390918903A0919E
:105240008A03B0918B030196A11DB11D8093880341
:1052500090938903A0938A03B0938B03BF91AF917E
:105260009F918F913F912F910F900FBE0F901F90A4
:10527000189526E8230F0296A11DB11DD2CF1F92CB
:105280000F920FB60F9211242F933F934F935F937A
:105290006F937F938F939F93AF93BF93EF93FF93FE
:1052A000E0910201F09103010995FF91EF91BF9107
:1052B000AF919F918F917F916F915F914F913F91AE
:1052C0002F910F900FBE0F901F9018951F920F9265
:1052D0000FB60F9211242F933F934F935F936F93C9
:1052E0007F938F939F93AF93BF93EF93FF93E0913F
:1052F0000001F09101010995FF91EF91BF91AF91EC
:105300009F918F917F916F915F914F913F912F91DD
:105310000F900FBE0F901F9018951F920F920FB60F
:105320000F9211242F933F934F935F936F937F932B
:105330008F939F93AF93BF93EF93FF938DE893E089
:105340000E948307FF91EF91BF91AF919F918F9141
:105350007F916F915F914F913F912F910F900FBE71
:105360000F901F9018951F920F920FB60F92112455
:105370002F938F939F93EF93FF93E0919D03F09171
:105380009E038081E091A303F091A40382FD1BC0E2
:1053900090818091A6038F5F8F732091A70382175E
:1053A00041F0E091A603F0E0E357FC4F958F809326
:1053B000A603FF91EF919F918F912F910F900FBEB8
:1053C0000F901F9018958081F4CF1F920F920FB607
:1053D0000F9211248F930FB6F894A89580916000D6
:1053E000886180936000109260000FBE8F910F90D3
:1053F0000FBE0F901F9018951F920F920FB60F922D
:1054000011242F933F934F935F936F937F938F93C9
:105410009F93AF93BF93EF93FF938091B900887FE1
:10542000803609F44AC0F0F5883209F4A7C018F5AF
:10543000803109F49BC0B8F4882309F4F9C088309E
:1054400009F494C0FF91EF91BF91AF919F918F911B
:105450007F916F915F914F913F912F910F900FBE70
:105460000F901F901895883109F488C0803251F749
:105470008093510314C0803409F49DC040F48033FC
:10548000B9F38833F9F68093510385ECB0C08035C9
:1054900009F485C0883509F496C0883499F60E94CD
:1054A000C020D0CF883909F48CC038F5883729F06E
:1054B00050F4883611F0803729F683E08093520348
:1054C0001092500357C0883809F47BC0803919F016
:1054D000803809F0B7CF80915003803208F071C056
:1054E000E091500381E08E0F809350038091BB00C8
:1054F000F0E0E05DFC4F80833DC0803B39F0E0F49C
:10550000803A09F479C0883A09F09CCF84E080930E
:10551000520310922F0310922E03E0917D03F0911D
:105520007E03099580912E0381110FC081E0809345
:105530002E0310920E0309C0803C09F4A6CF883CCC
:1055400009F4A3CF883B09F07DCFE0912F0381E0E0
:105550008E0F80932F03F0E0E25FFC4F80818093F9
:10556000BB0090912F0380912E0329C08091770377
:105570008093BB0085EC8093BC0064CF9091760350
:1055800080917503981758F5E091760381E08E0FAE
:1055900080937603F0E0EB5AFC4F8081E9CFE091F5
:1055A000760381E08E0F809376038091BB00F0E05C
:1055B000EB5AFC4F80839091760380917503981786
:1055C000C8F285E8D8CFE091760381E08E0F809312
:1055D00076038091BB00F0E0EB5AFC4F8083809112
:1055E000540381115CCF81E08093530384EA80935C
:1055F000BC001092520326CF85EC8093BC00109221
:10560000520380915003803230F4E0915003F0E077
:10561000E05DFC4F10826091500370E0E0917B03ED
:10562000F0917C0380E393E00995109250030ACF38
:105630001092510334CFCF93DF93EC01188684E1AD
:10564000898380E590E00E94F8339D838C8384E118
:1056500090E00E94F8339F838E83CE01DF91CF913B
:105660000C947E09CF931092900310928F0388EED2
:1056700093E0A0E0B0E08093910390939203A09315
:105680009303B093940320E331E030938E0320938F
:105690008D0325EC30E030939A032093990324EC9A
:1056A00030E030939C0320939B0320EC30E0309358
:1056B0009E0320939D0321EC30E03093A0032093C0
:1056C0009F0322EC30E03093A2032093A10326EC49
:1056D00030E03093A4032093A3031092A60310920A
:1056E000A7031092A8031092A90310922D04109200
:1056F0002C0480932E0490932F04A0933004B09335
:10570000310482E491E090932B0480932A04109258
:1057100039041092380420E830E030933B042093A1
:105720003A0480E290E090933D0480933C043093EF
:105730003F0420933E0490934104809340041092D0
:105740004C041092430410924204109245041092AB
:105750004404C1E0C0934B04C0934A048FEF9FEF11
:10576000909349048093480490934704809346049F
:10577000C0934D0410924E041092500410924F04A6
:1057800084E591E09093370480933604109252049C
:10579000109251048AE294E090935404809353044D
:1057A00010925604109255048FEF80935A04809300
:1057B0005B0480935C0480935D0480935E0480E8C6
:1057C0009AE1A6E0B0E080936B0490936C04A09300
:1057D0006D04B0936E0480EA96E8A1E0B0E0809397
:1057E0006F0490937004A0937104B093720480E5E9
:1057F00080937404109275041092770410927604CA
:105800000E94BB06709379046093780410927B0425
:1058100010927A0410927C048CE090E090937E04C5
:1058200080937D041092800410927F0462E00E94B5
:1058300033060E94BB067093820460938104109229
:105840008404109283041092850482E090E0909387
:10585000870480938604109289041092880462E081
:105860000E94330680EC97E2A9E0B0E080938A04BE
:1058700090938B04A0938C04B0938D040E94BB067C
:1058800060938E0470938F0480939004909391049E
:1058900082E994E00E941B2B8BE994E00E941B2B71
:1058A0001092A4041092A5041092A6041092A704CA
:1058B0001092A8041092A9041092AA041092AB04AA
:1058C0001092AC041092AD041092AE041092AF048A
:1058D0008EE090E09093B1048093B00486E391E071
:1058E0009093B3048093B20488E991E09093B50457
:1058F0008093B4041092B7041092B60481E090E053
:105900009093B9048093B8041092BB041092BA0427
:105910001092BC041092BD041092BE0484E08093E7
:10592000C004C093C10485E08093C2048093C30483
:105930008093C404C093C504C093C604C093C70435
:105940008093C8041092C9048093CA04C093CB0406
:1059500099E09093CC048093CD048093CE04109270
:10596000CF0483E08093D0041092D1049093D204AA
:105970001092D304C093D4041092D5049093D6040B
:105980001092D70482E08093D8041092D9049093A7
:10599000DA041092DB049093DC041092DD049093FF
:1059A000DE0482E28093FF0490E080E0DC01A152FB
:1059B000BB4F30E020E0BC016950754FFB01E20FA6
:1059C000F31F459154914D931F961C921F972F5F83
:1059D0003F4F2430310591F704968031910531F71E
:1059E00081E080930005109201051092020510924B
:1059F00003051092040510920505109206050E94F9
:105A0000BB06609308057093090580930A0590937F
:105A10000B0510920C0510920D0510920E051092B8
:105A20000F05CF910895789484B5826084BD84B5C4
:105A3000816084BD85B5826085BD85B5816085BD89
:105A400080916E00816080936E0010928100809141
:105A500081008260809381008091810081608093C9
:105A60008100809180008160809380008091B100EE
:105A700084608093B1008091B00081608093B00019
:105A800080917A00846080937A0080917A008260AD
:105A900080937A0080917A00816080937A0080916F
:105AA0007A00806880937A001092C100E0919D0393
:105AB000F0919E0382E08083E0919903F0919A0334
:105AC0001082E0919B03F0919C038FEC80831092F5
:105AD000A503E091A103F091A20386E08083E09109
