:100000000C94F5050C94F7200C94D0200C941D064C
:100010000C941D060C941D060C9476210C941D0660
:100020000C941D060C941D060C941D060C941D06C4
:100030000C941D060C941D060C941D060C941D06B4
:100040000C9486200C941D060C9444210C941E21C3
:100050000C941D060C941D060C941D060C941D0694
:100060000C948D210C941D0600000000003E5B4F97
:100070005B3E3E6B4F6B3E1C3E7C3E1C183C7E3C08
:10008000181C577D571C1C5E7F5E1C00183C180016
:10009000FFE7C3E7FF0018241800FFE7DBE7FF30A6
:1000A000483A060E2629792926407F050507407F14
:1000B00005253F5A3CE73C5A7F3E1C1C08081C1C87
:1000C0003E7F14227F22145F5F005F5F06097F017D
:1000D0007F006689956A606060606094A2FFA29468
:1000E00008047E040810207E201008082A1C080836
:1000F0001C2A08081E101010100C1E0C1E0C303884
:100100003E3830060E3E0E06000000000000005F84
:1001100000000007000700147F147F14242A7F2AA0
:100120001223130864623649562050000807030062
:10013000001C2241000041221C002A1C7F1C2A08AE
:10014000083E080800807030000808080808000011
:1001500060600020100804023E5149453E00427F85
:10016000400072494949462141494D331814127FD4
:100170001027454545393C4A494931412111090774
:100180003649494936464949291E000014000000F5
:1001900040340000000814224114141414140041C7
:1001A00022140802015909063E415D594E7C121184
:1001B000127C7F494949363E414141227F414141BC
:1001C0003E7F494949417F090909013E4141517337
:1001D0007F0808087F00417F41002040413F017FA8
:1001E000081422417F404040407F021C027F7F0470
:1001F00008107F3E4141413E7F090909063E4151B9
:10020000215E7F09192946264949493203017F01A8
:10021000033F4040403F1F2040201F3F4038403FA9
:10022000631408146303047804036159494D4300BF
:100230007F4141410204081020004141417F0402F6
:10024000010204404040404000030708002054548D
:1002500078407F284444383844444428384444286B
:100260007F385454541800087E090218A4A49C78BE
:100270007F0804047800447D40002040403D007F1A
:100280001028440000417F40007C047804787C08FA
:100290000404783844444438FC18242418182424CE
:1002A00018FC7C08040408485454542404043F44B3
:1002B000243C4040207C1C2040201C3C4030403CE2
:1002C00044281028444C9090907C4464544C440042
:1002D00008364100000077000000413608000201A6
:1002E0000204023C2623263C1EA1A161123A404092
:1002F000207A38545455592155557941225454780F
:1003000042215554784020545579400C1E527212A7
:100310003955555559395454545939555454580030
:1003200000457C410002457D420001457C407D1234
:1003300011127DF0282528F07C5455450020545496
:100340007C547C0A097F4932494949323A44444441
:100350003A324A4848303A4141217A3A424020787C
:10036000009DA0A07D3D4242423D3D4040403D3C7D
:1003700024FF2424487E4943662B2FFC2F2BFF09A2
:1003800029F620C0887E0903205454794100004496
:100390007D413048484A32384040227A007A0A0A81
:1003A000727D0D19317D2629292F282629292926F4
:1003B00030484D4020380808080808080808382F39
:1003C00010C8ACBA2F102834FA00007B00000814C3
:1003D0002A142222142A14085500550055AA55AA99
:1003E00055AAFF55FF55FF000000FF00101010FF39
:1003F00000141414FF001010FF00FF1010F010F094
:10040000141414FC001414F700FF0000FF00FF1484
:1004100014F404FC141417101F10101F101F1414D0
:10042000141F00101010F0000000001F101010101A
:100430001F10101010F010000000FF10101010100E
:1004400010101010FF10000000FF140000FF00FF4C
:1004500000001F10170000FC04F4141417101714E8
:1004600014F404F40000FF00F7141414141414140A
:10047000F700F7141414171410101F101F1414147D
:10048000F4141010F010F000001F101F0000001FE7
:1004900014000000FC140000F010F01010FF10FF1A
:1004A000141414FF141010101F00000000F010FFAF
:1004B000FFFFFFFFF0F0F0F0F0FFFFFF0000000093
:1004C00000FFFF0F0F0F0F0F3844443844FC4A4A17
:1004D0004A347E02020606027E027E0263554941CC
:1004E000633844443C04407E201E2006027E020203
:1004F00099A5E7A5991C2A492A1C4C7201724C3017
:100500004A4D4D303048784830BC625A463D3E49ED
:100510004949007E0101017E2A2A2A2A2A44445F91
:10052000444440514A444040444A51400000FF0185
:1005300003E080FF000008086B6B08361236243693
:10054000060F090F060000181800000010100030F8
:1005500040FF0101001F01011E00191D1712003C80
:100560003C3C3C0000000000000103070F1F3F7FE0
:100570000080C0E0F0F8FCFE5353443133303620A5
:10058000626567696E206661696C656400535344F7
:100590003133303620626567696E206661696C654B
:1005A0006400536574757020636F6D706C6574655D
:1005B0002E00427574746F6E206E6F742068656CC7
:1005C00064206C6F6E6720656E6F7567682E2052B1
:1005D000657475726E696E6720746F20736C6565E3
:1005E000702E00427574746F6E2068656C642066AE
:1005F0006F722033207365636F6E64732E205761B2
:100600006B696E672075702E00496E616374697640
:100610006974792064657465637465642E20456E21
:10062000746572696E67206465657020736C6565BA
:10063000702E2E2E00427574746F6E206E6F7420B3
:1006400068656C64206C6F6E6720656E6F75676897
:100650002E2052657475726E696E6720746F2073F8
:100660006C6565702E00427574746F6E2068656CE1
:100670006420666F722033207365636F6E64732E1F
:100680002057616B696E672075702E0042206C6F79
:100690006E67004220646F75626C6500422073696A
:1006A0006E676C650041206C6F6E67004120646F5F
:1006B00075626C6500412073696E676C65000000AF
:1006C00000002300260029000000000800020100AD
:1006D000000304070000000000000000000000000C
:1006E000240027002A00DB40A4A62EAF2000A1C8CA
:1006F000D300408DAED580A80102040810204080B0
:10070000010204081020010204081020000000006B
:10071000250028002B00040404040404040402023D
:10072000020202020303030303030000600000004F
:100730000000000000000000000000E000000000D9
:1007400000000000000000000001E00000000000C8
:10075000000000000000000001F0000000000000A8
:100760000000000000000003F00000000000000096
:1007700000000000000007F0000000000000000082
:10078000000000000007F80000000000000000006A
:10079000000000000FF800000003C0007E00000110
:1007A000E0007F0FF800000003C000FE000001E041
:1007B00000FFEFF800000003C000FE000001E000B1
:1007C000FFFFF800000003C000F00000000F007FF2
:1007D000FE7FC0000003C000F00000000F003FFEDD
:1007E0007FF83FF1FBCFFCFEF3BC3DEFE01FFE7F47
:1007F000FF7FFBFFDFFEFEFFBC3DEFE01FC6FFFFFC
:100800007FFBFFDFFEFEFFBC3DEFE00FE3C7FE789E
:100810007BC3DE1EF0FFBC3DEF0007FF87FC787B4B
:10082000C3DE1EF0F83C3DEF0001FFFFF0007BC38C
:10083000C01EF0F03C3DEF0001F37FE03FFBC3CF73
:10084000FEF0F03C3DEF0003E33F807FFBC3DFFEA3
:10085000F0F03C3DEF0007E73C00787BC3DE1EF084
:10086000F03C3DEF0007FFBE00787BC3DE1EF0F0DA
:100870003C3DEF0007FFFE00787BC3DE1EF0F03C3E
:100880003DEF000FFFFE007FFBFFDFFEF0F03FFDBE
:10089000EFE00FFFFF007FFBFFDFFEF0F03FFDEF1B
:1008A000E00FF9FF003E79F9CF9EF0F01F3DE7E041
:1008B0001FF1FF0000000000000000000000001F0A
:1008C00080FF007FFFFFFFFFFFFFFFFFFFE01C0037
:1008D0007F007FFFFFFFFEB46D888D18E000001FD2
:1008E000007FFFFFFFFE95AD7DB577E000000F00B4
:1008F0007FFFFFFFFEA5AD9D8D19E0000006007F84
:10090000FFFFFFFEB5ADEDB57EE000000000000189
:1009100080000000000000000000038000000000D4
:10092000000000000007C000000000000000000000
:1009300007C00000000000000000000FC000000021
:100940000000000000001FE00000000000000000A8
:10095000001FE00000000000000000003FE0000079
:10096000000000000000003FF00000000000000058
:1009700000007FF0000000000000001FF87FF00082
:100980000000000000003FFE7FF0000000000000BB
:10099000003FFF7FF0000000000000001FFFFBE0B1
:1009A000000000000000000FFFF9FFC00000000081
:1009B00000000FFFF9FFF800000000000007FFF142
:1009C000FFFF00000000000003FC73FFFF80000039
:1009D00000000001FE3FFFFF80000000000000FF5C
:1009E0001E0FFF000000000000007FFE1FFC000043
:1009F00000000000003FFFFFF800000000000000C2
:100A00000FDFFFE0000000000000001F19FFC00022
:100A10000000000000003F3CFF000000000000005C
:100A2000007E7CF800000000000000007FFE7C00DB
:100A300000000000000000FFFFFC000000000000BC
:100A40000000FFFFFE0000000000000000FFFFFEAE
:100A50000000000000000001FFEFFE0000000000A9
:100A6000000001FFCFFE0000000000000003FF07B0
:100A7000FE0000000000000003FC07FE0000000074
:100A800000000003F003FE000000000000000180F1
:100A900000FE000000000000000000007E000000DA
:100AA000000000000000003E000000000000000008
:100AB00000000C000000000000078000FC000003A4
:100AC000C0000000078001FC000003C00000000718
:100AD0008001FC000003C0000000078001E000006E
:100AE000001E000000078001E00000001E007FE300
:100AF000F79FF9FDE7787BDFC0FFF7FFBFFDFDFF44
:100B0000787BDFC0FFF7FFBFFDFDFF787BDFC0F024
:100B1000F787BC3DE1FF787BDE00F0F787BC3DE165
:100B2000F0787BDE0000F787803DE1E0787BDE0037
:100B30007FF7879FFDE1E0787BDE00FFF787BFFD51
:100B4000E1E0787BDE00F0F787BC3DE1E0787BDE1A
:100B500000F0F787BC3DE1E0787BDE00F0F787BC72
:100B60003DE1E0787BDE00FFF7FFBFFDE1E07FFBCA
:100B7000DFC0FFF7FFBFFDE1E07FFBDFC07CF3F3E9
:100B80009F3DE1E03E7BCFC0000000000000000080
:100B9000000000FFFFFFFFFFFFFFFFFFFFC0FFFFA1
:100BA000FFFFFD68DB111A31C0FFFFFFFFFD2B5A6D
:100BB000FB6AEFC0FFFFFFFFFD4B5B3B1A33C0FF3B
:100BC000FFFFFFFD6B5BDB6AFDC0456E74657269FC
:100BD0006E67206465657020736C6565702E2E2EBF
:100BE000002200FF2100CF22843011241FBECFEF4E
:100BF000D8E0DEBFCDBF12E0A0E0B1E0E4E3F1E772
:100C000002C005900D92AA37B107D9F724E0AAE7F0
:100C1000B2E001C01D92A83FB207E1F715E0C4EFB2
:100C2000D5E004C02197FE010E94D433C33FD10711
:100C3000C9F70E94F4240C948D380C940000089598
:100C40000895089508950895833081F028F481303F
:100C500099F08230A9F008958730A9F08830C9F062
:100C60008430B1F4809180008F7D03C0809180003A
:100C70008F7780938000089584B58F7784BD089521
:100C800084B58F7DFBCF8091B0008F778093B000CB
:100C900008958091B0008F7DF9CFCF93DF93282FF7
:100CA00030E0F901E853F94F8491F901E850F94F28
:100CB000D491F901EA5EF84FC491CC23A1F08111DF
:100CC0000E942406EC2FF0E0EE0FFF1FE254F94FD4
:100CD000A591B491EC91ED2381E090E009F480E0DE
:100CE000DF91CF91089580E090E0FACF1F93CF93EA
:100CF000DF93282F30E0F901E853F94F8491F9018F
:100D0000E850F94FD491F901EA5EF84FC491CC2331
:100D1000A9F0162F81110E942406EC2FF0E0EE0FAF
:100D2000FF1FE45FF84FA591B4918FB7F894EC9151
:100D3000111108C0D095DE23DC938FBFDF91CF91D6
:100D40001F910895DE2BF8CFCF93DF9390E0FC0145
:100D5000E850F94F24918A5E984FFC0184918823D2
:100D6000D1F090E0880F991FFC01E452F94FA59152
:100D7000B491FC01E45FF84FC591D491623071F4F5
:100D80009FB7F8943C91822F809583238C93E881C0
:100D90002E2B28839FBFDF91CF9108958FB7F894B2
:100DA000EC912E2B2C938FBFF6CF3FB7F894809108
:100DB0002F0390913003A0913103B091320326B5F7
:100DC000A89B05C02F3F19F00196A11DB11D3FBF83
:100DD000BA2FA92F982F8827BC01CD01620F711D52
:100DE000811D911D42E0660F771F881F991F4A954C
:100DF000D1F708958F929F92AF92BF92CF92DF92D8
:100E0000EF92FF924B015C010E94D5066B017C01C1
:100E10000E94D5066C197D098E099F09683E7340B2
:100E200081059105A8F321E0821A9108A108B10873
:100E300088EEC80E83E0D81EE11CF11C81149104D9
:100E4000A104B10429F7FF90EF90DF90CF90BF90FD
:100E5000AF909F908F9008953F924F925F926F92C4
:100E60007F928F929F92AF92BF92CF92DF92EF923A
:100E7000FF920F931F93CF93DF938EE480937C00B8
:100E800062E370E080E090E00E94FA0680917A00D0
:100E9000806480937A0080917A0086FDFCCF209157
:100EA000780030917900C091EF04D091F0049091D6
:100EB000EE0411E0190F1093EE0444E0949FC0017A
:100EC0001124C80FD91F50E040E060E078EE86E1C1
:100ED00090E00E941932CA01B9016B5F7F4F8F4FBA
:100EE0009F4F2AE030E040E050E00E941932B90103
:100EF000330F880B990B0E94E630688379838A83CD
:100F00009B839091EC04191710F01092EE048091DD
:100F1000ED04891718F48F5F8093ED041092EB04B1
:100F20008091ED04882309F41AC1EE24E394F12C96
:100F300010E000E09091ED04C090F104D090F20434
:100F4000C091EF04D091F0049E151F0409F008F43D
:100F500084C036016E0C7F1CD3013C90B4E03B9EF4
:100F6000F0011124EC0FFD1F80809180A280B380DE
:100F7000D601EC91B4E0EB9FF0011124EC0FFD1FC2
:100F80002081318142815381C501B4010E94DF304B
:100F900018160CF05AC08091F30481112FC067011C
:100FA000860101501109D301EE913D01B4E0EB9FA0
:100FB000F0011124EC0FFD1F20813181428153810A
:100FC000C501B4010E94DF3087FD02C0860104C064
:100FD00068010115110521F7C7012091F104309135
:100FE000F204F901E80FF91F0817190788F50197AE
:100FF000280F391FD9012C912083EFCF813061F761
:101000008701512C412CC80184199509029720F3BE
:101010003801640C751C76946794F601E60DF71D93
:10102000E08124E0E29FF0011124EC0FFD1F2081FC
:10103000318142815381C501B4010E94DF3087FDB7
:1010400002C02301E0CF8301DECF10E000E0C4CF77
:101050003082BFEFEB1AFB0A6DCF81E08093EB0487
:10106000892F8695C80ED11CF601808190FF55C04E
:10107000F4E08F9FC0011124C80FD91F68817981C6
:101080008A819B81C091E604D091E7042091E50418
:1010900011E0120F1093E50444E0249F9001112405
:1010A000C20FD31F0E948A339B01AC0128563140E6
:1010B00041095109A4E6B0E00E94383228E230E04C
:1010C00040E050E00E941932CA01B9010E94E630A6
:1010D000688379838A839B839091E304191710F0C6
:1010E0001092E5048091E404891718F48F5F8093CF
:1010F000E4041092E204DF91CF911F910F91FF90D1
:10110000EF90DF90CF90BF90AF909F908F907F90A7
:101110006F905F904F903F90089521E0C21AD108E0
:10112000D601EC91B4E0EB9FF0011124EC0FFD1F10
:1011300024E0829FC0011124C80FD91F2881398162
:101140004A815B8160817181828193810E94AC328E
:1011500020E030E040E05FE30E94453193CF60E063
:1011600070E080EC9FE78ECF2FB7F89460912B034F
:1011700070912C0380912D0390912E032FBF089521
:10118000AF92BF92CF92DF92EF92FF920F931F9395
:10119000CF93DF936C017B018B01040F151FEB01D3
:1011A0005E01AE18BF08C017D10759F06991D6018A
:1011B000ED91FC910190F081E02DC6010995892BFC
:1011C00079F7C501DF91CF911F910F91FF90EF90BB
:1011D000DF90CF90BF90AF900895FC01448155817E
:1011E0006081718188EE93E00C94C008FC01538DFE
:1011F000448D252F30E0842F90E0821B930B5417F1
:1012000010F0CF96089501970895FC01918D828D7D
:10121000981761F0A28DAE0FBF2FB11D5D968C9116
:10122000928D9F5F9F73928F90E008958FEF9FEF55
:101230000895FC01918D828D981731F0828DE80F11
:10124000F11D858D90E008958FEF9FEF0895FC01CB
:10125000918D228D892F90E0805C9F4F821B910998
:101260008F73992708958FE393E00E94270921E067
:10127000892B09F420E0822F089580E090E0892BEB
:1012800029F00E94330981110C9400000895FC019B
:10129000A48DA80FB92FB11DA35ABF4F2C91848DD7
:1012A00090E001968F739927848FA689B7892C9334
:1012B000A089B1898C91837080648C93938D848D87
:1012C000981306C00288F389E02D80818F7D80838A
:1012D0000895EF92FF920F931F93CF93DF93EC014A
:1012E00081E0888F9B8D8C8D98131AC0E889F989CD
:1012F000808185FF15C09FB7F894EE89FF896083D0
:10130000E889F98980818370806480839FBF81E050
:1013100090E0DF91CF911F910F91FF90EF90089592
:10132000F62E0B8D10E00F5F1F4F0F731127E02E6D
:101330008C8D8E110CC00FB607FCFACFE889F989A5
:10134000808185FFF5CFCE010E944709F1CFEB8D5B
:10135000EC0FFD2FF11DE35AFF4FF0829FB7F89479
:101360000B8FEA89FB8980818062CFCFCF93DF9397
:10137000EC01888D8823B9F0AA89BB89E889F989AD
:101380008C9185FD03C0808186FD0DC00FB607FCE2
:10139000F7CF8C9185FFF2CF808185FFEDCFCE0115
:1013A0000E944709E9CFDF91CF910895411551057A
:1013B00029F4EAE7F0E080818F7780836A30710555
:1013C000B9F0CB01880F991F880F991F8072677041
:1013D0006860682B88E10FB6F894A8958093600048
:1013E0000FBE60936000E0E6F0E08081806480835F
:1013F000232BD9F483B7817F846083BFF89483B7AC
:10140000816083BF85B7806685BF8F7D85BF7894F7
:10141000889583B78E7F83BF7894452B29F4EAE7BC
:10142000F0E0808180688083089583B7817F846045
:1014300083BFF89483B7816083BF7894889583B71E
:101440008E7F83BF7894E9CFEF92FF920F931F9323
:10145000CF93DF93EC01EC80FD806E157F050CF0DF
:1014600070C057FF04C0240F351F50E040E08E814C
:101470009F81FA01E20FF31F8E179F071CF49C0156
:10148000241B350B121613060CF05BC0922F842F11
:101490008695869586958E9DD0018F9DB00D1124E1
:1014A0006A0F7B1FAF8DB8A1A60FB71F477049F118
:1014B00088E0841B482F682F70E0FB01E059FA4F49
:1014C000E491281708F063C0621B71092FEF30E028
:1014D00002C0359527956A95E2F7E22301301105A0
:1014E00039F0B0F10230110561F58C91E82702C0A6
:1014F0008C91E82BEC93941720F12C813D81A20F65
:10150000B31FE92FE41BE83078F00230110521F514
:101510008E2F9C9190959C932C813D81A20FB31F9F
:1015200088508830B0F7E770EE2359F0F0E0E859C2
:10153000FA4FE49101301105F9F010F10230110574
:1015400019F1DF91CF911F910F91FF90EF900895C6
:10155000E0958C91E823CECF81E00115110509F4C7
:1015600080E081959E2F8C932C813D81A20FB31F2B
:1015700098509830C0F7D7CF8C91E82BEC93E1CFFF
:10158000E0958C91E823FACF8C91E827F7CF0130D2
:10159000110509F4ADCFE0F20230110509F4A5CF31
:1015A000AE0DBF1DAECF0F931F93CF93DF9377FF89
:1015B00004C0260F371F70E060E0DC011496CD9167
:1015C000DC91FB01E20FF31FCE17DF071CF49E0135
:1015D000261B370B121613064CF5FA0157FD3796EA
:1015E000A3E0F595E795AA95E1F7EC9FD001ED9F73
:1015F000B00DFC9FB00D11246A0F7B1FDC015F96BC
:10160000ED91FC91E60FF71F4770552781E090E0C0
:1016100001C0880F4A95EAF7482F0130110559F0AB
:10162000A8F02E0F3F1F02301105E1F0DF91CF919E
:101630001F910F9108952E0F3F1FE217F307B1F38B
:101640008191DF011197842B8C93F7CF80952E0F1A
:101650003F1FE217F30751F39191DF011197982390
:101660009C93F7CFE217F30709F38191DF011197FC
:1016700084278C93F7CF0F931F93FA01DC015696C2
:101680004C9156974230E9F04330A1F1413061F579
:1016900014964D915C91DA01AE1BBF0BFD01E21B6C
:1016A000F30B77FD0BC0DC0116964D915C9164172E
:1016B000750724F4AB01BF010E94D30A1F910F915B
:1016C000089514964D915C91DA01A61BB70BBD01EC
:1016D00061507109DC0116964D915C91DA01AE1BE7
:1016E000BF0BFD01E21BF30B77FDE8CFAF010E94BA
:1016F000240AE4CF16964D915C91DA01A61BB70B34
:10170000BD0161507109CDCF0F931F93FA01DC0128
:1017100056964C9156974230A9F0433091F14130A2
:1017200019F514964D915C91DA01AE1BBF0BFD01CA
:101730003197F7FD04C0AB01BF010E94240A1F913D
:101740000F91089514964D915C91DA01A61BB70B89
:10175000BD01DC0116964D915C91DA01AE1BBF0B09
:10176000FD013197621B730BF7FDE9CFDC01169683
:101770004D915C91E417F50714F7AF010E94D30A6D
:10178000DECF16964D915C91DA01A61BB70BBD0119
:10179000621B730BCECFFC0177FD64C08085918501
:1017A000681779070CF05EC057FD5CC08285938591
:1017B000481759070CF056C086898230B1F0833043
:1017C00029F1813041F484819581841B950BAB0113
:1017D000BC01615071092130310509F108F443C0A1
:1017E0002230310509F463C0089584819581DC01BC
:1017F000A61BB70BBD016150710986819781DC0181
:10180000A41BB50BAD0141505109E5CF86819781ED
:10181000861B970BBA01AC0141505109DCCFCA01BC
:1018200057FD0796A3E095958795AA95E1F7A481C2
:10183000B5818A9F90018B9F300D9A9F300D1124A6
:10184000620F731F078CF0A1E02DE60FF71F4770A2
:10185000552721E030E001C0220F4A95EAF7808148
:10186000822B80830895CA0157FD079633E0959532
:1018700087953A95E1F7A481B5818A9F90018B9F66
:10188000300D9A9F300D1124620F731F078CF0A149
:10189000E02DE60FF71F4770552781E090E001C06B
:1018A000880F4A95EAF7809590818923DACFCA019B
:1018B00057FD079623E0959587952A95E1F7A48132
:1018C000B5818A9F90018B9F300D9A9F300D112416
:1018D000620F731F078CF0A1E02DE60FF71F477012
:1018E000552721E030E001C0220F4A95EAF78081B8
:1018F0008227B7CF08958EBD00000DB407FEFDCF3F
:101900008EB508958CBD9DBD08950895FC0163704A
:10191000668B8481958126813781613039F063300F
:1019200029F0918780873387228708953187208720
:101930009387828708952F923F924F925F926F9282
:101940007F928F929F92AF92BF92CF92DF92EF924F
:10195000FF920F931F93CF93DF93CDB7DEB76A97B4
:101960000FB6F894DEBF0FBECDBF9A8F898F7A83F2
:1019700069834A01D22E18870F833701BC2CDC0102
:1019800059962D913C915A972115310509F015C1B1
:1019900018968D919C911997681779070CF0D7C10B
:1019A0001A968D919C91481759070CF0D0C14C2C78
:1019B000512CB6E0CB9E600D711D11247C876B8786
:1019C000161617060CF0C3C1EA2DF0E0FA87E98776
:1019D00093E0EE0FFF1F9A95E1F7F88BEF87CF01A9
:1019E000840F951F181619060CF0B1C1A98DBA8D78
:1019F00058968C91811104C0BFEABD1508F4D394A8
:101A0000A98DBA8DED91FC9111970284F385E02D9B
:101A1000CD010995B5E0DB9EC0011124E981FA8171
:101A2000FC83EB83312C212C9C0128593F4F388FAC
:101A30002F8B4A2D50E05E8B4D8BEF89F88DE20D98
:101A4000F31D44919E828D82D12CC12C69817A81B3
:101A5000620D731D7A8B698B842F90E09C8B8B8B2E
:101A6000E98DFA8DA081B18140FF82C0F1E0BF1203
:101A70006FC0AF126DC01C96ED91FC912F8138851F
:101A8000A4014C0D5D1D69897A89898D9A8D09950E
:101A9000EB89FC89F595E7954E2F5FEFC51AD50ABE
:101AA0006D817E818D899E89680F791F7E836D830C
:101AB00098E0C916D10481F6AFEF2A1A3A0AEB81F1
:101AC000FC81E40DF51DFC83EB83F5E02F1631045A
:101AD00009F0B3CF2F81388526153705B9F0A98DC8
:101AE000BA8DED91FC91B1E0BB1257C0AB1255C05D
:101AF00069817A816B5F7F4F0088F189E02D8301D6
:101B000028E030E0A401898D9A8D0995A98DBA8DC0
:101B1000ED91FC9111970688F789E02DCD016A9629
:101B20000FB6F894DEBF0FBECDBFDF91CF911F91EE
:101B30000F91FF90EF90DF90CF90BF90AF909F906C
:101B40008F907F906F905F904F903F902F9009946F
:101B50001E96ED91FC91EF80F88409851A8592011B
:101B60004D815E816B817C81898D9A8D099590CFA5
:101B70002F8138852615370509F48ACF31E0B31255
:101B800007C0A31205C01C96ED91FC91930178CF7C
:101B90001E96ED91FC917301E0CF6B857C856419F5
:101BA00075090684F785E02D73010F851889920168
:101BB000A401898D9A8D0995A9CFF9013496949144
:101BC000329745915491D91AB7E0DB9E400D511DD3
:101BD0001124F901259134913C8B2B8BFA0125902E
:101BE0003490FA013296749031963491398B329652
:101BF00064903196449041E04C1518F04A1508F075
:101C00007FC0662D062C000C770B7C836B83842DA4
:101C1000042C000C990B9E838D83A98DBA8DED91B8
:101C2000FC9111970284F385E02DCD010995512C8B
:101C3000D12CC12CEA2DF0E0FA87E9872B2D30E07A
:101C40003C872B87A401440D511D47FC5A95588FA2
:101C50004F8B69817A81660D711D67FC7A957E874D
:101C60006D877989C71608F051CF2C2D30E04D8152
:101C70005E81420F531FA985BA854A9FC0014B9FC1
:101C8000900D5A9F900D1124FC01E80DF91DF88B61
:101C9000EF87852D612C4F89588D420F531F5E8B26
:101CA0004D8B671408F050C044244394480E87704D
:101CB00041F4C1010196EB89FC89E20DF31DD4903A
:101CC0001C01D7FE19C0A98DBA8DED91FC91662D2E
:101CD00070E0B1E0BB1219C0AB1217C02D853E8574
:101CE000620F731F0484F585E02D2F8138854D899F
:101CF0005E89898D9A8D0995DD0C6394842DD1CFF1
:101D00001E821D821C821B8288CF4B815C81640FE6
:101D1000751FAB85BC856A9FC0016B9F900D7A9F34
:101D2000900D112469817A81680F791F0684F785E7
:101D3000E02DEF80F88409851A859D014F8558892B
:101D4000898D9A8D0995D8CF570CC3948ACF6A96FE
:101D50000FB6F894DEBF0FBECDBFDF91CF911F91BC
:101D60000F91FF90EF90DF90CF90BF90AF909F903A
:101D70008F907F906F905F904F903F902F9008953D
:101D80008F929F92AF92CF92EF92FF920F931F93F9
:101D9000CF93DF93EC01262F898D9A8D009709F060
:101DA00051C06A30D1F41D861C868D8948E0849F1D
:101DB000900111248E859F85820F931F9F878E87A8
:101DC00081E090E0DF91CF911F910F91FF90EF9014
:101DD000CF90AF909F908F9008956D3089F3CC880D
:101DE000AD888F898823C1F08C859D8536E0C39EA0
:101DF000800D911D1124488559854817590764F4B1
:101E00004E855F851D861C8638E0A39EC001112487
:101E1000840F951F9F878E87EA88FB880889198918
:101E20004E855F856C857D85CE010E949B0C2C893B
:101E30008C859D8546E0249F800D911D11249D87F2
:101E40008C87BECF6A3069F41D861C86FC013896EB
:101E5000E4912D898E859F85E29F800D911D11242F
:101E6000ADCF6D3009F4ACCFFC01349634916317DB
:101E700008F4A6CF3296E491E61708F4A1CFFC014E
:101E8000329685909490462F431B342F47E0349F21
:101E9000800C911C1124F401329634913196E49116
:101EA0003323A9F1EE2399F1CC88F4013596E4911E
:101EB000AD884F89442301F10E2E000CFF0BE30F78
:101EC000F11DCE9EA001CF9E500D11246C857D8505
:101ED000460F571F68857985641775076CF44E8522
:101EE0005F851D861C86FC013896E491AE9E400DF0
:101EF000511D11245F874E87EA88FB88088919895C
:101F00004E855F856C857D85CE010E949B0CF4011A
:101F10003496E4912C898C859D85E29F800D911DDE
:101F200011248DCF6F927F928F929F92AF92BF922A
:101F3000CF92DF92EF92FF920F931F93CF93DF9395
:101F4000EC016B015A0139014801E881F9810284F1
:101F5000F385E02D0995E881F9810288F389E02D68
:101F600087019301A501B601CE010995A501480D90
:101F7000591D41505109E881F9810288F389E02D0A
:101F80009301B601CE010995E881F9810088F189B4
:101F9000E02D9401A501B601CE010995C60CD71C10
:101FA000B60161507109E881F9810088F189E02D5D
:101FB0009401A501CE010995E881F9810688F78988
:101FC000E02DCE01DF91CF911F910F91FF90EF9007
:101FD000DF90CF90BF90AF909F908F907F906F9049
:101FE00009946F927F928F929F92AF92BF92CF92FD
:101FF000DF92EF92FF920F931F93CF93DF935C01D9
:10200000EB016A01490138018701DC01ED91FC9186
:102010006217730719F5641675062CF0962D872D37
:102020003A01C92ED82E9601261937092F5F3F4F46
:10203000048CF58DE02DA301BE01C5010995DF914A
:10204000CF911F910F91FF90EF90DF90CF90BF90B5
:10205000AF909F908F907F906F9008954615570591
:1020600091F42617370724F0892D4B01C22FD82F62
:102070009E01281939092F5F3F4F068CF78DE02DFF
:10208000A601B401DACF0284F385E02D0995D501CC
:10209000ED91FC910488F589E02D83019401A6015E
:1020A000BE01C5010995D501ED91FC910688F7891E
:1020B000E02DC501DF91CF911F910F91FF90EF901F
:1020C000DF90CF90BF90AF909F908F907F906F9058
:1020D0000994EF92FF920F931F93DC011A960D91D2
:1020E0001C911B9718962D913C911997ED91FC919D
:1020F00000A0F1A1E02D7B0150E040E070E060E045
:1021000009951F910F91FF90EF9008954F925F9264
:102110006F927F928F929F92AF92BF92CF92DF92F7
:10212000EF92FF920F931F93CF93DF936C012B01DC
:102130005A0139014801DC01ED91FC910284F385DB
:10214000E02D0995E201640C751CD601ED91FC911E
:10215000C615D7055CF40088F189E02D870194014C
:10216000A501BE01C60109952196EFCF0688F78922
:10217000E02DC601DF91CF911F910F91FF90EF905D
:10218000DF90CF90BF90AF909F908F907F906F9097
:102190005F904F9009948F929F92AF92BF92CF928F
:1021A000DF92EF92FF920F931F93CF93DF93EC0197
:1021B0005B014A016901E881F9810284F385E02D20
:1021C000099595012C0D3D1D21503109E881F981BA
:1021D0000488F589E02D78018401A401B501CE01C0
:1021E0000995E881F9810688F789E02DCE01DF9114
:1021F000CF911F910F91FF90EF90DF90CF90BF9004
:10220000AF909F908F9009948F929F92AF92BF92C0
:10221000CF92DF92EF92FF920F931F93CF93DF93B2
:10222000EC015B014A0169017801E881F9810284CE
:10223000F385E02D0995C80CD91C860101501109C0
:10224000E881F9810488F589E02D9501A401B501A3
:10225000CE010995E881F9810688F789E02DCE0144
:10226000DF91CF911F910F91FF90EF90DF90CF9072
:10227000BF90AF909F908F900994EF92FF920F9331
:102280001F93DC01ED91FC9100A0F1A1E02D0995D7
:102290001F910F91FF90EF9008950F931F93DC0112
:1022A000ED91FC91068CF78DE02D09951F910F9112
:1022B00008950F931F93DC01ED91FC91048CF58D33
:1022C000E02D09951F910F910895DC01ED91FC918E
:1022D0000084F185E02D09943F924F925F926F92B6
:1022E0007F928F929F92AF92BF92CF92DF92EF92A6
:1022F000FF920F931F93CF93DF935C017B014A0101
:102300006901390187E0680E711C93E07594679448
:102310009A95E1F72B01400E511E10E000E0312CA0
:10232000D0E0C0E0CE0187709927330C892B59F497
:10233000FE0183E0F595E7958A95E1F7E00FF11F3F
:10234000E80DF91D349037FE0AC021E030E0A70106
:10235000B5016C0F7D1F88EE93E00E9465112196F8
:10236000CC16DD06F9F68FEFE81AF80A060D171DF0
:10237000E414F504A9F6DF91CF911F910F91FF901E
:10238000EF90DF90CF90BF90AF909F908F907F9015
:102390006F905F904F903F9008952F923F924F9291
:1023A0005F926F927F928F929F92AF92BF92CF92E5
:1023B000DF92EF92FF920F931F93CF93DF9300D0A2
:1023C00000D000D0CDB7DEB73C016A013E832D833B
:1023D000FC82EB825801A41AB50AB7FE03C0B1947F
:1023E000A194B1088D809E80861A970A97FE03C03B
:1023F0009194819491088A149B045CF0902F812F12
:102400000D811E819D838E839C2D8D2D6B01692FE7
:10241000782F0C151D055CF09D818E817E836D8368
:10242000692F782F902F812F8601C92ED82E160163
:10243000201A310A2B012D813E81421A530A57FE80
:1024400003C0519441945108710137FE03C03FEF1E
:10245000E31AF30AF594E7948D819E818617970716
:102460005CF5A1E0B0E0BA83A983C016D1064CF1B7
:10247000D301ED91FC910484F585E02D2B813C8105
:10248000A8016D817E818A149B041CF04D815E81C0
:10249000B801C3010995E418F508F7FE0AC02D81BB
:1024A0003E8189819A81280F391F3E832D83E20C5A
:1024B000F31C0F5F1F4FD9CF2FEF3FEF3A832983D4
:1024C000D4CF26960FB6F894DEBF0FBECDBFDF91F6
:1024D000CF911F910F91FF90EF90DF90CF90BF9021
:1024E000AF909F908F907F906F905F904F903F90B4
:1024F0002F90089508952091E002260F3327331F6F
:1025000021323105ECF420910403FC0190E080E0DD
:10251000243069F082E00895A091E0022191AC019D
:1025200040545D4FA40FB52FB11D2C930196861713
:1025300098F38091E002680F6093E00280E00895D4
:1025400081E008959B01AC0160E074E284EF90E0CB
:102550000E947A3220513109410951095695479517
:10256000379527952093B80008951092040381E0D1
:10257000809306031092050361E082E10E947606D3
:1025800061E083E10E947606E9EBF0E080818E7FD6
:10259000808380818D7F808388E48093B80085E488
:1025A0008093BC000895CF93DF9391E09093BF0296
:1025B0008823B9F0C091B800D091BA008091BC00D6
:1025C0008A7B8093BC0060E082E10E94760660E036
:1025D00083E10E9476060E94B512D093BA00C093A0
:1025E000B800DF91CF910895E091390380913803CD
:1025F000E81730F4F0E0E656FD4F808190E0089552
:102600008FEF9FEF089590913903809138032FEF5A
:102610003FEF981748F4E92FF0E0E656FD4F208190
:1026200030E09F5F90933903C9010895809138038A
:1026300090913903891B990B0895CF92DF92EF9205
:10264000FF920F931F93CF93DF937C01CB018A01FD
:1026500020913E03222389F0EB016B01C40ED51EAD
:10266000CC15DD0569F06991D701ED91FC910190E0
:10267000F081E02DC7010995F3CF642F0E947B12F2
:10268000C801DF91CF911F910F91FF90EF90DF90E4
:10269000CF900895CF93DF931F92CDB7DEB76983B4
:1026A00020913E032223F9F020913B03203258F081
:1026B00021E030E0FC013383228390E080E00F9042
:1026C000DF91CF91089580913C03E82FF0E0E65828
:1026D000FD4F998190838F5F80933C0380933B03F0
:1026E00081E090E0ECCF61E0CE0101960E947B1288
:1026F000F7CFCF92DF92EF92FF920F931F93CF937A
:10270000DF93D0913B0381E0D13208F09CC0C091AF
:102710003D030E94D5066B017C0180910403811169
:102720006CC082E08093040381E0809306038FEF06
:102730008093030310922803D0932703AAE7B2E003
:10274000E7E0F3E080E0D8138DC010922903809178
:102750002903CC0FC82BC093290380910503813036
:1027600009F084C0109205030E94D5066B017C011C
:10277000809129038093BB008091BB029091BC02A1
:10278000A091BD02B091BE02892B8A2B8B2BA1F0A8
:102790000E94D5060091BB021091BC022091BD029F
:1027A0003091BE026C197D098E099F090617170723
:1027B0002807390708F442C08091BC0083FDD8CFB8
:1027C00085EC8093BC000E94D5066B017C01809152
:1027D0000403823009F44CC0809103038F3F09F455
:1027E00069C080910303803209F466C080910303BD
:1027F000803309F463C084E026C08091BB029091CD
:10280000BC02A091BD02B091BE02892B8A2B8B2BFA
:1028100009F483CF0E94D5060091BB021091BC023F
:102820002091BD023091BE026C197D098E099F096D
:10283000061717072807390708F06FCF8091BA02EB
:102840000E94D31285E010923C0310923B03109239
:102850003E03DF91CF911F910F91FF90EF90DF909A
:10286000CF9008959D9191938F5F6DCF85EEA9CF05
:102870008091BB029091BC02A091BD02B091BE02BA
:10288000892B8A2B8B2B09F4A2CF0E94D5060091AD
:10289000BB021091BC022091BD023091BE026C19A6
:1028A0007D098E099F09061717072807390708F0C1
:1028B0008ECFC4CF80E0C7CF82E0C5CF83E0C3CF47
:1028C000EF92FF920F931F93CF93DF937C01C62F5C
:1028D0008091050490910604009709F459C0209155
:1028E000090431E030933E0320933D0310923C03F2
:1028F00010923B03DC01ED91FC910190F081E02D01
:1029000060E009958701EE24E394F12CD1E0C150F9
:102910008091050490910604CF3F91F1B0E2EB164F
:10292000F104D8F00E947913809105049091060477
:1029300020910904D0933E0320933D0310923C0361
:1029400010923B03DC01ED91FC910190F081E02DB0
:1029500060E00995EE24E394F12C809105049091B8
:102960000604F8016491DC01ED91FC910190F08185
:10297000E02D0995BFEFEB1AFB0A0F5F1F4FC7CF82
:10298000DF91CF911F910F91FF90EF900C947913ED
:10299000E0911504F0911604908180911B048095BC
:1029A000892380838701C15008F438C0F8018491DD
:1029B0002091030430910404232B29F00E947B0C06
:1029C0000F5F1F4FF0CF28E030E040E8E0911104A6
:1029D000F091120490911904582F5423D9F050818A
:1029E000952B9083E0911304F09114049081509101
:1029F0001A04952B9083E0911304F09114045081F4
:102A000090911A0490959523908346952150310911
:102A1000E9F6D6CF508190959523E3CFDF91CF9102
:102A20001F910F91FF90EF9008951F93CF93DF9325
:102A3000EC018D8D9E8D009721F1162F29A131E09B
:102A400030933E0320933D0310923C0310923B03CE
:102A5000DC01ED91FC910190F081E02D60E00995A1
:102A60008D8D9E8DDC01ED91FC910190F081E02D2A
:102A7000612F09958D8D9E8DDF91CF911F910C94C3
:102A80007913ADA5BEA59C918BA9809589238C93C4
:102A90008B8D9C8D892B31F0862FDF91CF911F91EB
:102AA0000C947B0C28E030E080E8A9A5BAA599A990
:102AB000462F4823C1F04C91942B9C93ABA5BCA509
:102AC0009C914AA9942B9C93ABA5BCA54C919AA927
:102AD000909594239C9386952150310931F7DF918D
:102AE000CF911F9108954C9190959423E6CFDF925A
:102AF000EF92FF920F931F93CF93DF938091050482
:102B000090910604892B09F48AC060911D0470918C
:102B10001E0480911F04909120040E94A21265E07F
:102B200081EE9BE00E9460146091EC03615088EE9E
:102B300093E00E9415152091EE033091EF03C90137
:102B4000079697FD079623E0959587952A95E1F7D7
:102B50002091EC033091ED03829F8001839F100D43
:102B6000929F100D1124C0910704D0910804809108
:102B70000504909106040C0F1D1F009709F480C0F6
:102B80002091090431E030933E0320933D031092DD
:102B90003C0310923B03DC01ED91FC910190F0812C
:102BA000E02D60E40995EE24E394F12CDD24D39428
:102BB00080910504909106040C171D0709F446C086
:102BC000B0E2EB16F104D8F00E947913809105046D
:102BD0009091060420910904D0923E0320933D0376
:102BE00010923C0310923B03DC01ED91FC910190AB
:102BF000F081E02D60E40995EE24E394F12C8091BE
:102C00000504909106046991DC01ED91FC9101901D
:102C1000F081E02D0995BFEFEB1AFB0AC9CF809137
:102C2000030490910404892B31F080912604909143
:102C300027040E94820CE0911704F09118049081FF
:102C400080911C0480958923808369CF0E94791329
:102C50008091050490910604892B09F452C060917B
:102C60002104709122048091230490912404DF9127
:102C7000CF911F910F91FF90EF90DF900C94A212D3
:102C8000E0911504F0911604808190911B04892B2A
:102C900080830C171D07E1F2899120910304309184
:102CA0000404232B19F00E947B0CF3CF28E030E0C2
:102CB00040E8E0911104F091120490911904582F0A
:102CC0005423D9F05081952B9083E0911304F09117
:102CD0001404908150911A04952B9083E091130471
:102CE000F0911404508190911A049095952390834B
:102CF000469521503109E9F6CCCF50819095952326
:102D0000E3CFE0911704F0911804808190911C04A6
:102D1000892B8083DF91CF911F910F91FF90EF90CE
:102D2000DF900895CF93C82F8091050490910604F9
:102D3000892B01F160911D0470911E0480911F0484
:102D4000909120040E94A2126C2F88EE93E00E94C2
:102D500015158091050490910604892B11F160915D
:102D60002104709122048091230490912404CF9136
:102D70000C94A2128091030490910404892B31F0E9
:102D800080912604909127040E94820CE091170400
:102D9000F0911804908180911C0480958923808390
:102DA000D3CFE0911704F0911804808190911C0416
:102DB000892B8083CF9108951F93CF93DF93EC01EC
:102DC000162F8D8D9E8D892BC9F06DA97EA98FA997
:102DD00098AD0E94A21266EA111167EACE010E9424
:102DE00015158D8D9E8D892BC9F069AD7AAD8BAD92
:102DF0009CADDF91CF911F910C94A2128B8D9C8D75
:102E0000892B21F08EAD9FAD0E94820CEFA5F8A911
:102E100090818CA9809589238083DDCFEFA5F8A9C7
:102E200080819CA9892B8083DF91CF911F91089588
:102E300090E080E00895CF92DF92EF92FF920E949F
:102E4000B4086B017C010E94B4086C197D098E09DD
:102E50009F09683B7B408105910560F482E00E94F8
:102E60004D06019769F06AE070E080E090E00E9412
:102E7000FA06E9CF81E0FF90EF90DF90CF900895C0
:102E800080E0F9CFCF93DF93EC010E94B408688310
:102E900079838A839B83DF91CF9108951F93CF938A
:102EA000DF93EC011C82611104C08A819B81892B14
:102EB000F1F0162F0E94B40828813981AB01421B22
:102EC000530B9A01EA81FB81E930F10508F041C01A
:102ED000E459F84E0C94D43375177B178317B21747
:102EE0008B17A91793179B179B1711112FC0DF91F1
:102EF000CF911F910895112361F144315105BCF325
:102F000022E030E01CC0112339F1243F31407CF332
:102F100028E030E014C0111122C02E3531403CF3BE
:102F200025E030E00CC01123E9F044315105FCF2FA
:102F300027E030E004C029E030E01111D8CF7983D8
:102F400068833B832A8381E08C83D1CF21E030E00A
:102F5000F6CF30E020E0F3CF23E030E0F0CF26E002
:102F600030E0EDCF24E030E0EACFFC0180819181B8
:102F7000009711F00C948A3408952091EE0330915B
:102F8000EF03C901079697FD079623E0959587956E
:102F90002A95E1F72091EC033091ED03829FA00187
:102FA000839F500D929F500D112470E060E080913E
:102FB0000704909108040C94DE350F931F93CF9370
:102FC0008091070490910804892B09F10E94BD1794
:102FD0002091EE033091EF038091EC039091ED038B
:102FE00021323105C4F5B9016052710977FF02C081
:102FF0006F5F7F4F759567958357910997FD019690
:1030000000E210E023E730E04AE257E037C02091C9
:10301000EE033091EF03C901079697FD0796B3E0E1
:1030200095958795BA95E1F72091EC033091ED03E2
:10303000AC01429FC001439F900D529F900D1124FF
:103040000E94EE339093080480930704892B09F0C3
:10305000BDCF80E0E4C0B9016054710977FF02C0C0
:103060006F5F7F4F759567958255910997FD019622
:1030700000E410E022E530E04AE059E095958795BC
:103080000E946C1182E080930A0480910504909163
:103090000604892B09F4C7C08CE3809309041092BD
:1030A00039031092380310923C0310923B030E94A4
:1030B000B51282E296E0909337038093360383E261
:1030C00096E090933503809334038091100487FD3C
:1030D0001EC061E00E94A40661E0809110040E947D
:1030E000760661E070E080E090E00E94FA0660E021
:1030F000809110040E9476066AE070E080E090E023
:103100000E94FA0661E0809110040E947606809188
:10311000050490910604892B09F444C160911D04B3
:1031200070911E0480911F04909120040E94A212AD
:1031300064E084EF96E00E9460146091EE036150B9
:1031400088EE93E00E94151564E080EF96E00E94FF
:10315000601480910A0464E1813009F460E188EE32
:1031600093E00E94151564E08CEE96E00E946014D6
:103170008FE8809325048091EC039091ED038038D3
:10318000910509F028C18091EE039091EF038034FE
:10319000910509F030C180910A04813009F419C108
:1031A0008FEC80932504C2E16AED88EE93E00E94E3
:1031B00015156C2F88EE93E00E94151561E888EED6
:1031C00093E00E9415156091250488EE93E00E941B
:1031D000151569ED88EE93E00E94151580910A049B
:1031E00061EF813009F462E288EE93E00E941515E8
:1031F00066E086EE96E00E9460148091050490914E
:103200000604892B09F4FBC060912104709122040B
:1032100080912304909124040E94A21281E0CF9116
:103220001F910F91089561E080910E040E94A40601
:1032300061E080910F040E94A40680910E04082E84
:10324000000C990BFC01EA5EF84FE491F0E0EE0F00
:10325000FF1FE45FF84F25913491309316042093BB
:103260001504FC01E850F94FE491E0931B048091B0
:103270000F04082E000C990BFC01EA5EF84FE49154
:10328000F0E0EE0FFF1FE45FF84FA591B491B0930B
:103290001804A0931704FC01E850F94FE491E0935F
:1032A0001C048C91E82BEC9380910304909104040E
:1032B000892B09F434C0CFB7F8948091330381117E
:1032C00027C0E0E2F7E08491E2E0F7E09491E82F94
:1032D000F0E0EE0FFF1FE452F94FA591B491EC918D
:1032E000E92321F461E08AE00E94760661E08AE049
:1032F0000E94A4068CB580618CBD8CB580648CBDA9
:1033000061E08DE00E94A40661E08BE00E94A406CB
:10331000809133038F5F80933303CFBFD6CE61E0BC
:1033200080910C040E94A40661E080910D040E942B
:10333000A40680910C04082E000C990BFC01EA5E97
:10334000F84FE491F0E0EE0FFF1FE45FF84F259196
:1033500034913093120420931104FC01E850F94F8A
:10336000E491E093190480910D04082E000C990B50
:10337000FC01EA5EF84FE491F0E0EE0FFF1FE45F1E
:10338000F84FA591B491B0931404A0931304FC01D9
:10339000E850F94FE491E0931A048C91E095E8230A
:1033A000EC9393CE8091030490910404892B31F027
:1033B00080912604909127040E94820CE0911704CA
:1033C000F0911804908180911C048095892380835A
:1033D000AFCE8FE9E6CE8036910569F48091EE0399
:1033E0009091EF03409739F480910A04813029F0DD
:1033F0008FEA80932504C2E0D7CE80E1FACFE09136
:103400001704F0911804808190911C04892B80830B
:1034100005CF0E94D035FB0101900020E9F73197DC
:10342000AF01461B570BDC01ED91FC910280F3814B
:10343000E02D09940F931F93CF93DF938C01D0E07D
:10344000C0E0F801EC0FFD1F6491662341F08FE3AB
:1034500093E00E946909892B11F02196F2CF61E86F
:1034600071E08FE393E00E940B1A8C0F9D1FDF9198
:10347000CF911F910F9108958F929F92AF92BF921B
:10348000EF92FF920F931F93CF93DF93CDB7DEB7E9
:10349000A1970FB6F894DEBF0FBECDBF7C01FA0135
:1034A000CB0119A2223008F42AE08E010F5D1F4FD4
:1034B000822E912CB12CA12CBF01A50194010E9458
:1034C0007A32F901CA016A300CF5605DD8016E9359
:1034D0008D01232B242B252B79F790E080E010978A
:1034E00021F0BD01C7010E940B1AA1960FB6F894F6
:1034F000DEBF0FBECDBFDF91CF911F910F91FF9027
:10350000EF90BF90AF909F908F900895695CDECF51
:103510008F929F92AF92BF92CF92DF92EF92FF92E3
:10352000CF93DF93F090E40460E070E080EC9FE7DD
:10353000FF2009F1C091E604D091E704812C912C81
:103540005401E12C2991399149915991C501B40156
:103550000E94AC324B015C01E394FE10F3CF6F2D5F
:1035600070E090E080E00E94E6309B01AC01C50174
:10357000B4010E9418330E948A339B01643671059E
:1035800014F063E670E081E08093FC038093FD0318
:1035900084E690E09093F5038093F4031092F70390
:1035A0001092F6036B01770FEE08FF0837FF23C078
:1035B0006DE288EE93E00E94C00E44275527BA01C1
:1035C0004C195D096E097F092AE088EE93E00E949C
:1035D0003C1A64E871E088EE93E00E940B1ADF91D8
:1035E000CF91FF90EF90DF90CF90BF90AF909F90E2
:1035F0008F900C9477152AE0B701A601E6CF0F93C0
:103600001F93CF93DF93EC0188819981009759F044
:103610002A813B812617370730F081E0DF91CF9177
:103620001F910F9108958B016F5F7F4F0E9413359B
:10363000009759F0998388831B830A832C813D81ED
:10364000232B59F7FC011082E8CF80E0E7CFEF92FF
:10365000FF920F931F93CF93DF93EC017B011982AD
:1036600018821B821A821D821C82FB01019000209D
:10367000E9F731978F01061B170BB8010E94FF1A5B
:1036800028813981811113C02115310519F0C90133
:103690000E948A34198218821D821C821B821A821F
:1036A000DF91CF911F910F91FF90EF9008951D83AF
:1036B0000C83B701C901DF91CF911F910F91FF904A
:1036C000EF900C94E535CF93DF9300D000D000D07D
:1036D000CDB7DEB70E94BD1763EA71E0CE01019657
:1036E0000E94271B81E08093FC038093FD031092CE
:1036F000F5031092F4031092F7031092F603CE0133
:1037000001960E94ED08CE0101960E94B5178091A6
:10371000490490914A0461E971E0892B41F4809158
:103720004D0466E871E0811102C067E871E0CE01E6
:1037300001960E94271B82E08093FC038093FD0387
:103740001092F5031092F4038CE090E09093F7034D
:103750008093F603CE0101960E94ED08CE010196FA
:103760000E94B5170E94771526960FB6F894DEBF13
:103770000FBECDBFDF91CF910895CF93DF9300D0DF
:1037800000D000D0CDB7DEB70E94BD176CE971E064
:10379000CE0101960E94271B81E08093FC03809359
:1037A000FD031092F5031092F4031092F7031092A8
:1037B000F603CE0101960E94ED08CE0101960E940B
:1037C000B51720914B0430914C0480915004232B69
:1037D00061F56CEA71E0811102C06EEA71E0CE0120
:1037E00001960E94271B82E08093FC038093FD03D7
:1037F0001092F5031092F4038CE090E09093F7039D
:103800008093F603CE0101960E94ED08CE01019649
:103810000E94B5170E94771526960FB6F894DEBF62
:103820000FBECDBFDF91CF91089568EB71E081119C
:10383000D6CF66EB71E0D3CF0F931F93CF93DF9377
:1038400000D000D000D0CDB7DEB78AEC9BE00E945C
:103850001A1A0E94BD1761EC71E0CE0101960E9418
:10386000271BE8EEF3E081E0848B858B15861486B8
:1038700017861686CE0101960E94ED08CE010196AC
:103880000E94B5170E94771500E011E08FE196E0E5
:10389000F80191838083E9E6F0E080818C7F80836A
:1038A000E89A30E020E050E040E06AE070E08AE32F
:1038B00093E00E94D609E89880E296E0F8019183AF
:1038C00080838EE394E00E94421726960FB6F89408
:1038D000DEBF0FBECDBFDF91CF911F910F91089535
:1038E000EF92FF920F931F93CF93DF93EC017B0135
:1038F000FB0101900020E9F731978F01061B170BA0
:10390000B8010E94FF1A28813981811113C0211545
:10391000310519F0C9010E948A34198218821D826A
:103920001C821B821A82DF91CF911F910F91FF9011
:10393000EF9008951D830C83B701C901DF91CF91EA
:103940001F910F91FF90EF900C94E535CF93DF938B
:1039500000D000D000D0CDB7DEB76DEC71E08FE3C2
:1039600093E00E940B1A61E871E08FE393E00E94FC
:103970000B1A0E94BD1763E871E0CE0101960E9408
:10398000271B80914504909146046DED71E08230D3
:10399000910559F066EE71E08430910531F067EDE4
:1039A00071E0019711F063E871E0CE0101960E9489
:1039B000701C82E08093FC038093FD031092F5035A
:1039C0001092F4038CE090E09093F7038093F60359
:1039D000CE0101960E94ED080E94881A0E94771578
:1039E000CE0101960E94B51726960FB6F894DEBF59
:1039F0000FBECDBFDF91CF9108950F931F93CF934B
:103A0000DF93CDB7DEB762970FB6F894DEBF0FBE77
:103A1000CDBF8C01CB01F80111821082138212827A
:103A2000158214824AE0BE016F5F7F4F0E94AA3068
:103A3000BE016F5F7F4FC8010E94701C62960FB677
:103A4000F894DEBF0FBECDBFDF91CF911F910F91D4
:103A50000895CF92DF92EF92FF920F931F93CF932F
:103A6000DF93CDB7DEB7AE970FB6F894DEBF0FBECB
:103A7000CDBF8C016B010E94BD17C60101969F93BB
:103A80008F931F930F938EEE91E09F938F93CE01B0
:103A900001967C019F938F930E94EC35B701CE0174
:103AA00089960E94271B81E08093FC038093FD038D
:103AB0001092F5031092F4031092F7031092F6039C
:103AC000CE0189960E94ED08CE0189960E94B51715
:103AD000780191E0E91AF1080FB6F894DEBF0FBE45
:103AE000CDBF43E0EE0CFF1C4A95E1F7CD2809F06D
:103AF00056C023E0000F111F2A95E1F7F801ED559C
:103B0000FB4F60817181CE0189960E94FD1C13E0FC
:103B10001093FC031093FD031092F5031092F4032D
:103B20003CE0C32ED12CD092F703C092F603CE0115
:103B300089960E94ED08CE0189960E94B517F7017B
:103B4000E355FB4F60817181CE0189960E94FD1C77
:103B50001093FC031093FD0380E490E09093F50331
:103B60008093F403D092F703C092F603CE018996B6
:103B70000E94ED08CE0189960E94B5170E94771524
:103B8000AE960FB6F894DEBF0FBECDBFDF91CF91DA
:103B90001F910F91FF90EF90DF90CF9008958701D4
:103BA00008511C4FF801E953FF4F60817181CE012C
:103BB00089960E94FD1C83E0F82EF092FC03F0929F
:103BC000FD031092F5031092F4039CE0C92ED12C52
:103BD000D092F703C092F603CE0189960E94ED08B9
:103BE000CE0189960E94B517F801E753FF4F608117
:103BF0007181CE0189960E94FD1CF092FC03F09227
:103C0000FD03AACFEF92FF920F931F93CF93DF9301
:103C100000D000D000D0CDB7DEB70E94BD1760E065
:103C200072E0CE0101960E94271B81E08093FC0385
:103C30008093FD031092F5031092F4031092F703A2
:103C40001092F603CE0101960E94ED08CE01019676
:103C50000E94B5178091570490915804019761F420
:103C600001E010E029E030E04FE150E070E060E07A
:103C700088EE93E00E94840B60915104709152048D
:103C8000CE0101960E94FD1C12E01093FC031093DC
:103C9000FD031092F5031092F4038FE0E82EF12C4F
:103CA000F092F703E092F603CE0101960E94ED0830
:103CB000CE0101960E94B517809157049091580447
:103CC000029754F16091530470915404CE0101960F
:103CD0000E94FD1C1093FC031093FD038EE190E005
:103CE0009093F5038093F403F092F703E092F603C8
:103CF000CE0101960E94ED08CE0101960E94B517F3
:103D000001E010E029E030E04FE150E06EE170E0CA
:103D100088EE93E00E94840B8091570490915804A0
:103D200003976CF16091550470915604CE01019691
:103D30000E94FD1C82E08093FC038093FD038CE3D2
:103D400090E09093F5038093F4038FE090E09093DC
:103D5000F7038093F603CE0101960E94ED08CE0191
:103D600001960E94B51701E010E029E030E04FE134
:103D700050E06CE370E088EE93E00E94840B0E94B8
:103D8000881A0E94771526960FB6F894DEBF0FBEEC
:103D9000CDBFDF91CF911F910F91FF90EF900895CC
:103DA000EF92FF920F931F93CF93DF9300D000D039
:103DB00000D0CDB7DEB70E94BD176EE072E0CE0135
:103DC00001960E94271B81E08093FC038093FD03F2
:103DD0001092F5031092F4031092F7031092F60379
:103DE000CE0101960E94ED08CE0101960E94B51702
:103DF0008091890490918A04029770E060E0873096
:103E0000910538F4865D9E4FFC016081062E000C02
:103E1000770B01E010E029E030E04FE150E088EE60
:103E200093E00E94840B6091590470915A04CE0172
:103E300001960E94FD1C12E01093FC031093FD03F9
:103E40001092F5031092F4038FE0E82EF12CF0921B
:103E5000F703E092F603CE0101960E94ED08CE0131
:103E600001960E94B51760915B0470915C04CE01CD
:103E700001960E94FD1C1093FC031093FD038CE03F
:103E800090E09093F5038093F403F092F703E092AF
:103E9000F603CE0101960E94ED08CE0101960E9424
:103EA000B5176BEC71E0CE0101960E94271B1093B1
:103EB000FC031093FD0384E190E09093F50380935D
:103EC000F403F092F703E092F603CE0101960E940C
:103ED000ED08CE0101960E94B51760915D047091C6
:103EE0005E04CE0101960E94FD1C1093FC0310930A
:103EF000FD038EE190E09093F5038093F403F0923C
:103F0000F703E092F603CE0101960E94ED08CE0180
:103F100001960E94B51760915F0470916004CE0114
:103F200001960E94FD1C1093FC031093FD038AE28E
:103F300090E09093F5038093F403F092F703E092FE
:103F4000F603CE0101960E94ED08CE0101960E9473
:103F5000B5176BEC71E0CE0101960E94271B109300
:103F6000FC031093FD0382E390E09093F5038093AC
:103F7000F403F092F703E092F603CE0101960E945B
:103F8000ED08CE0101960E94B51760916104709111
:103F90006204CE0101960E94FD1C1093FC03109355
:103FA000FD038CE390E09093F5038093F403F0928B
:103FB000F703E092F603CE0101960E94ED08CE01D0
:103FC00001960E94B5176091630470916404CE015C
:103FD00001960E94FD1C1093FC031093FD0388E4DE
:103FE00090E09093F5038093F403F092F703E0924E
:103FF000F603CE0101960E94ED08CE0101960E94C3
:10400000B5176091650470916604CE0101960E9417
:10401000FD1C1093FC031093FD0384E590E0909346
:10402000F5038093F403F092F703E092F603CE01D8
:1040300001960E94ED08CE0101960E94B51760918D
:10404000670470916804CE0101960E94FD1C1093D4
:10405000FC031093FD0380E690E09093F5038093BA
:10406000F403F092F703E092F603CE0101960E946A
:10407000ED08CE0101960E94B5170E94771526968D
:104080000FB6F894DEBF0FBECDBFDF91CF911F9169
:104090000F91FF90EF90089585ED8093BC00809183
:1040A000BB029091BC02A091BD02B091BE020796E6
:1040B000A11DB11D23E0B695A795979587952A95E3
:1040C000D1F72091BC0024FD03C010920403089591
:1040D0004091BB025091BC026091BD027091BE0242
:1040E000452B462B472B69F30097A105B10541F0FD
:1040F0002AE22A95F1F700C00197A109B109E1CFA1
:104100008091BA020C94D3120C940B321F920F922E
:104110000FB60F9211242F933F938F939F93AF93DA
:10412000BF9380912B0390912C03A0912D03B0910C
:104130002E0330912A0323E0230F2D3758F50196E3
:10414000A11DB11D20932A0380932B0390932C0370
:10415000A0932D03B0932E0380912F0390913003F1
:10416000A0913103B09132030196A11DB11D80933E
:104170002F0390933003A0933103B0933203BF9188
:10418000AF919F918F913F912F910F900FBE0F9004
:104190001F90189526E8230F0296A11DB11DD2CFBE
:1041A0001F920F920FB60F9211242F933F934F93AC
:1041B0005F936F937F938F939F93AF93BF93EF938F
:1041C000FF93E0910201F09103010995FF91EF91B6
:1041D000BF91AF919F918F917F916F915F914F911F
:1041E0003F912F910F900FBE0F901F9018951F9227
:1041F0000F920FB60F9211242F933F934F935F931B
:104200006F937F938F939F93AF93BF93EF93FF939E
:10421000E0910001F09101010995FF91EF91BF91AB
:10422000AF919F918F917F916F915F914F913F914E
:104230002F910F900FBE0F901F9018951F920F9205
:104240000FB60F9211242F933F934F935F936F9369
:104250007F938F939F93AF93BF93EF93FF938FE3DE
:1042600093E00E944709FF91EF91BF91AF919F9119
:104270008F917F916F915F914F913F912F910F900F
:104280000FBE0F901F9018951F920F920FB60F92AE
:1042900011242F938F939F93EF93FF93E0914F03FC
:1042A000F09150038081E0915503F091560382FD17
:1042B0001BC09081809158038F5F8F7320915903A9
:1042C000821741F0E0915803F0E0E15CFC4F958FDC
:1042D00080935803FF91EF919F918F912F910F90B1
:1042E0000FBE0F901F9018958081F4CF1F920F92F0
:1042F0000FB60F9211248F930FB6F894A895809162
:104300006000886180936000109260000FBE8F9102
:104310000F900FBE0F901F9018951F920F920FB61F
:104320000F9211242F933F934F935F936F937F933B
:104330008F939F93AF93BF93EF93FF938091B900B7
:10434000887F803609F44AC0F0F5883209F4A7C0A6
:1043500018F5803109F49BC0B8F4882309F4F9C03A
:10436000883009F494C0FF91EF91BF91AF919F9174
:104370008F917F916F915F914F913F912F910F900E
:104380000FBE0F901F901895883109F488C08032B5
:1043900051F78093030314C0803409F49DC040F4A6
:1043A0008033B9F38833F9F68093030385ECB0C00A
:1043B000803509F485C0883509F496C0883499F6AB
:1043C0000E944C20D0CF883909F48CC038F588374A
:1043D00029F050F4883611F0803729F683E0809375
:1043E00004031092020357C0883809F47BC0803957
:1043F00019F0803809F0B7CF80910203803208F0BD
:1044000071C0E091020381E08E0F809302038091DE
:10441000BB00F0E0EE51FD4F80833DC0803B39F0A2
:10442000E0F4803A09F479C0883A09F09CCF84E03E
:10443000809304031092E1021092E002E0913603AF
:10444000F091370309958091E00281110FC081E05E
:104450008093E0021092C00209C0803C09F4A6CF0C
:10446000883C09F4A3CF883B09F07DCFE091E102BD
:1044700081E08E0F8093E102F0E0E054FD4F8081F7
:104480008093BB009091E1028091E00229C080916D
:1044900029038093BB0085EC8093BC0064CF90918E
:1044A000280380912703981758F5E091280381E0AD
:1044B0008E0F80932803F0E0E95FFC4F8081E9CF05
:1044C000E091280381E08E0F809328038091BB0048
:1044D000F0E0E95FFC4F80839091280380912703EF
:1044E0009817C8F285E8D8CFE091280381E08E0FB5
:1044F000809328038091BB00F0E0E95FFC4F80834C
:104500008091060381115CCF81E08093050384EAEA
:104510008093BC001092040326CF85EC8093BC00EE
:104520001092040380910203803230F4E091020380
:10453000F0E0EE51FD4F10826091020370E0E091D7
:104540003403F091350382EE92E009951092020354
:104550000ACF1092030334CFCF93DF93EC01188678
:1045600084E1898380E590E00E94EE339D838C8313
:1045700084E190E00E94EE339F838E831A821B8237
:10458000188280E09981891738F4EE81FF81E80F65
:10459000F11D80838F5FF6CFDF91CF910895EF9269
:1045A000FF921F93CF93DF93CDB7DEB7A0970FB6DF
:1045B000F894DEBF0FBECDBF1092420310924103AC
:1045C00088EE93E0A0E0B0E080934303909344032F
:1045D000A0934503B093460325E331E030934003B5
:1045E00020933F0325EC30E030934C0320934B03A2
:1045F00024EC30E030934E0320934D0320EC30E068
:104600003093500320934F0321EC30E0309352035A
:104610002093510322EC30E0309354032093530352
:1046200026EC30E030935603209355031092580344
:104630001092590310925A0310925B031092DF03F9
:104640001092DE038093E0039093E103A093E203D2
:10465000B093E30387E491E09093DD038093DC0360
:1046600082EE94E00E94AC228BEE94E00E94AC2299
:104670001092EB031092EA0320E830E03093ED0350
:104680002093EC0380E290E09093EF038093EE039D
:104690003093F1032093F0039093F3038093F2039C
:1046A0001092FE031092F5031092F4031092F70398
:1046B0001092F60311E01093FD031093FC038FEFAB
:1046C0009FEF9093FB038093FA039093F9038093F9
:1046D000F8031093FF03109200041092020410924A
:1046E000010489E591E09093E9038093E803109237
:1046F0000404109203048CED93E0909306048093DD
:10470000050410920804109207048FEF80930C04A4
:1047100080930D0480930E0480930F048093100403
:1047200080E89AE1A6E0B0E080931D0490931E0417
:10473000A0931F04B093200480EA96E8A1E0B0E0C3
:104740008093210490932204A0932304B093240423
:1047500080E580932604109227040E94B408709389
:1047600029046093280410922B0410922A041092BA
:104770002C048CE090E090932E0480932D041092F2
:10478000300410922F0462E00E94A4060E94B40834
:104790007093320460933104109234041092330405
:1047A0001092350482E0E82EF12CF0923704E0926A
:1047B0003604109239041092380462E082E00E94BC
:1047C000A40680EC97E2A9E0B0E080933A049093CD
:1047D0003B04A0933C04B0933D040E94B408609352
:1047E0003E0470933F0480934004909341041092E0
:1047F00044041092430441E050E050934604409337
:104800004504109248041092470410924A041092F2
:10481000490410924C0410924B0410924D0484E011
:1048200090E090934F0480934E041093500485E0E1
:1048300090E0909352048093510490935404809399
:104840005304909356048093550450935804409316
:10485000570450938A044093890450935A04409318
:10486000590490935C0480935B0410925E04109250
:104870005D049093600480935F04509362044093BE
:10488000610429E030E03093640420936304909342
:104890006604809365049093680480936704109283
:1048A0006C0410926B0483E090E090936A04809310
:1048B00069041092700410926F0430936E04209378
:1048C0006D0410927204109271045093740440931A
:1048D0007304109276041092750430937804209338
:1048E000770410927A0410927904F0927C04E0929A
:1048F0007B0410927E0410927D04309380042093F8
:104900007F041092820410928104309384042093D7
:1049100083041092860410928504309388042093B7
:10492000870482E290E09093CC048093CB0480E2F1
:10493000EAE0F1E0DE01119601900D928A95E1F72F
:10494000CE01019630E020E0F901E557FB4F50E041
:1049500040E0DC01A40FB51F6D917C9161937193D0
:10496000178E168E4E5F5F4F4830510591F70896AF
:10497000285F3F4F2032310539F781E08093CD0425
:104980001092CF041092CE041092D1041092D00451
:104990001092D3041092D2041092D4041092D60430
:1049A0001092D5041092D8041092D7040E94B40833
:1049B0006093DA047093DB048093DC049093DD044D
:1049C0001092DE041092DF041092E0041092E104D1
:1049D000A0960FB6F894DEBF0FBECDBFDF91CF918A
:1049E0001F91FF90EF900895CF93DF93CDB7DEB77F
:1049F000E0970FB6F894DEBF0FBECDBF789484B5B4
:104A0000826084BD84B5816084BD85B5826085BDCA
:104A100085B5816085BD80916E00816080936E0058
:104A2000109281008091810082608093810080914A
:104A300081008160809381008091800081608093FB
:104A400080008091B10084608093B1008091B000BB
:104A500081608093B00080917A00846080937A00B6
:104A600080917A00826080937A0080917A008160E0
:104A700080937A0080917A00806880937A00109207
:104A8000C100E0914F03F091500382E08083E091F8
:104A90004B03F0914C031082E0914D03F0914E03D3
:104AA0008FEC808310925703E0915303F0915403ED
:104AB00086E08083E0915103F09152038081806110
:104AC0008083E0915103F09152038081886080835C
:104AD000E0915103F0915203808180688083E091DE
:104AE0005103F091520380818F7D808310923903AE
:104AF0001092380310923C0310923B030E94B512AF
:104B000082E296E0909337038093360383E296E047
:104B1000909335038093340390E080E00E94033249
:104B2000813061F58AE090E00E94033290E090933A
:104B30004F0480934E0484E190E00E94033291E0A0
:104B4000811101C090E0909350048EE190E00E94AA
:104B5000033291E0811101C090E090934D0468EB25
:104B60007BE080E090E00E94FA060E94DD17811150
:104B70001DC08DE895E00E941A1AFFCF61E090E019
:104B800080E00E94842060914E048AE090E00E94C0
:104B900084206091500484E190E00E948420609120
:104BA0004D048EE190E00E948420D9CF60ED77E043
:104BB00080E090E00E94FA060E94BD1701E010E03C
:104BC0001093FB030093FA031093F9030093F80387
:104BD0000E94DD17811105C088E795E00E941A1A2E
:104BE000CCCF60ED77E080E090E00E94FA060E9472
:104BF000BD171093FB030093FA031093F90300937E
:104C0000F80362E088EE93E00E94860C80914D04E8
:104C100062E0811160E088EE93E00E94860C62E021
:104C200082E00E94A4068EE394E00E9442170E9454
:104C30002C0710924804109247040E94A61C82EA96
:104C400095E00E941A1A8E010F5F1F4FA9E58A2E68
:104C5000A2E09A2EB0E54B2EB2E05B2EF5E06F2E6F
:104C6000712C3324339480912D040E944D0661E011
:104C700020912F04309130042817390709F060E0A3
:104C800088E294E00E944E17809136040E944D06FF
:104C900061E020913804309139042817390709F070
:104CA00060E081E394E00E944E170E94B408C09037
:104CB000DE04D090DF04E090E004F090E1046C1595
:104CC0007D058E059F0508F431C280912C04882350
:104CD000F1F080912A0490912B040597E1F48EE382
:104CE00094E00E94421785EB96E00E941A1A809188
:104CF0004704909148048230910509F4E4C308F018
:104D000028C2009709F44FC2019709F4B9C28091F3
:104D10002C04882371F080912A0490912B0407972A
:104D200041F48EE394E00E9442178CEA96E00E94E0
:104D30001A1A80912C048823F1F080912A04909112
:104D40002B040897C1F48EE394E00E94421785EA91
:104D500096E00E941A1A809147049091480482308C
:104D6000910509F4BAC408F0F1C3009709F405C429
:104D7000019709F485C480913504882309F444C05F
:104D800080913304909134040597F1F58EE394E01B
:104D90000E9442178CE996E00E941A1AC0904704BC
:104DA000D09048040D2C000CEE08FF082AE0B70153
:104DB000A601F7FE0DC06DE28FE393E00E94690942
:104DC00044275527BA014C195D096E097F092AE06D
:104DD0008FE393E00E943C1A61E871E08FE393E077
:104DE0000E940B1A6091470470914804623071056B
:104DF00009F4CBC408F07FC46115710509F4A6C499
:104E00006130710509F4DFC480913504882309F409
:104E1000FCC08091330490913404079709F0F5C0E9
:104E20008EE394E00E94421783E996E00E941A1AEA
:104E30008091470490914804019709F0E6C0809161
:104E40004E0490914F04049709F0D5C0809150040E
:104E5000882309F4FAC5809151049091520420915D
:104E60005704309158042230310509F0D2C54AE088
:104E7000489F9001499F300D1124809153049091D7
:104E80005404820F931F2091CB043091CC04821BD9
:104E9000930B9C0197FF02C02D5F3F4F35952795DF
:104EA00035952795820F931FA901440F551F440F75
:104EB000551F841B950B40918B0450918C04420F1D
:104EC000531F5093AC044093AB0440918D04509118
:104ED0008E04420F531F5093AE044093AD04409193
:104EE0008F0450919004420F531F5093B00440938D
:104EF000AF044091910450919204480F591F509370
:104F0000B2044093B1044091930450919404420F31
:104F1000531F5093B4044093B304409195045091AF
:104F20009604480F591F5093B6044093B50440911E
:104F3000970450919804420F531F5093B804409324
:104F4000B7044091990450919A04420F531F509313
:104F5000BA044093B90440919B0450919C04480FBB
:104F6000591F5093BC044093BB0440919D04509141
:104F70009E04420F531F5093BE044093BD044091C2
:104F80009F045091A004420F531F5093C0044093BC
:104F9000BF044091A1045091A204420F531F5093AB
:104FA000C2044093C1044091A3045091A404420F51
:104FB000531F5093C4044093C3044091A5045091DF
:104FC000A604420F531F5093C6044093C50440915A
:104FD000A7045091A804840F951F9093C804809350
:104FE000C7048091A9049091AA04280F391F309317
:104FF000CA042093C90470E060E081E090E00E9460
:10500000291D7092480460924704809135048823DA
:10501000D9F080913304909134040897A9F48EE379
:1050200094E00E9442178CE896E00E941A1A809140
:105030004704909148048130910509F4C9C508F4EA
:1050400099C5059709F4EFC50E94B408C090DA0429
:10505000D090DB04E090DC04F090DD046C197D0955
:105060008E099F0960367A4E8105910560F00E9495
:10507000B4086093DA047093DB048093DC049093AB
:10508000DD040E942C0780914D0460E0811101C075
:1050900062E088EE93E00E94860C0E94B408C09003
:1050A0003E04D0903F04E0904004F09041046C191D
:1050B0007D098E099F09C0903A04D0903B04E0908E
:1050C0003C04F0903D04C616D706E806F90670F5D4
:1050D00089E096E00E941A1A8EEA0E9492160E94B7
:1050E0001C1C0E941B17882311F40C947F3083EE44
:1050F00095E00E941A1A8EE394E00E9442178FEA0C
:105100000E94921610924804109247040E94A61C16
:105110000E94B40868517C4F8F4F9F4F6093DE040C
:105120007093DF048093E0049093E10462E370E005
:1051300080E090E00E94FA0680E090E0892B09F47C
:1051400092CD0E943309882309F48BCD0E94000080
:1051500085CD8430910509F4F2C108F4D2C10597D8
:1051600009F0D5CD8091D7049091D804079668E0D6
:1051700070E00E94C033E82F492F8093D7049093AA
:10518000D80462E070E00E94C0332E2F342F37FF26
:1051900002C02F5F3F4F35952795BC01C90101968D
:1051A0000E94291DB4CD809145049091460482301F
:1051B000910509F4BCC18430910581F081309105DD
:1051C00009F0A5CD90934804809347048091500442
:1051D000882309F4B3C00E94021E99CD909348041D
:1051E000809347040E94BD1761E272E0C8010E94EB
:1051F000271B3092FC033092FD031092F5031092AE
:10520000F4031092F7031092F603C8010E94ED0810
:10521000C8010E94B5176DE272E0C8010E94271B09
:105220003092FC033092FD031092F5031092F403C8
:105230008AE090E09093F7038093F603C8010E9400
:10524000ED08C8010E94B5176BE372E0C8010E9427
:10525000271B3092FC033092FD031092F50310924D
:10526000F40384E190E09093F7038093F603C80180
:105270000E94ED08C8010E94B5170E94771547CD1E
:105280008091890490918A0420915004222399F1FD
:105290008130910571F48091510490915204181657
:1052A00019060CF098CF0197909352048093510403
:1052B00092CF8230910571F48091530490915404FF
:1052C000181619060CF087CF019790935404809319
:1052D000530481CF039709F07ECF809155049091BC
:1052E0005604181619060CF076CF019790935604C1
:1052F0008093550470CF8130910551F58091590408
:1053000090915A0420916B0430916C04281739074E
:105310002CF4019790935A04809359048091590476
:1053200090915A04039769F410925C0410925B0404
:1053300081E090E090936E0480936D040E94D01EF3
:10534000E6CCA9E0B0E0B0936E04A0936D04F6CF74
:105350008230910589F480915B0490915C042091E6
:105360006F04309170042817390744F70197909320
:105370005C0480935B04E2CF8330910549F5809112
:105380005D0490915E04209171043091720428179D
:1053900039072CF4019790935E0480935D0480910B
:1053A0005D0490915E048130910559F490936004FE
:1053B00080935F0482E090E0909378048093770478
:1053C000BDCFA9E0B0E0B0937804A0937704B6CF46
:1053D0008430910591F480915F0490916004209154
:1053E000750430917604281739070CF0A7CF019780
:1053F0009093600480935F04A1CF8530910521F5DF
:1054000080916104909162042091790430917A0432
:10541000281739072CF40197909362048093610454
:105420008091610490916204029709F087CF1092F5
:105430006404109263041092660410926504109242
:105440006804109267047ACF8630910591F48091B8
:1054500063049091640420917D0430917E042817A8
:1054600039070CF06BCF0197909364048093630429
:1054700065CF8730910591F4809165049091660421
:105480002091810430918204281739070CF056CFFF
:105490000197909366048093650450CF089709F0B4
:1054A0004DCF8091670490916804209185043091DC
:1054B0008604281739070CF041CF019790936804B0
:1054C000809367043BCF8091490490914A040097F0
:1054D00061F460914D04632560934D048EE190E08A
:1054E0000E9484200E94631B12CC019709F00FCC0C
:1054F00083E090E090934804809347040E94BD1B92
:1055000006CC80914B0490914C04892BA9F43092E5
:10551000500460914E048AE090E00E9484206091E3
:10552000500484E190E00E94842082E090E0909317
:10553000480480934704D6CF10925004EACF1092CB
:105540004804109247040E94A61CE1CB84309105C8
:1055500009F4C3C008F4C6C0059709F00CCC81E07B
:1055600090E09093480480934704809150048823EE
:1055700009F4B0C00E94021EFECB709252046092E9
:1055800051047092540460925304709256046092D5
:10559000550481E090E090935804809357049093D1
:1055A0005A048093590470925C0460925B041092D8
:1055B0005E0410925D047092600460925F049093A8
:1055C000620480936104A9E0B0E0B0936404A09306
:1055D000630470926604609265047092680460923D
:1055E0006704EBEAF4E011821082138212821582C2
:1055F00014821782168238968BEC94E08E179F07E0
:1056000091F73092CD041092CF041092CE041092F4
:10561000D1041092D0041092D3041092D2041092AC
:10562000D4041092D6041092D5041092D80410928B
:10563000D7040E94BD176AE472E0C8010E94271BCC
:1056400082E08093FC038093FD031092F503109297
:10565000F403ACE0B0E0B093F703A093F603C80105
:105660000E94ED08C8010E94B5170E94771568EEE8
:1056700073E080E090E00E94FA060E94A61C7BCBBB
:105680008091890490918A048130910559F4109297
:105690004804109247040E94A61C70925204609223
:1056A000510469CB019720915004222379F0209175
:1056B00057043091580421503109309358042093F5
:1056C000570490938A048093890454CF90938A045A
:1056D000809389040E94D01E4ECB109248041092F1
:1056E0004704CBCF82E090E0909348048093470436
:1056F0000E94631B40CB6430710509F485C108F436
:1057000052C06530710509F07FCB8091D70490912C
:10571000D804019668E070E00E94C033E82F492F5A
:105720008093D7049093D80462E070E00E94C03365
:105730002E2F342F37FF02C02F5F3F4F359527950F
:10574000BC01C90101960E94291D5ECB80914504D0
:10575000909146048130910549F4A2E0B0E0B09305
:105760004604A09345040E94A61C4ECB82309105AE
:1057700039F484E090E09093460480934504F3CF9D
:10578000049789F781E090E0F6CF809149049091E9
:105790004A0401960E94C03390934A0480934904BE
:1057A0000E94631B31CB80914B0490914C04019675
:1057B00062E070E00E94C03390934C0480934B04ED
:1057C0000E94BD1B21CB8091890490918A04209175
:1057D0005004222389F18130910579F4809151049C
:1057E00090915204893091052CF4019690935204C3
:1057F000809351040E94021E07CB8230910569F408
:105800008091530490915404893091059CF701963E
:105810009093540480935304EDCF039759F78091EC
:105820005504909156048930910524F70196909380
:10583000560480935504DECF8130910551F5809157
:10584000590490915A042091690430916A04821796
:1058500093072CF4019690935A04809359048091F5
:10586000590490915A04039769F410925C041092C1
:105870005B0481E090E090936E0480936D040E943D
:10588000D01EC2CAA9E0B0E0B0936E04A0936D042C
:10589000F6CF8230910589F480915B0490915C048D
:1058A00020916D0430916E048217930744F701969E
:1058B00090935C0480935B04E2CF8330910549F5BB
:1058C00080915D0490915E04209173043091740482
:1058D000821793072CF4019690935E0480935D04E5
:1058E00080915D0490915E048130910559F490930C
:1058F000600480935F0482E090E09093780480934A
:105900007704BDCFA9E0B0E0B0937804A09377040A
:10591000B6CF8430910591F480915F04909160043A
:105920002091770430917804821793070CF0A7CF69
:1059300001969093600480935F04A1CF8530910518
:1059400021F5809161049091620420917B04309153
:105950007C04821793072CF4019690936204809341
:1059600061048091610490916204029709F087CFED
:1059700010926404109263041092660410926504FD
:1059800010926804109267047ACF8630910591F4E2
:10599000809163049091640420917F04309180048D
:1059A000821793070CF06BCF019690936404809359
:1059B000630465CF8730910591F4809165049091DF
:1059C00066042091830430918404821793070CF0BD
:1059D00056CF0196909366048093650450CF089744
:1059E00009F04DCF8091670490916804209187045D
:1059F00030918804821793070CF041CF0196909361
:105A00006804809367043BCF1092480410924704C7
:105A1000AACE2330310509F036CA40915304509183
:105A200054046AE0649F9001659F300D112464E680
:105A3000689FA001699F500D1124C901840F951F13
:105A400020915504309156041CCA809159049091BC
:105A50005A04AAE0A89F9001A99F300D11248091BB
:105A60005B0490915C04280F391F80915D04909134
:105A70005E04A89FA001A99F500D112480915F048E
:105A800090916004840F951F4091610450916204CD
:105A9000A49FB001A59F700D112440916304509103
:105AA0006404640F751F4091650450916604A49FBF
:105AB000F001A59FF00D11244091670450916804F6
:105AC0004E0F5F1F3093AC042093AB049093AE0451
:105AD0008093AD047093B0046093AF045093B2040C
